{
  "_format": "hh-sol-artifact-1",
  "contractName": "DeltaNeutralPerp",
  "sourceName": "contracts/strategy/DeltaNeutralPerp.sol",
  "abi": [
    {
      "anonymous": false,
      "inputs": [
        {
          "indexed": true,
          "internalType": "address",
          "name": "user",
          "type": "address"
        }
      ],
      "name": "DepositAllowed",
      "type": "event"
    },
    {
      "anonymous": false,
      "inputs": [
        {
          "indexed": true,
          "internalType": "address",
          "name": "previousOwner",
          "type": "address"
        },
        {
          "indexed": true,
          "internalType": "address",
          "name": "newOwner",
          "type": "address"
        }
      ],
      "name": "OwnershipTransferred",
      "type": "event"
    },
    {
      "anonymous": false,
      "inputs": [
        {
          "indexed": true,
          "internalType": "address",
          "name": "triger",
          "type": "address"
        },
        {
          "indexed": false,
          "internalType": "uint256",
          "name": "pfAmount",
          "type": "uint256"
        }
      ],
      "name": "PFCharged",
      "type": "event"
    },
    {
      "anonymous": false,
      "inputs": [
        {
          "indexed": true,
          "internalType": "bool",
          "name": "operationType",
          "type": "bool"
        },
        {
          "indexed": true,
          "internalType": "bool",
          "name": "positionType",
          "type": "bool"
        },
        {
          "indexed": false,
          "internalType": "uint256",
          "name": "usdcValue",
          "type": "uint256"
        },
        {
          "indexed": false,
          "internalType": "uint256",
          "name": "wValue",
          "type": "uint256"
        }
      ],
      "name": "PositionAdjusted",
      "type": "event"
    },
    {
      "anonymous": false,
      "inputs": [
        {
          "indexed": true,
          "internalType": "address",
          "name": "user",
          "type": "address"
        },
        {
          "indexed": false,
          "internalType": "uint256",
          "name": "usdcAmount",
          "type": "uint256"
        },
        {
          "indexed": true,
          "internalType": "uint256",
          "name": "depositAmount",
          "type": "uint256"
        },
        {
          "indexed": true,
          "internalType": "uint256",
          "name": "dcMintingAmount",
          "type": "uint256"
        }
      ],
      "name": "USDCDeposited",
      "type": "event"
    },
    {
      "anonymous": false,
      "inputs": [
        {
          "indexed": true,
          "internalType": "address",
          "name": "user",
          "type": "address"
        },
        {
          "indexed": false,
          "internalType": "uint256",
          "name": "usdcAmount",
          "type": "uint256"
        }
      ],
      "name": "USDCWithdrawn",
      "type": "event"
    },
    {
      "inputs": [
        {
          "internalType": "bool",
          "name": "operationType",
          "type": "bool"
        },
        {
          "internalType": "bool",
          "name": "positionType",
          "type": "bool"
        },
        {
          "internalType": "uint256",
          "name": "amount",
          "type": "uint256"
        }
      ],
      "name": "adjustPosition",
      "outputs": [],
      "stateMutability": "nonpayable",
      "type": "function"
    },
    {
      "inputs": [
        {
          "internalType": "address[]",
          "name": "users",
          "type": "address[]"
        },
        {
          "internalType": "bool",
          "name": "isDAO",
          "type": "bool"
        }
      ],
      "name": "allowDeposit",
      "outputs": [],
      "stateMutability": "nonpayable",
      "type": "function"
    },
    {
      "inputs": [
        {
          "internalType": "contract IERC20",
          "name": "token",
          "type": "address"
        },
        {
          "internalType": "uint256",
          "name": "amount",
          "type": "uint256"
        }
      ],
      "name": "approveTokenForUni",
      "outputs": [],
      "stateMutability": "nonpayable",
      "type": "function"
    },
    {
      "inputs": [
        {
          "internalType": "address",
          "name": "user",
          "type": "address"
        }
      ],
      "name": "availableDeposit",
      "outputs": [
        {
          "internalType": "uint256",
          "name": "",
          "type": "uint256"
        }
      ],
      "stateMutability": "view",
      "type": "function"
    },
    {
      "inputs": [],
      "name": "currentCasualDeposits",
      "outputs": [
        {
          "internalType": "uint256",
          "name": "",
          "type": "uint256"
        }
      ],
      "stateMutability": "view",
      "type": "function"
    },
    {
      "inputs": [],
      "name": "currentDaoDeposits",
      "outputs": [
        {
          "internalType": "uint256",
          "name": "",
          "type": "uint256"
        }
      ],
      "stateMutability": "view",
      "type": "function"
    },
    {
      "inputs": [
        {
          "internalType": "address",
          "name": "user",
          "type": "address"
        },
        {
          "internalType": "bool",
          "name": "isDAO",
          "type": "bool"
        }
      ],
      "name": "denyDeposit",
      "outputs": [],
      "stateMutability": "nonpayable",
      "type": "function"
    },
    {
      "inputs": [
        {
          "internalType": "uint256",
          "name": "amount",
          "type": "uint256"
        }
      ],
      "name": "depositUSDC",
      "outputs": [],
      "stateMutability": "nonpayable",
      "type": "function"
    },
    {
      "inputs": [
        {
          "internalType": "address",
          "name": "tokenA",
          "type": "address"
        },
        {
          "internalType": "address",
          "name": "tokenB",
          "type": "address"
        },
        {
          "internalType": "uint256",
          "name": "amount",
          "type": "uint256"
        }
      ],
      "name": "directBuyTokensToUniswap",
      "outputs": [],
      "stateMutability": "nonpayable",
      "type": "function"
    },
    {
      "inputs": [
        {
          "internalType": "uint256",
          "name": "amount",
          "type": "uint256"
        }
      ],
      "name": "directClosePosition",
      "outputs": [],
      "stateMutability": "nonpayable",
      "type": "function"
    },
    {
      "inputs": [
        {
          "internalType": "uint256",
          "name": "amount",
          "type": "uint256"
        }
      ],
      "name": "directDepositToVault",
      "outputs": [],
      "stateMutability": "nonpayable",
      "type": "function"
    },
    {
      "inputs": [
        {
          "internalType": "uint256",
          "name": "amount",
          "type": "uint256"
        },
        {
          "internalType": "bool",
          "name": "position",
          "type": "bool"
        }
      ],
      "name": "directOpenPosition",
      "outputs": [],
      "stateMutability": "nonpayable",
      "type": "function"
    },
    {
      "inputs": [
        {
          "internalType": "uint256",
          "name": "amount",
          "type": "uint256"
        }
      ],
      "name": "directWithdrawUSDCtoPerpVault",
      "outputs": [],
      "stateMutability": "nonpayable",
      "type": "function"
    },
    {
      "inputs": [
        {
          "internalType": "contract IERC20",
          "name": "_token",
          "type": "address"
        }
      ],
      "name": "emergencyWithdraw",
      "outputs": [],
      "stateMutability": "nonpayable",
      "type": "function"
    },
    {
      "inputs": [],
      "name": "escrowServer",
      "outputs": [
        {
          "internalType": "address",
          "name": "",
          "type": "address"
        }
      ],
      "stateMutability": "view",
      "type": "function"
    },
    {
      "inputs": [],
      "name": "getCurrentFundingRate",
      "outputs": [
        {
          "internalType": "uint256",
          "name": "",
          "type": "uint256"
        }
      ],
      "stateMutability": "view",
      "type": "function"
    },
    {
      "inputs": [],
      "name": "getDCTokenPrice",
      "outputs": [
        {
          "internalType": "uint256",
          "name": "",
          "type": "uint256"
        }
      ],
      "stateMutability": "view",
      "type": "function"
    },
    {
      "inputs": [],
      "name": "getDailyMarketTwap",
      "outputs": [
        {
          "internalType": "uint256",
          "name": "",
          "type": "uint256"
        }
      ],
      "stateMutability": "view",
      "type": "function"
    },
    {
      "inputs": [],
      "name": "getReserve",
      "outputs": [
        {
          "internalType": "uint256",
          "name": "",
          "type": "uint256"
        }
      ],
      "stateMutability": "view",
      "type": "function"
    },
    {
      "inputs": [],
      "name": "getTotalUSDCValue",
      "outputs": [
        {
          "internalType": "uint256",
          "name": "",
          "type": "uint256"
        }
      ],
      "stateMutability": "view",
      "type": "function"
    },
    {
      "inputs": [
        {
          "internalType": "address",
          "name": "_usdc",
          "type": "address"
        },
        {
          "internalType": "address",
          "name": "router_",
          "type": "address"
        },
        {
          "internalType": "address",
          "name": "wToken_",
          "type": "address"
        },
        {
          "internalType": "address",
          "name": "vToken_",
          "type": "address"
        },
        {
          "internalType": "contract IClearingHouse",
          "name": "perp_",
          "type": "address"
        },
        {
          "internalType": "contract IVault",
          "name": "perpVault_",
          "type": "address"
        },
        {
          "internalType": "address",
          "name": "_triggerServer",
          "type": "address"
        }
      ],
      "name": "initialize",
      "outputs": [],
      "stateMutability": "nonpayable",
      "type": "function"
    },
    {
      "inputs": [
        {
          "internalType": "address",
          "name": "user",
          "type": "address"
        }
      ],
      "name": "isAllowedToDeposit",
      "outputs": [
        {
          "internalType": "bool",
          "name": "",
          "type": "bool"
        }
      ],
      "stateMutability": "view",
      "type": "function"
    },
    {
      "inputs": [],
      "name": "maxDaoListPoolSizeLimit",
      "outputs": [
        {
          "internalType": "uint256",
          "name": "",
          "type": "uint256"
        }
      ],
      "stateMutability": "view",
      "type": "function"
    },
    {
      "inputs": [],
      "name": "maxUsersPoolSizeLimit",
      "outputs": [
        {
          "internalType": "uint256",
          "name": "",
          "type": "uint256"
        }
      ],
      "stateMutability": "view",
      "type": "function"
    },
    {
      "inputs": [
        {
          "internalType": "address",
          "name": "newContract",
          "type": "address"
        }
      ],
      "name": "migrate",
      "outputs": [],
      "stateMutability": "nonpayable",
      "type": "function"
    },
    {
      "inputs": [],
      "name": "owner",
      "outputs": [
        {
          "internalType": "address",
          "name": "",
          "type": "address"
        }
      ],
      "stateMutability": "view",
      "type": "function"
    },
    {
      "inputs": [],
      "name": "renounceOwnership",
      "outputs": [],
      "stateMutability": "nonpayable",
      "type": "function"
    },
    {
      "inputs": [
        {
          "internalType": "address",
          "name": "dcToken_",
          "type": "address"
        }
      ],
      "name": "setDcToken",
      "outputs": [],
      "stateMutability": "nonpayable",
      "type": "function"
    },
    {
      "inputs": [
        {
          "internalType": "address",
          "name": "_newEscrow",
          "type": "address"
        }
      ],
      "name": "setEscrow",
      "outputs": [],
      "stateMutability": "nonpayable",
      "type": "function"
    },
    {
      "inputs": [
        {
          "internalType": "uint256",
          "name": "_newLimit",
          "type": "uint256"
        }
      ],
      "name": "setMaxDaoPoolSizeLimit",
      "outputs": [],
      "stateMutability": "nonpayable",
      "type": "function"
    },
    {
      "inputs": [
        {
          "internalType": "address",
          "name": "_newTriggerServer",
          "type": "address"
        }
      ],
      "name": "setTriggerServer",
      "outputs": [],
      "stateMutability": "nonpayable",
      "type": "function"
    },
    {
      "inputs": [
        {
          "internalType": "uint256",
          "name": "_newLimit",
          "type": "uint256"
        }
      ],
      "name": "setUsersMaxPoolSizeLimit",
      "outputs": [],
      "stateMutability": "nonpayable",
      "type": "function"
    },
    {
      "inputs": [
        {
          "internalType": "address",
          "name": "newVToken",
          "type": "address"
        }
      ],
      "name": "setVToken",
      "outputs": [],
      "stateMutability": "nonpayable",
      "type": "function"
    },
    {
      "inputs": [
        {
          "internalType": "address",
          "name": "newOwner",
          "type": "address"
        }
      ],
      "name": "transferOwnership",
      "outputs": [],
      "stateMutability": "nonpayable",
      "type": "function"
    },
    {
      "inputs": [],
      "name": "triggerServer",
      "outputs": [
        {
          "internalType": "address",
          "name": "",
          "type": "address"
        }
      ],
      "stateMutability": "view",
      "type": "function"
    },
    {
      "inputs": [
        {
          "internalType": "uint256",
          "name": "amount",
          "type": "uint256"
        }
      ],
      "name": "withdrawUSDC",
      "outputs": [],
      "stateMutability": "nonpayable",
      "type": "function"
    }
  ],
  "bytecode": "0x608060405234801561001057600080fd5b50614c1b806100206000396000f3fe608060405234801561001057600080fd5b506004361061025c5760003560e01c80637e5fc1fc11610145578063caea2d86116100bd578063e83e15121161008c578063f688bcfb11610071578063f688bcfb146104fd578063f863061114610510578063fd241f991461051857600080fd5b8063e83e1512146104d7578063f2fde38b146104ea57600080fd5b8063caea2d861461048b578063ce5494bb1461049e578063db81f99b146104b1578063e1721e20146104c457600080fd5b8063a272f92111610114578063bf125342116100f9578063bf12534214610466578063bfbd55d31461046f578063c10c35461461047857600080fd5b8063a272f92114610440578063b8cd986f1461045357600080fd5b80637e5fc1fc146103f4578063878e7102146104075780638da5cb5b1461041a5780639a34d9721461043857600080fd5b80635532250f116101d8578063608261b8116101a75780636f13248d1161018c5780636f13248d146103905780636ff1c9bc146103d9578063715018a6146103ec57600080fd5b8063608261b8146103755780636b83c5011461037d57600080fd5b80635532250f1461033e57806359bf5d39146103515780635d4b671c146103595780635d871d0c1461036c57600080fd5b8063358764761161022f578063506a052611610214578063506a05261461030f578063515f732f14610322578063529f9c651461032b57600080fd5b806335876476146102e65780634469fc9d146102f957600080fd5b80630df8af191461026157806310e54cba146102765780631a06c975146102895780631c84b545146102d3575b600080fd5b61027461026f366004614974565b610538565b005b610274610284366004614974565b6105f1565b606c546102a99073ffffffffffffffffffffffffffffffffffffffff1681565b60405173ffffffffffffffffffffffffffffffffffffffff90911681526020015b60405180910390f35b6102746102e1366004614777565b610677565b6102746102f43660046146e2565b61072e565b610301610994565b6040519081526020016102ca565b61027461031d3660046147b7565b6109d5565b61030160775481565b6102746103393660046146aa565b610af6565b61027461034c366004614974565b610bbe565b610301610c44565b610274610367366004614931565b610ceb565b61030160765481565b610301610e18565b61027461038b366004614902565b610f7f565b6103c961039e3660046146aa565b73ffffffffffffffffffffffffffffffffffffffff1660009081526071602052604090205460ff1690565b60405190151581526020016102ca565b6102746103e73660046146aa565b6115db565b610274611893565b6102746104023660046146aa565b611920565b6102746104153660046146aa565b6119e8565b60335473ffffffffffffffffffffffffffffffffffffffff166102a9565b610301611b2d565b61027461044e366004614974565b611c92565b6102746104613660046147ef565b611d42565b61030160755481565b61030160745481565b6102746104863660046146aa565b612113565b6103016104993660046146aa565b612258565b6102746104ac3660046146aa565b612291565b6102746104bf366004614974565b6124fe565b6102746104d2366004614974565b612b57565b6102746104e536600461498c565b612c07565b6102746104f83660046146aa565b612cb8565b61027461050b366004614974565b612de5565b610301613424565b606d546102a99073ffffffffffffffffffffffffffffffffffffffff1681565b606d5473ffffffffffffffffffffffffffffffffffffffff1633146105e4576040517f08c379a000000000000000000000000000000000000000000000000000000000815260206004820152602660248201527f537472617465677953746f726167653a2063616c6c6572206973206e6f74207460448201527f726967676572000000000000000000000000000000000000000000000000000060648201526084015b60405180910390fd5b6105ed81613558565b5050565b60335473ffffffffffffffffffffffffffffffffffffffff163314610672576040517f08c379a000000000000000000000000000000000000000000000000000000000815260206004820181905260248201527f4f776e61626c653a2063616c6c6572206973206e6f7420746865206f776e657260448201526064016105db565b607455565b606d5473ffffffffffffffffffffffffffffffffffffffff16331461071e576040517f08c379a000000000000000000000000000000000000000000000000000000000815260206004820152602660248201527f537472617465677953746f726167653a2063616c6c6572206973206e6f74207460448201527f726967676572000000000000000000000000000000000000000000000000000060648201526084016105db565b610729838383613695565b505050565b610736613783565b606980547fffffffffffffffffffffffff000000000000000000000000000000000000000090811673ffffffffffffffffffffffffffffffffffffffff8a81169182179093556067805483168a8516908117909155606a805484168a8616179055606b80548416898616179055606f80548416888616179055607080548416878616179055606d8054841694861694909417909355606580547fffffffffffffffffff00000000000000000000000000000000000000000000001664012c0001f417905560668054909216909155630bebc200606e556040517f095ea7b300000000000000000000000000000000000000000000000000000000815260048101929092527fffffffffffffffffffffffffffffffffffffffffffffffffffffffffffffffff60248301529063095ea7b390604401602060405180830381600087803b15801561088457600080fd5b505af1158015610898573d6000803e3d6000fd5b505050506040513d601f19601f820116820180604052508101906108bc91906148e6565b50606a546067546040517f095ea7b300000000000000000000000000000000000000000000000000000000815273ffffffffffffffffffffffffffffffffffffffff91821660048201527fffffffffffffffffffffffffffffffffffffffffffffffffffffffffffffffff602482015291169063095ea7b390604401602060405180830381600087803b15801561095257600080fd5b505af1158015610966573d6000803e3d6000fd5b505050506040513d601f19601f8201168201806040525081019061098a91906148e6565b5050505050505050565b60008064e8d4a510006109a5611b2d565b6109af9190614a5b565b905060006109be610e106138a8565b90506109ce82620f42408361395e565b9250505090565b60335473ffffffffffffffffffffffffffffffffffffffff163314610a56576040517f08c379a000000000000000000000000000000000000000000000000000000000815260206004820181905260248201527f4f776e61626c653a2063616c6c6572206973206e6f7420746865206f776e657260448201526064016105db565b8015610aa9575073ffffffffffffffffffffffffffffffffffffffff16600090815260726020526040902080547fffffffffffffffffffffffffffffffffffffffffffffffffffffffffffffff00169055565b5073ffffffffffffffffffffffffffffffffffffffff16600090815260716020526040902080547fffffffffffffffffffffffffffffffffffffffffffffffffffffffffffffff00169055565b60335473ffffffffffffffffffffffffffffffffffffffff163314610b77576040517f08c379a000000000000000000000000000000000000000000000000000000000815260206004820181905260248201527f4f776e61626c653a2063616c6c6572206973206e6f7420746865206f776e657260448201526064016105db565b606880547fffffffffffffffffffffffff00000000000000000000000000000000000000001673ffffffffffffffffffffffffffffffffffffffff92909216919091179055565b60335473ffffffffffffffffffffffffffffffffffffffff163314610c3f576040517f08c379a000000000000000000000000000000000000000000000000000000000815260206004820181905260248201527f4f776e61626c653a2063616c6c6572206973206e6f7420746865206f776e657260448201526064016105db565b607555565b6069546040517f70a0823100000000000000000000000000000000000000000000000000000000815230600482015260009173ffffffffffffffffffffffffffffffffffffffff16906370a082319060240160206040518083038186803b158015610cae57600080fd5b505afa158015610cc2573d6000803e3d6000fd5b505050506040513d601f19601f82011682018060405250810190610ce6919061495c565b905090565b60335473ffffffffffffffffffffffffffffffffffffffff163314610d6c576040517f08c379a000000000000000000000000000000000000000000000000000000000815260206004820181905260248201527f4f776e61626c653a2063616c6c6572206973206e6f7420746865206f776e657260448201526064016105db565b6067546040517f095ea7b300000000000000000000000000000000000000000000000000000000815273ffffffffffffffffffffffffffffffffffffffff9182166004820152602481018390529083169063095ea7b390604401602060405180830381600087803b158015610de057600080fd5b505af1158015610df4573d6000803e3d6000fd5b505050506040513d601f19601f8201168201806040525081019061072991906148e6565b606854604080517f18160ddd000000000000000000000000000000000000000000000000000000008152905160009273ffffffffffffffffffffffffffffffffffffffff16916318160ddd916004808301926020929190829003018186803b158015610e8357600080fd5b505afa158015610e97573d6000803e3d6000fd5b505050506040513d601f19601f82011682018060405250810190610ebb919061495c565b610ec55750600090565b610ce6610ed0613424565b606854604080517f18160ddd0000000000000000000000000000000000000000000000000000000081529051670de0b6b3a76400009273ffffffffffffffffffffffffffffffffffffffff16916318160ddd916004808301926020929190829003018186803b158015610f4257600080fd5b505afa158015610f56573d6000803e3d6000fd5b505050506040513d601f19601f82011682018060405250810190610f7a919061495c565b61395e565b606d5473ffffffffffffffffffffffffffffffffffffffff163314611026576040517f08c379a000000000000000000000000000000000000000000000000000000000815260206004820152602660248201527f537472617465677953746f726167653a2063616c6c6572206973206e6f74207460448201527f726967676572000000000000000000000000000000000000000000000000000060648201526084016105db565b8061108d576040517f08c379a000000000000000000000000000000000000000000000000000000000815260206004820152601060248201527f444e503a207a65726f20616d6f756e740000000000000000000000000000000060448201526064016105db565b600061109d600a6064602d61395e565b606a546040517f70a082310000000000000000000000000000000000000000000000000000000081523060048201529192506000916111639173ffffffffffffffffffffffffffffffffffffffff16906370a082319060240160206040518083038186803b15801561110e57600080fd5b505afa158015611122573d6000803e3d6000fd5b505050506040513d601f19601f82011682018060405250810190611146919061495c565b61115060006138a8565b6c0c9f2c9cd04674edea4000000061395e565b905060006111738284606461395e565b90506000821180156111825750855b801561118b5750845b1561120c57808461119a610c44565b6111a49190614ad1565b111561120c576040517f08c379a000000000000000000000000000000000000000000000000000000000815260206004820152601560248201527f444e503a2050726f706f7274696f6e20627265616b000000000000000000000060448201526064016105db565b85156115cb57600061121f85602d613af8565b9050600061122e86602d613af8565b905086156113e8578561123f610c44565b10156112a7576040517f08c379a000000000000000000000000000000000000000000000000000000000815260206004820152601960248201527f444e503a20496e73756666696369656e7420726573657276650000000000000060448201526064016105db565b6069546067546040517f095ea7b300000000000000000000000000000000000000000000000000000000815273ffffffffffffffffffffffffffffffffffffffff91821660048201526024810184905291169063095ea7b390604401602060405180830381600087803b15801561131d57600080fd5b505af1158015611331573d6000803e3d6000fd5b505050506040513d601f19601f8201168201806040525081019061135591906148e6565b50606954606a546113809173ffffffffffffffffffffffffffffffffffffffff908116911683613695565b61138982613b10565b6113a161139b8364e8d4a51000614a94565b88613cb8565b506040805183815260208101839052881515918a1515917f1c520f41c3a8e2aa318c749011558adfd2b9bf3a82c508c280944ba6424145af910160405180910390a36115c4565b606a546040517f70a0823100000000000000000000000000000000000000000000000000000000815230600482015282916114a89173ffffffffffffffffffffffffffffffffffffffff909116906370a08231906024015b60206040518083038186803b15801561145857600080fd5b505afa15801561146c573d6000803e3d6000fd5b505050506040513d601f19601f82011682018060405250810190611490919061495c565b61149a60006138a8565b670de0b6b3a764000061395e565b10156114bb576114b6613e35565b6115c4565b606a546069546040517f70a0823100000000000000000000000000000000000000000000000000000000815230600482015261156e9273ffffffffffffffffffffffffffffffffffffffff908116921690849083906370a082319060240160206040518083038186803b15801561153157600080fd5b505afa158015611545573d6000803e3d6000fd5b505050506040513d601f19601f82011682018060405250810190611569919061495c565b614120565b6115788288613cb8565b5061158282614208565b6040805183815260208101839052881515918a1515917f1c520f41c3a8e2aa318c749011558adfd2b9bf3a82c508c280944ba6424145af910160405180910390a35b50506115d3565b6115d3613e35565b505050505050565b60335473ffffffffffffffffffffffffffffffffffffffff16331461165c576040517f08c379a000000000000000000000000000000000000000000000000000000000815260206004820181905260248201527f4f776e61626c653a2063616c6c6572206973206e6f7420746865206f776e657260448201526064016105db565b606c5473ffffffffffffffffffffffffffffffffffffffff166116db576040517f08c379a000000000000000000000000000000000000000000000000000000000815260206004820152601d60248201527f537472617465677953746f726167653a207a65726f206164647265737300000060448201526064016105db565b606c546040517f70a0823100000000000000000000000000000000000000000000000000000000815230600482015273ffffffffffffffffffffffffffffffffffffffff8381169263a9059cbb9291169083906370a082319060240160206040518083038186803b15801561174f57600080fd5b505afa158015611763573d6000803e3d6000fd5b505050506040513d601f19601f82011682018060405250810190611787919061495c565b6040517fffffffff0000000000000000000000000000000000000000000000000000000060e085901b16815273ffffffffffffffffffffffffffffffffffffffff90921660048301526024820152604401602060405180830381600087803b1580156117f257600080fd5b505af1158015611806573d6000803e3d6000fd5b505050506040513d601f19601f8201168201806040525081019061182a91906148e6565b611890576040517f08c379a000000000000000000000000000000000000000000000000000000000815260206004820152601a60248201527f444e503a204552433230207472616e73666572206661696c656400000000000060448201526064016105db565b50565b60335473ffffffffffffffffffffffffffffffffffffffff163314611914576040517f08c379a000000000000000000000000000000000000000000000000000000000815260206004820181905260248201527f4f776e61626c653a2063616c6c6572206973206e6f7420746865206f776e657260448201526064016105db565b61191e6000614269565b565b60335473ffffffffffffffffffffffffffffffffffffffff1633146119a1576040517f08c379a000000000000000000000000000000000000000000000000000000000815260206004820181905260248201527f4f776e61626c653a2063616c6c6572206973206e6f7420746865206f776e657260448201526064016105db565b606b80547fffffffffffffffffffffffff00000000000000000000000000000000000000001673ffffffffffffffffffffffffffffffffffffffff92909216919091179055565b60335473ffffffffffffffffffffffffffffffffffffffff163314611a69576040517f08c379a000000000000000000000000000000000000000000000000000000000815260206004820181905260248201527f4f776e61626c653a2063616c6c6572206973206e6f7420746865206f776e657260448201526064016105db565b73ffffffffffffffffffffffffffffffffffffffff8116611ae6576040517f08c379a000000000000000000000000000000000000000000000000000000000815260206004820152601d60248201527f537472617465677953746f726167653a207a65726f206164647265737300000060448201526064016105db565b606d80547fffffffffffffffffffffffff00000000000000000000000000000000000000001673ffffffffffffffffffffffffffffffffffffffff92909216919091179055565b600080606f60009054906101000a900473ffffffffffffffffffffffffffffffffffffffff1673ffffffffffffffffffffffffffffffffffffffff1663f807cd226040518163ffffffff1660e01b815260040160206040518083038186803b158015611b9857600080fd5b505afa158015611bac573d6000803e3d6000fd5b505050506040513d601f19601f82011682018060405250810190611bd091906146c6565b606b546040517f99e4a77100000000000000000000000000000000000000000000000000000000815273ffffffffffffffffffffffffffffffffffffffff9182166004820152610e1060248201529116906399e4a7719060440160206040518083038186803b158015611c4257600080fd5b505afa158015611c56573d6000803e3d6000fd5b505050506040513d601f19601f82011682018060405250810190611c7a91906146c6565b90506000611c87826142e0565b90506109ce81614310565b606d5473ffffffffffffffffffffffffffffffffffffffff163314611d39576040517f08c379a000000000000000000000000000000000000000000000000000000000815260206004820152602660248201527f537472617465677953746f726167653a2063616c6c6572206973206e6f74207460448201527f726967676572000000000000000000000000000000000000000000000000000060648201526084016105db565b61189081614208565b60335473ffffffffffffffffffffffffffffffffffffffff163314611dc3576040517f08c379a000000000000000000000000000000000000000000000000000000000815260206004820181905260248201527f4f776e61626c653a2063616c6c6572206973206e6f7420746865206f776e657260448201526064016105db565b8015611fda5760005b82518110156107295760716000848381518110611e12577f4e487b7100000000000000000000000000000000000000000000000000000000600052603260045260246000fd5b60209081029190910181015173ffffffffffffffffffffffffffffffffffffffff1682528101919091526040016000205460ff1615611ead576040517f08c379a000000000000000000000000000000000000000000000000000000000815260206004820152601960248201527f444e503a205573657220616c726561647920616c6c6f7765640000000000000060448201526064016105db565b600160726000858481518110611eec577f4e487b7100000000000000000000000000000000000000000000000000000000600052603260045260246000fd5b602002602001015173ffffffffffffffffffffffffffffffffffffffff1673ffffffffffffffffffffffffffffffffffffffff16815260200190815260200160002060006101000a81548160ff021916908315150217905550828181518110611f7e577f4e487b7100000000000000000000000000000000000000000000000000000000600052603260045260246000fd5b602002602001015173ffffffffffffffffffffffffffffffffffffffff167fbc20f56c378e7e237a981b81d32ff91ed86109ee0373a910a83346edd53ad0de60405160405180910390a280611fd281614ae8565b915050611dcc565b60005b825181101561072957600160716000858481518110612025577f4e487b7100000000000000000000000000000000000000000000000000000000600052603260045260246000fd5b602002602001015173ffffffffffffffffffffffffffffffffffffffff1673ffffffffffffffffffffffffffffffffffffffff16815260200190815260200160002060006101000a81548160ff0219169083151502179055508281815181106120b7577f4e487b7100000000000000000000000000000000000000000000000000000000600052603260045260246000fd5b602002602001015173ffffffffffffffffffffffffffffffffffffffff167fbc20f56c378e7e237a981b81d32ff91ed86109ee0373a910a83346edd53ad0de60405160405180910390a28061210b81614ae8565b915050611fdd565b60335473ffffffffffffffffffffffffffffffffffffffff163314612194576040517f08c379a000000000000000000000000000000000000000000000000000000000815260206004820181905260248201527f4f776e61626c653a2063616c6c6572206973206e6f7420746865206f776e657260448201526064016105db565b73ffffffffffffffffffffffffffffffffffffffff8116612211576040517f08c379a000000000000000000000000000000000000000000000000000000000815260206004820152601d60248201527f537472617465677953746f726167653a207a65726f206164647265737300000060448201526064016105db565b606c80547fffffffffffffffffffffffff00000000000000000000000000000000000000001673ffffffffffffffffffffffffffffffffffffffff92909216919091179055565b73ffffffffffffffffffffffffffffffffffffffff8116600090815260736020526040812054606e5461228b9190614ad1565b92915050565b606d5473ffffffffffffffffffffffffffffffffffffffff163314612338576040517f08c379a000000000000000000000000000000000000000000000000000000000815260206004820152602660248201527f537472617465677953746f726167653a2063616c6c6572206973206e6f74207460448201527f726967676572000000000000000000000000000000000000000000000000000060648201526084016105db565b6000607481905560755561234a613e35565b6069546040517f70a0823100000000000000000000000000000000000000000000000000000000815230600482015273ffffffffffffffffffffffffffffffffffffffff9091169063a9059cbb90839083906370a082319060240160206040518083038186803b1580156123bd57600080fd5b505afa1580156123d1573d6000803e3d6000fd5b505050506040513d601f19601f820116820180604052508101906123f5919061495c565b6040517fffffffff0000000000000000000000000000000000000000000000000000000060e085901b16815273ffffffffffffffffffffffffffffffffffffffff90921660048301526024820152604401602060405180830381600087803b15801561246057600080fd5b505af1158015612474573d6000803e3d6000fd5b505050506040513d601f19601f8201168201806040525081019061249891906148e6565b611890576040517f08c379a000000000000000000000000000000000000000000000000000000000815260206004820152601960248201527f444e503a2075736463207472616e73666572206661696c65640000000000000060448201526064016105db565b80612565576040517f08c379a000000000000000000000000000000000000000000000000000000000815260206004820152601060248201527f444e503a207a65726f20616d6f756e740000000000000000000000000000000060448201526064016105db565b60685473ffffffffffffffffffffffffffffffffffffffff166370a08231336040517fffffffff0000000000000000000000000000000000000000000000000000000060e084901b16815273ffffffffffffffffffffffffffffffffffffffff909116600482015260240160206040518083038186803b1580156125e857600080fd5b505afa1580156125fc573d6000803e3d6000fd5b505050506040513d601f19601f82011682018060405250810190612620919061495c565b811115612689576040517f08c379a000000000000000000000000000000000000000000000000000000000815260206004820152601860248201527f444e503a20696e73756666696369656e7420746f6b656e73000000000000000060448201526064016105db565b60006126fb82620f4240606860009054906101000a900473ffffffffffffffffffffffffffffffffffffffff1673ffffffffffffffffffffffffffffffffffffffff166318160ddd6040518163ffffffff1660e01b815260040160206040518083038186803b158015610f4257600080fd5b9050600061271461270a613424565b83620f424061395e565b905061271e613424565b8111156127ad576040517f08c379a000000000000000000000000000000000000000000000000000000000815260206004820152602f60248201527f444e503a20747279696e6720746f207769746864726177206d6f72652074686160448201527f6e20706f6f6c20636f6e7461696e73000000000000000000000000000000000060648201526084016105db565b336000908152607360205260409020548111156127d957336000908152607360205260408120556127fe565b33600090815260736020526040812080548392906127f8908490614ad1565b90915550505b80612807610c44565b101561281e5761281e612818610c44565b82614332565b60685473ffffffffffffffffffffffffffffffffffffffff166323b872dd336040517fffffffff0000000000000000000000000000000000000000000000000000000060e084901b16815273ffffffffffffffffffffffffffffffffffffffff909116600482015230602482015260448101869052606401602060405180830381600087803b1580156128b057600080fd5b505af11580156128c4573d6000803e3d6000fd5b505050506040513d601f19601f820116820180604052508101906128e891906148e6565b61294e576040517f08c379a000000000000000000000000000000000000000000000000000000000815260206004820152601c60248201527f444e503a206463546f6b656e207472616e73666572206661696c65640000000060448201526064016105db565b6068546040517f42966c680000000000000000000000000000000000000000000000000000000081526004810185905273ffffffffffffffffffffffffffffffffffffffff909116906342966c6890602401602060405180830381600087803b1580156129ba57600080fd5b505af11580156129ce573d6000803e3d6000fd5b505050506040513d601f19601f820116820180604052508101906129f291906148e6565b5060695473ffffffffffffffffffffffffffffffffffffffff1663a9059cbb336040517fffffffff0000000000000000000000000000000000000000000000000000000060e084901b16815273ffffffffffffffffffffffffffffffffffffffff909116600482015260248101849052604401602060405180830381600087803b158015612a7f57600080fd5b505af1158015612a93573d6000803e3d6000fd5b505050506040513d601f19601f82011682018060405250810190612ab791906148e6565b612b1d576040517f08c379a000000000000000000000000000000000000000000000000000000000815260206004820152601960248201527f444e503a2075736463207472616e73666572206661696c65640000000000000060448201526064016105db565b60405181815233907f2aa7fb97600ea702b454359fc3d02ae9fa48367e7155505d38cee896e5b5aae79060200160405180910390a2505050565b606d5473ffffffffffffffffffffffffffffffffffffffff163314612bfe576040517f08c379a000000000000000000000000000000000000000000000000000000000815260206004820152602660248201527f537472617465677953746f726167653a2063616c6c6572206973206e6f74207460448201527f726967676572000000000000000000000000000000000000000000000000000060648201526084016105db565b61189081613b10565b606d5473ffffffffffffffffffffffffffffffffffffffff163314612cae576040517f08c379a000000000000000000000000000000000000000000000000000000000815260206004820152602660248201527f537472617465677953746f726167653a2063616c6c6572206973206e6f74207460448201527f726967676572000000000000000000000000000000000000000000000000000060648201526084016105db565b6107298282613cb8565b60335473ffffffffffffffffffffffffffffffffffffffff163314612d39576040517f08c379a000000000000000000000000000000000000000000000000000000000815260206004820181905260248201527f4f776e61626c653a2063616c6c6572206973206e6f7420746865206f776e657260448201526064016105db565b73ffffffffffffffffffffffffffffffffffffffff8116612ddc576040517f08c379a000000000000000000000000000000000000000000000000000000000815260206004820152602660248201527f4f776e61626c653a206e6577206f776e657220697320746865207a65726f206160448201527f646472657373000000000000000000000000000000000000000000000000000060648201526084016105db565b61189081614269565b80612e4c576040517f08c379a000000000000000000000000000000000000000000000000000000000815260206004820152601060248201527f444e503a207a65726f20616d6f756e740000000000000000000000000000000060448201526064016105db565b606e5433600090815260736020526040902054612e6a908390614a43565b1115612ed2576040517f08c379a000000000000000000000000000000000000000000000000000000000815260206004820152601c60248201527f444e503a20457863656564696e67206465706f736974206c696d69740000000060448201526064016105db565b3360009081526072602052604090205460ff1615612fa65760755481607654612efb9190614a43565b1115612f89576040517f08c379a000000000000000000000000000000000000000000000000000000000815260206004820152602260248201527f444e503a20457863656564696e672044414f20746f74616c20706f6f6c4c696d60448201527f697400000000000000000000000000000000000000000000000000000000000060648201526084016105db565b8060766000828254612f9b9190614a43565b909155506130d69050565b3360009081526071602052604090205460ff16613045576040517f08c379a000000000000000000000000000000000000000000000000000000000815260206004820152602360248201527f444e503a20596f7520617265206e6f7420616c6c6f77656420746f206465706f60448201527f736974000000000000000000000000000000000000000000000000000000000060648201526084016105db565b607454816077546130569190614a43565b11156130be576040517f08c379a000000000000000000000000000000000000000000000000000000000815260206004820152601e60248201527f444e503a20457863656564696e6720746f74616c20706f6f6c4c696d6974000060448201526064016105db565b80607760008282546130d09190614a43565b90915550505b60006130e0613424565b905060006130f38364e8d4a51000614a94565b9050620186a08211156131bf57600061311584670de0b6b3a76400008561395e565b90506131bb81606860009054906101000a900473ffffffffffffffffffffffffffffffffffffffff1673ffffffffffffffffffffffffffffffffffffffff166318160ddd6040518163ffffffff1660e01b815260040160206040518083038186803b15801561318357600080fd5b505afa158015613197573d6000803e3d6000fd5b505050506040513d601f19601f8201168201806040525081019061149a919061495c565b9150505b33600090815260736020526040812080548592906131de908490614a43565b909155505060695473ffffffffffffffffffffffffffffffffffffffff166323b872dd336040517fffffffff0000000000000000000000000000000000000000000000000000000060e084901b16815273ffffffffffffffffffffffffffffffffffffffff909116600482015230602482015260448101869052606401602060405180830381600087803b15801561327557600080fd5b505af1158015613289573d6000803e3d6000fd5b505050506040513d601f19601f820116820180604052508101906132ad91906148e6565b613313576040517f08c379a000000000000000000000000000000000000000000000000000000000815260206004820152601960248201527f444e503a2075736463207472616e73666572206661696c65640000000000000060448201526064016105db565b60685473ffffffffffffffffffffffffffffffffffffffff166340c10f19336040517fffffffff0000000000000000000000000000000000000000000000000000000060e084901b16815273ffffffffffffffffffffffffffffffffffffffff909116600482015260248101849052604401602060405180830381600087803b15801561339f57600080fd5b505af11580156133b3573d6000803e3d6000fd5b505050506040513d601f19601f820116820180604052508101906133d791906148e6565b50336000818152607360209081526040918290205491518681528493917fadb9c7d50e628cfae085d3b964d71561992874591285cf3fceca443f1a5ed7cb910160405180910390a4505050565b606a546040517f70a082310000000000000000000000000000000000000000000000000000000081523060048201526000916134819173ffffffffffffffffffffffffffffffffffffffff909116906370a0823190602401611440565b613489610c44565b606f546040517f5ae8095100000000000000000000000000000000000000000000000000000000815230600482015264e8d4a510009161353a9173ffffffffffffffffffffffffffffffffffffffff90911690635ae809519060240160206040518083038186803b1580156134fd57600080fd5b505afa158015613511573d6000803e3d6000fd5b505050506040513d601f19601f82011682018060405250810190613535919061495c565b614472565b6135449190614a5b565b61354e9190614a43565b610ce69190614a43565b606f546040805160a081018252606b5473ffffffffffffffffffffffffffffffffffffffff90811682526066548116602083015291810184905260655460009383169262aa9a89929160608301916135b891630100000090041642614a43565b815260006020918201526040805160e085901b7fffffffff00000000000000000000000000000000000000000000000000000000168152835173ffffffffffffffffffffffffffffffffffffffff9081166004830152928401519092166024830152820151604482015260608201516064820152608090910151608482015260a4016040805180830381600087803b15801561365357600080fd5b505af1158015613667573d6000803e3d6000fd5b505050506040513d601f19601f8201168201806040525081019061368b91906149b0565b5060019392505050565b6067546040805160e08101825273ffffffffffffffffffffffffffffffffffffffff8681168252858116602083015260655462ffffff168284015230606083015260808201859052600060a0830152606654811660c083015291517f04e45aaf00000000000000000000000000000000000000000000000000000000815291909216916304e45aaf9161372b91906004016149d3565b602060405180830381600087803b15801561374557600080fd5b505af1158015613759573d6000803e3d6000fd5b505050506040513d601f19601f8201168201806040525081019061377d919061495c565b50505050565b600054610100900460ff168061379c575060005460ff16155b613828576040517f08c379a000000000000000000000000000000000000000000000000000000000815260206004820152602e60248201527f496e697469616c697a61626c653a20636f6e747261637420697320616c72656160448201527f647920696e697469616c697a656400000000000000000000000000000000000060648201526084016105db565b600054610100900460ff1615801561386757600080547fffffffffffffffffffffffffffffffffffffffffffffffffffffffffffff0000166101011790555b61386f61448e565b6138776145a2565b801561189057600080547fffffffffffffffffffffffffffffffffffffffffffffffffffffffffffff00ff16905550565b606b546040517f120806470000000000000000000000000000000000000000000000000000000081526004810183905260009164e8d4a510009173ffffffffffffffffffffffffffffffffffffffff9091169063120806479060240160206040518083038186803b15801561391c57600080fd5b505afa158015613930573d6000803e3d6000fd5b505050506040513d601f19601f82011682018060405250810190613954919061495c565b61228b9190614a5b565b600080807fffffffffffffffffffffffffffffffffffffffffffffffffffffffffffffffff85870985870292508281108382030391505080600014156139b657600084116139ab57600080fd5b508290049050613af1565b8084116139c257600080fd5b60008486880980840393811190920391905060006139e286196001614a43565b8616958690049593849004936000819003046001019050613a038184614a94565b909317926000613a14876003614a94565b6002189050613a238188614a94565b613a2e906002614ad1565b613a389082614a94565b9050613a448188614a94565b613a4f906002614ad1565b613a599082614a94565b9050613a658188614a94565b613a70906002614ad1565b613a7a9082614a94565b9050613a868188614a94565b613a91906002614ad1565b613a9b9082614a94565b9050613aa78188614a94565b613ab2906002614ad1565b613abc9082614a94565b9050613ac88188614a94565b613ad3906002614ad1565b613add9082614a94565b9050613ae98186614a94565b955050505050505b9392505050565b60006064613b068385614a94565b613af19190614a5b565b80613b77576040517f08c379a000000000000000000000000000000000000000000000000000000000815260206004820152601060248201527f444e503a207a65726f20616d6f756e740000000000000000000000000000000060448201526064016105db565b6069546070546040517f095ea7b300000000000000000000000000000000000000000000000000000000815273ffffffffffffffffffffffffffffffffffffffff91821660048201526024810184905291169063095ea7b390604401602060405180830381600087803b158015613bed57600080fd5b505af1158015613c01573d6000803e3d6000fd5b505050506040513d601f19601f82011682018060405250810190613c2591906148e6565b506070546069546040517f47e7ef2400000000000000000000000000000000000000000000000000000000815273ffffffffffffffffffffffffffffffffffffffff9182166004820152602481018490529116906347e7ef24906044015b600060405180830381600087803b158015613c9d57600080fd5b505af1158015613cb1573d6000803e3d6000fd5b5050505050565b606f546040805161010081018252606b5473ffffffffffffffffffffffffffffffffffffffff9081168252841515602083015260009282018390526060820186905260808201839052606554929381169263b6b1b6c3929160a0830191613d289163010000009091041642614a43565b815260665473ffffffffffffffffffffffffffffffffffffffff9081166020808401919091526000604093840152825160e086811b7fffffffff0000000000000000000000000000000000000000000000000000000016825285518416600483015291850151151560248201529284015115156044840152606084015160648401526080840151608484015260a084015160a484015260c084015190911660c4830152919091015160e4820152610104016040805180830381600087803b158015613df257600080fd5b505af1158015613e06573d6000803e3d6000fd5b505050506040513d601f19601f82011682018060405250810190613e2a91906149b0565b506001949350505050565b613e3f6000613558565b506070546040517fc3999444000000000000000000000000000000000000000000000000000000008152306004820152613ee89173ffffffffffffffffffffffffffffffffffffffff169063c39994449060240160206040518083038186803b158015613eab57600080fd5b505afa158015613ebf573d6000803e3d6000fd5b505050506040513d601f19601f82011682018060405250810190613ee3919061495c565b614208565b606a546040517f70a0823100000000000000000000000000000000000000000000000000000000815230600482015260009173ffffffffffffffffffffffffffffffffffffffff16906370a082319060240160206040518083038186803b158015613f5257600080fd5b505afa158015613f66573d6000803e3d6000fd5b505050506040513d601f19601f82011682018060405250810190613f8a919061495c565b111561404157606a546069546040517f70a082310000000000000000000000000000000000000000000000000000000081523060048201526140419273ffffffffffffffffffffffffffffffffffffffff90811692169082906370a082319060240160206040518083038186803b15801561400457600080fd5b505afa158015614018573d6000803e3d6000fd5b505050506040513d601f19601f8201168201806040525081019061403c919061495c565b613695565b6069546040517f70a0823100000000000000000000000000000000000000000000000000000000815230600482015260009182917f1c520f41c3a8e2aa318c749011558adfd2b9bf3a82c508c280944ba6424145af9173ffffffffffffffffffffffffffffffffffffffff16906370a082319060240160206040518083038186803b1580156140cf57600080fd5b505afa1580156140e3573d6000803e3d6000fd5b505050506040513d601f19601f82011682018060405250810190614107919061495c565b60408051918252600060208301520160405180910390a3565b6067546040805160e08101825273ffffffffffffffffffffffffffffffffffffffff8781168252868116602083015260655462ffffff16828401523060608301526080820186905260a08201859052606654811660c083015291517f5023b4df0000000000000000000000000000000000000000000000000000000081529190921691635023b4df916141b691906004016149d3565b602060405180830381600087803b1580156141d057600080fd5b505af11580156141e4573d6000803e3d6000fd5b505050506040513d601f19601f82011682018060405250810190613cb1919061495c565b6070546069546040517ff3fef3a300000000000000000000000000000000000000000000000000000000815273ffffffffffffffffffffffffffffffffffffffff91821660048201526024810184905291169063f3fef3a390604401613c83565b6033805473ffffffffffffffffffffffffffffffffffffffff8381167fffffffffffffffffffffffff0000000000000000000000000000000000000000831681179093556040519116919082907f8be0079c531659141344cd1fd0a4f28419497f9722a3daafe3b4186f6b6457e090600090a35050565b600061228b73ffffffffffffffffffffffffffffffffffffffff8316806c0100000000000000000000000061395e565b600061228b82670de0b6b3a76400006c0100000000000000000000000061395e565b600061433e8383614ad1565b9050600261434d600a83614a5b565b6143579083614a43565b6143619190614a5b565b9050600061437c82670de0b6b3a7640000610f7a60006138a8565b606a546040517f70a0823100000000000000000000000000000000000000000000000000000000815230600482015291925073ffffffffffffffffffffffffffffffffffffffff16906370a082319060240160206040518083038186803b1580156143e657600080fd5b505afa1580156143fa573d6000803e3d6000fd5b505050506040513d601f19601f8201168201806040525081019061441e919061495c565b8111156144325761442d613e35565b61377d565b606a5460695461445d9173ffffffffffffffffffffffffffffffffffffffff90811691168484614120565b614468816000613cb8565b5061377d82614208565b60008082121561448a5761448582614b21565b61228b565b5090565b600054610100900460ff16806144a7575060005460ff16155b614533576040517f08c379a000000000000000000000000000000000000000000000000000000000815260206004820152602e60248201527f496e697469616c697a61626c653a20636f6e747261637420697320616c72656160448201527f647920696e697469616c697a656400000000000000000000000000000000000060648201526084016105db565b600054610100900460ff1615801561387757600080547fffffffffffffffffffffffffffffffffffffffffffffffffffffffffffff000016610101179055801561189057600080547fffffffffffffffffffffffffffffffffffffffffffffffffffffffffffff00ff16905550565b600054610100900460ff16806145bb575060005460ff16155b614647576040517f08c379a000000000000000000000000000000000000000000000000000000000815260206004820152602e60248201527f496e697469616c697a61626c653a20636f6e747261637420697320616c72656160448201527f647920696e697469616c697a656400000000000000000000000000000000000060648201526084016105db565b600054610100900460ff1615801561468657600080547fffffffffffffffffffffffffffffffffffffffffffffffffffffffffffff0000166101011790555b61387733614269565b803561469a81614bb5565b919050565b803561469a81614bd7565b6000602082840312156146bb578081fd5b8135613af181614bb5565b6000602082840312156146d7578081fd5b8151613af181614bb5565b600080600080600080600060e0888a0312156146fc578283fd5b873561470781614bb5565b9650602088013561471781614bb5565b9550604088013561472781614bb5565b9450606088013561473781614bb5565b9350608088013561474781614bb5565b925060a088013561475781614bb5565b915060c088013561476781614bb5565b8091505092959891949750929550565b60008060006060848603121561478b578283fd5b833561479681614bb5565b925060208401356147a681614bb5565b929592945050506040919091013590565b600080604083850312156147c9578182fd5b82356147d481614bb5565b915060208301356147e481614bd7565b809150509250929050565b60008060408385031215614801578182fd5b823567ffffffffffffffff80821115614818578384fd5b818501915085601f83011261482b578384fd5b813560208282111561483f5761483f614b86565b8160051b6040517fffffffffffffffffffffffffffffffffffffffffffffffffffffffffffffffe0603f8301168101818110868211171561488257614882614b86565b604052838152828101945085830182870184018b10156148a0578889fd5b8896505b848710156148c9576148b58161468f565b8652600196909601959483019483016148a4565b5096506148d9905087820161469f565b9450505050509250929050565b6000602082840312156148f7578081fd5b8151613af181614bd7565b600080600060608486031215614916578283fd5b833561492181614bd7565b925060208401356147a681614bd7565b60008060408385031215614943578182fd5b823561494e81614bb5565b946020939093013593505050565b60006020828403121561496d578081fd5b5051919050565b600060208284031215614985578081fd5b5035919050565b6000806040838503121561499e578182fd5b8235915060208301356147e481614bd7565b600080604083850312156149c2578182fd5b505080516020909101519092909150565b60e0810161228b828473ffffffffffffffffffffffffffffffffffffffff80825116835280602083015116602084015262ffffff60408301511660408401528060608301511660608401526080820151608084015260a082015160a08401528060c08301511660c0840152505050565b60008219821115614a5657614a56614b57565b500190565b600082614a8f577f4e487b710000000000000000000000000000000000000000000000000000000081526012600452602481fd5b500490565b6000817fffffffffffffffffffffffffffffffffffffffffffffffffffffffffffffffff0483118215151615614acc57614acc614b57565b500290565b600082821015614ae357614ae3614b57565b500390565b60007fffffffffffffffffffffffffffffffffffffffffffffffffffffffffffffffff821415614b1a57614b1a614b57565b5060010190565b60007f8000000000000000000000000000000000000000000000000000000000000000821415614b5357614b53614b57565b0390565b7f4e487b7100000000000000000000000000000000000000000000000000000000600052601160045260246000fd5b7f4e487b7100000000000000000000000000000000000000000000000000000000600052604160045260246000fd5b73ffffffffffffffffffffffffffffffffffffffff8116811461189057600080fd5b801515811461189057600080fdfea26469706673582212203fcf32536291ca63015e46ef3a86fd0130b4d12395cf1778aa76e871c7d7b19264736f6c63430008040033",
  "linkReferences": {},
  "deployedLinkReferences": {}
}