{
  "_format": "hh-sol-artifact-1",
  "contractName": "StrategyStorage",
  "sourceName": "contracts/strategy/StrategyStorage.sol",
  "abi": [
    {
      "anonymous": false,
      "inputs": [
        {
          "indexed": true,
          "internalType": "address",
          "name": "previousOwner",
          "type": "address"
        },
        {
          "indexed": true,
          "internalType": "address",
          "name": "newOwner",
          "type": "address"
        }
      ],
      "name": "OwnershipTransferred",
      "type": "event"
    },
    {
      "inputs": [
        {
          "internalType": "contract IERC20",
          "name": "token",
          "type": "address"
        },
        {
          "internalType": "uint256",
          "name": "amount",
          "type": "uint256"
        }
      ],
      "name": "approveTokenForUni",
      "outputs": [],
      "stateMutability": "nonpayable",
      "type": "function"
    },
    {
      "inputs": [
        {
          "internalType": "contract IERC20",
          "name": "_token",
          "type": "address"
        }
      ],
      "name": "emergencyWithdraw",
      "outputs": [],
      "stateMutability": "nonpayable",
      "type": "function"
    },
    {
      "inputs": [],
      "name": "escrowServer",
      "outputs": [
        {
          "internalType": "address",
          "name": "",
          "type": "address"
        }
      ],
      "stateMutability": "view",
      "type": "function"
    },
    {
      "inputs": [],
      "name": "owner",
      "outputs": [
        {
          "internalType": "address",
          "name": "",
          "type": "address"
        }
      ],
      "stateMutability": "view",
      "type": "function"
    },
    {
      "inputs": [],
      "name": "renounceOwnership",
      "outputs": [],
      "stateMutability": "nonpayable",
      "type": "function"
    },
    {
      "inputs": [
        {
          "internalType": "address",
          "name": "_newEscrow",
          "type": "address"
        }
      ],
      "name": "setEscrow",
      "outputs": [],
      "stateMutability": "nonpayable",
      "type": "function"
    },
    {
      "inputs": [
        {
          "internalType": "address",
          "name": "_newTriggerServer",
          "type": "address"
        }
      ],
      "name": "setTriggerServer",
      "outputs": [],
      "stateMutability": "nonpayable",
      "type": "function"
    },
    {
      "inputs": [
        {
          "internalType": "address",
          "name": "newVToken",
          "type": "address"
        }
      ],
      "name": "setVToken",
      "outputs": [],
      "stateMutability": "nonpayable",
      "type": "function"
    },
    {
      "inputs": [
        {
          "internalType": "address",
          "name": "newOwner",
          "type": "address"
        }
      ],
      "name": "transferOwnership",
      "outputs": [],
      "stateMutability": "nonpayable",
      "type": "function"
    },
    {
      "inputs": [],
      "name": "triggerServer",
      "outputs": [
        {
          "internalType": "address",
          "name": "",
          "type": "address"
        }
      ],
      "stateMutability": "view",
      "type": "function"
    }
  ],
  "bytecode": "0x608060405234801561001057600080fd5b50610c12806100206000396000f3fe608060405234801561001057600080fd5b50600436106100be5760003560e01c8063878e710211610076578063c10c35461161005b578063c10c354614610180578063f2fde38b14610193578063fd241f99146101a657600080fd5b8063878e71021461014f5780638da5cb5b1461016257600080fd5b80636ff1c9bc116100a75780636ff1c9bc14610121578063715018a6146101345780637e5fc1fc1461013c57600080fd5b80631a06c975146100c35780635d4b671c1461010c575b600080fd5b606c546100e39073ffffffffffffffffffffffffffffffffffffffff1681565b60405173ffffffffffffffffffffffffffffffffffffffff909116815260200160405180910390f35b61011f61011a366004610b77565b6101c6565b005b61011f61012f366004610b34565b6102fd565b61011f6105b5565b61011f61014a366004610b34565b610642565b61011f61015d366004610b34565b61070a565b60335473ffffffffffffffffffffffffffffffffffffffff166100e3565b61011f61018e366004610b34565b61084f565b61011f6101a1366004610b34565b610994565b606d546100e39073ffffffffffffffffffffffffffffffffffffffff1681565b60335473ffffffffffffffffffffffffffffffffffffffff16331461024c576040517f08c379a000000000000000000000000000000000000000000000000000000000815260206004820181905260248201527f4f776e61626c653a2063616c6c6572206973206e6f7420746865206f776e657260448201526064015b60405180910390fd5b6067546040517f095ea7b300000000000000000000000000000000000000000000000000000000815273ffffffffffffffffffffffffffffffffffffffff9182166004820152602481018390529083169063095ea7b390604401602060405180830381600087803b1580156102c057600080fd5b505af11580156102d4573d6000803e3d6000fd5b505050506040513d601f19601f820116820180604052508101906102f89190610b57565b505050565b60335473ffffffffffffffffffffffffffffffffffffffff16331461037e576040517f08c379a000000000000000000000000000000000000000000000000000000000815260206004820181905260248201527f4f776e61626c653a2063616c6c6572206973206e6f7420746865206f776e65726044820152606401610243565b606c5473ffffffffffffffffffffffffffffffffffffffff166103fd576040517f08c379a000000000000000000000000000000000000000000000000000000000815260206004820152601d60248201527f537472617465677953746f726167653a207a65726f20616464726573730000006044820152606401610243565b606c546040517f70a0823100000000000000000000000000000000000000000000000000000000815230600482015273ffffffffffffffffffffffffffffffffffffffff8381169263a9059cbb9291169083906370a082319060240160206040518083038186803b15801561047157600080fd5b505afa158015610485573d6000803e3d6000fd5b505050506040513d601f19601f820116820180604052508101906104a99190610ba2565b6040517fffffffff0000000000000000000000000000000000000000000000000000000060e085901b16815273ffffffffffffffffffffffffffffffffffffffff90921660048301526024820152604401602060405180830381600087803b15801561051457600080fd5b505af1158015610528573d6000803e3d6000fd5b505050506040513d601f19601f8201168201806040525081019061054c9190610b57565b6105b2576040517f08c379a000000000000000000000000000000000000000000000000000000000815260206004820152601a60248201527f444e503a204552433230207472616e73666572206661696c65640000000000006044820152606401610243565b50565b60335473ffffffffffffffffffffffffffffffffffffffff163314610636576040517f08c379a000000000000000000000000000000000000000000000000000000000815260206004820181905260248201527f4f776e61626c653a2063616c6c6572206973206e6f7420746865206f776e65726044820152606401610243565b6106406000610abd565b565b60335473ffffffffffffffffffffffffffffffffffffffff1633146106c3576040517f08c379a000000000000000000000000000000000000000000000000000000000815260206004820181905260248201527f4f776e61626c653a2063616c6c6572206973206e6f7420746865206f776e65726044820152606401610243565b606b80547fffffffffffffffffffffffff00000000000000000000000000000000000000001673ffffffffffffffffffffffffffffffffffffffff92909216919091179055565b60335473ffffffffffffffffffffffffffffffffffffffff16331461078b576040517f08c379a000000000000000000000000000000000000000000000000000000000815260206004820181905260248201527f4f776e61626c653a2063616c6c6572206973206e6f7420746865206f776e65726044820152606401610243565b73ffffffffffffffffffffffffffffffffffffffff8116610808576040517f08c379a000000000000000000000000000000000000000000000000000000000815260206004820152601d60248201527f537472617465677953746f726167653a207a65726f20616464726573730000006044820152606401610243565b606d80547fffffffffffffffffffffffff00000000000000000000000000000000000000001673ffffffffffffffffffffffffffffffffffffffff92909216919091179055565b60335473ffffffffffffffffffffffffffffffffffffffff1633146108d0576040517f08c379a000000000000000000000000000000000000000000000000000000000815260206004820181905260248201527f4f776e61626c653a2063616c6c6572206973206e6f7420746865206f776e65726044820152606401610243565b73ffffffffffffffffffffffffffffffffffffffff811661094d576040517f08c379a000000000000000000000000000000000000000000000000000000000815260206004820152601d60248201527f537472617465677953746f726167653a207a65726f20616464726573730000006044820152606401610243565b606c80547fffffffffffffffffffffffff00000000000000000000000000000000000000001673ffffffffffffffffffffffffffffffffffffffff92909216919091179055565b60335473ffffffffffffffffffffffffffffffffffffffff163314610a15576040517f08c379a000000000000000000000000000000000000000000000000000000000815260206004820181905260248201527f4f776e61626c653a2063616c6c6572206973206e6f7420746865206f776e65726044820152606401610243565b73ffffffffffffffffffffffffffffffffffffffff8116610ab8576040517f08c379a000000000000000000000000000000000000000000000000000000000815260206004820152602660248201527f4f776e61626c653a206e6577206f776e657220697320746865207a65726f206160448201527f64647265737300000000000000000000000000000000000000000000000000006064820152608401610243565b6105b2815b6033805473ffffffffffffffffffffffffffffffffffffffff8381167fffffffffffffffffffffffff0000000000000000000000000000000000000000831681179093556040519116919082907f8be0079c531659141344cd1fd0a4f28419497f9722a3daafe3b4186f6b6457e090600090a35050565b600060208284031215610b45578081fd5b8135610b5081610bba565b9392505050565b600060208284031215610b68578081fd5b81518015158114610b50578182fd5b60008060408385031215610b89578081fd5b8235610b9481610bba565b946020939093013593505050565b600060208284031215610bb3578081fd5b5051919050565b73ffffffffffffffffffffffffffffffffffffffff811681146105b257600080fdfea264697066735822122090a3dad654eda1e578f90b70dc1799d6fcc9b34d83bbad5a03dac29bf68c30cf64736f6c63430008040033",
  "linkReferences": {},
  "deployedLinkReferences": {}
}