{
  "_format": "hh-sol-artifact-1",
  "contractName": "UniswapETHSwapperMock",
  "sourceName": "contracts/mocks/UniswapETHSwapperMock.sol",
  "abi": [
    {
      "anonymous": false,
      "inputs": [
        {
          "indexed": true,
          "internalType": "address",
          "name": "previousOwner",
          "type": "address"
        },
        {
          "indexed": true,
          "internalType": "address",
          "name": "newOwner",
          "type": "address"
        }
      ],
      "name": "OwnershipTransferred",
      "type": "event"
    },
    {
      "anonymous": false,
      "inputs": [
        {
          "indexed": false,
          "internalType": "uint256",
          "name": "baseAmount",
          "type": "uint256"
        },
        {
          "indexed": false,
          "internalType": "uint256",
          "name": "quoteAmount",
          "type": "uint256"
        },
        {
          "indexed": false,
          "internalType": "uint256",
          "name": "price",
          "type": "uint256"
        },
        {
          "indexed": false,
          "internalType": "bool",
          "name": "isBuy",
          "type": "bool"
        }
      ],
      "name": "SwapSuccess",
      "type": "event"
    },
    {
      "inputs": [],
      "name": "currentPrice",
      "outputs": [
        {
          "internalType": "uint256",
          "name": "",
          "type": "uint256"
        }
      ],
      "stateMutability": "view",
      "type": "function"
    },
    {
      "inputs": [],
      "name": "deposit",
      "outputs": [],
      "stateMutability": "payable",
      "type": "function"
    },
    {
      "inputs": [
        {
          "components": [
            {
              "internalType": "bytes",
              "name": "path",
              "type": "bytes"
            },
            {
              "internalType": "address",
              "name": "recipient",
              "type": "address"
            },
            {
              "internalType": "uint256",
              "name": "amountIn",
              "type": "uint256"
            },
            {
              "internalType": "uint256",
              "name": "amountOutMinimum",
              "type": "uint256"
            }
          ],
          "internalType": "struct IV3SwapRouter.ExactInputParams",
          "name": "params",
          "type": "tuple"
        }
      ],
      "name": "exactInput",
      "outputs": [
        {
          "internalType": "uint256",
          "name": "amountOut",
          "type": "uint256"
        }
      ],
      "stateMutability": "payable",
      "type": "function"
    },
    {
      "inputs": [
        {
          "components": [
            {
              "internalType": "address",
              "name": "tokenIn",
              "type": "address"
            },
            {
              "internalType": "address",
              "name": "tokenOut",
              "type": "address"
            },
            {
              "internalType": "uint24",
              "name": "fee",
              "type": "uint24"
            },
            {
              "internalType": "address",
              "name": "recipient",
              "type": "address"
            },
            {
              "internalType": "uint256",
              "name": "amountIn",
              "type": "uint256"
            },
            {
              "internalType": "uint256",
              "name": "amountOutMinimum",
              "type": "uint256"
            },
            {
              "internalType": "uint160",
              "name": "sqrtPriceLimitX96",
              "type": "uint160"
            }
          ],
          "internalType": "struct IV3SwapRouter.ExactInputSingleParams",
          "name": "params",
          "type": "tuple"
        }
      ],
      "name": "exactInputSingle",
      "outputs": [
        {
          "internalType": "uint256",
          "name": "amountOut",
          "type": "uint256"
        }
      ],
      "stateMutability": "payable",
      "type": "function"
    },
    {
      "inputs": [
        {
          "components": [
            {
              "internalType": "bytes",
              "name": "path",
              "type": "bytes"
            },
            {
              "internalType": "address",
              "name": "recipient",
              "type": "address"
            },
            {
              "internalType": "uint256",
              "name": "amountOut",
              "type": "uint256"
            },
            {
              "internalType": "uint256",
              "name": "amountInMaximum",
              "type": "uint256"
            }
          ],
          "internalType": "struct IV3SwapRouter.ExactOutputParams",
          "name": "params",
          "type": "tuple"
        }
      ],
      "name": "exactOutput",
      "outputs": [
        {
          "internalType": "uint256",
          "name": "amountIn",
          "type": "uint256"
        }
      ],
      "stateMutability": "payable",
      "type": "function"
    },
    {
      "inputs": [
        {
          "components": [
            {
              "internalType": "address",
              "name": "tokenIn",
              "type": "address"
            },
            {
              "internalType": "address",
              "name": "tokenOut",
              "type": "address"
            },
            {
              "internalType": "uint24",
              "name": "fee",
              "type": "uint24"
            },
            {
              "internalType": "address",
              "name": "recipient",
              "type": "address"
            },
            {
              "internalType": "uint256",
              "name": "amountOut",
              "type": "uint256"
            },
            {
              "internalType": "uint256",
              "name": "amountInMaximum",
              "type": "uint256"
            },
            {
              "internalType": "uint160",
              "name": "sqrtPriceLimitX96",
              "type": "uint160"
            }
          ],
          "internalType": "struct IV3SwapRouter.ExactOutputSingleParams",
          "name": "params",
          "type": "tuple"
        }
      ],
      "name": "exactOutputSingle",
      "outputs": [
        {
          "internalType": "uint256",
          "name": "amountIn",
          "type": "uint256"
        }
      ],
      "stateMutability": "payable",
      "type": "function"
    },
    {
      "inputs": [
        {
          "internalType": "address",
          "name": "USDC",
          "type": "address"
        },
        {
          "internalType": "address",
          "name": "vETH",
          "type": "address"
        },
        {
          "internalType": "contract wToken",
          "name": "dcETH",
          "type": "address"
        },
        {
          "internalType": "address payable",
          "name": "trigger",
          "type": "address"
        }
      ],
      "name": "initialize",
      "outputs": [],
      "stateMutability": "nonpayable",
      "type": "function"
    },
    {
      "inputs": [],
      "name": "owner",
      "outputs": [
        {
          "internalType": "address",
          "name": "",
          "type": "address"
        }
      ],
      "stateMutability": "view",
      "type": "function"
    },
    {
      "inputs": [],
      "name": "renounceOwnership",
      "outputs": [],
      "stateMutability": "nonpayable",
      "type": "function"
    },
    {
      "inputs": [
        {
          "internalType": "address",
          "name": "newOwner",
          "type": "address"
        }
      ],
      "name": "transferOwnership",
      "outputs": [],
      "stateMutability": "nonpayable",
      "type": "function"
    },
    {
      "inputs": [],
      "name": "withdraw",
      "outputs": [],
      "stateMutability": "nonpayable",
      "type": "function"
    }
  ],
  "bytecode": "0x608060405234801561001057600080fd5b50611f9e806100206000396000f3fe6080604052600436106100bc5760003560e01c80638da5cb5b11610074578063d0e30db01161004e578063d0e30db014610110578063f2fde38b14610184578063f8c8765e146101a457600080fd5b80638da5cb5b1461013a5780639d1b464a1461016f578063b858183f146100e757600080fd5b80633ccfd60b116100a55780633ccfd60b146100fb5780635023b4df14610112578063715018a61461012557600080fd5b806304e45aaf146100c157806309b81346146100e7575b600080fd5b6100d46100cf366004611dff565b6101c4565b6040519081526020015b60405180910390f35b6100d46100f5366004611dc4565b50600090565b34801561010757600080fd5b50610110610bfa565b005b6100d4610120366004611dff565b610d73565b34801561013157600080fd5b50610110611438565b34801561014657600080fd5b5060335460405173ffffffffffffffffffffffffffffffffffffffff90911681526020016100de565b34801561017b57600080fd5b506100d46114c5565b34801561019057600080fd5b5061011061019f366004611d2d565b61156d565b3480156101b057600080fd5b506101106101bf366004611d49565b61169d565b6097546040517f1208064700000000000000000000000000000000000000000000000000000000815260006004820181905291829173ffffffffffffffffffffffffffffffffffffffff9091169063120806479060240160206040518083038186803b15801561023357600080fd5b505afa158015610247573d6000803e3d6000fd5b505050506040513d601f19601f8201168201806040525081019061026b9190611e1a565b60995490915073ffffffffffffffffffffffffffffffffffffffff166102946020850185611d2d565b73ffffffffffffffffffffffffffffffffffffffff1614156107cb5760006102c98460800135670de0b6b3a76400008461171c565b6099546040517f70a0823100000000000000000000000000000000000000000000000000000000815233600482015291925060808601359173ffffffffffffffffffffffffffffffffffffffff909116906370a082319060240160206040518083038186803b15801561033b57600080fd5b505afa15801561034f573d6000803e3d6000fd5b505050506040513d601f19601f820116820180604052508101906103739190611e1a565b1015610406576040517f08c379a000000000000000000000000000000000000000000000000000000000815260206004820152602c60248201527f5b556e69537761705d20436c69656e7420686173206e6f7420656e6f7567682060448201527f5553444320746f2073656c6c000000000000000000000000000000000000000060648201526084015b60405180910390fd5b6099546040517f23b872dd0000000000000000000000000000000000000000000000000000000081523360048201523060248201526080860135604482015273ffffffffffffffffffffffffffffffffffffffff909116906323b872dd90606401602060405180830381600087803b15801561048157600080fd5b505af1158015610495573d6000803e3d6000fd5b505050506040513d601f19601f820116820180604052508101906104b99190611da4565b5060985473ffffffffffffffffffffffffffffffffffffffff166104e36040860160208701611d2d565b73ffffffffffffffffffffffffffffffffffffffff1614156105c45760985473ffffffffffffffffffffffffffffffffffffffff166340c10f1961052d6080870160608801611d2d565b61053c8464e8d4a51000611ec3565b6040517fffffffff0000000000000000000000000000000000000000000000000000000060e085901b16815273ffffffffffffffffffffffffffffffffffffffff90921660048301526024820152604401600060405180830381600087803b1580156105a757600080fd5b505af11580156105bb573d6000803e3d6000fd5b50505050610778565b60006105d66040860160208701611d2d565b73ffffffffffffffffffffffffffffffffffffffff161415610778576106018164e8d4a51000611ec3565b471015610690576040517f08c379a000000000000000000000000000000000000000000000000000000000815260206004820152602f60248201527f5b556e69537761705d204e6f7420656e6f756768206e6174697665206c69717560448201527f6964697479206f6e20726f75746572000000000000000000000000000000000060648201526084016103fd565b6000806106a36080870160608801611d2d565b73ffffffffffffffffffffffffffffffffffffffff166106c88464e8d4a51000611ec3565b604051600081818185875af1925050503d8060008114610704576040519150601f19603f3d011682016040523d82523d6000602084013e610709565b606091505b509150915081610775576040517f08c379a000000000000000000000000000000000000000000000000000000000815260206004820152601460248201527f4661696c656420746f2073656e6420457468657200000000000000000000000060448201526064016103fd565b50505b60408051608080870135825260208201849052918101849052600160608201527fd14708b04f06794c9a8f177c3f696f66f07bb42d7d26f4bcbe621fe83ea9592091015b60405180910390a19392505050565b6098546040517f70a0823100000000000000000000000000000000000000000000000000000000815233600482015260808501359173ffffffffffffffffffffffffffffffffffffffff16906370a082319060240160206040518083038186803b15801561083857600080fd5b505afa15801561084c573d6000803e3d6000fd5b505050506040513d601f19601f820116820180604052508101906108709190611e1a565b10156108fe576040517f08c379a000000000000000000000000000000000000000000000000000000000815260206004820152602d60248201527f5b556e69537761705d20436c69656e7420686173206e6f7420656e6f7567682060448201527f646345544820746f2073656c6c0000000000000000000000000000000000000060648201526084016103fd565b600061091c8285608001356c0c9f2c9cd04674edea4000000061171c565b6099546040517f70a08231000000000000000000000000000000000000000000000000000000008152306004820152919250829173ffffffffffffffffffffffffffffffffffffffff909116906370a082319060240160206040518083038186803b15801561098a57600080fd5b505afa15801561099e573d6000803e3d6000fd5b505050506040513d601f19601f820116820180604052508101906109c29190611e1a565b1015610a4f576040517f08c379a0000000000000000000000000000000000000000000000000000000008152602060048201526024808201527f5b556e69537761705d20526f7574657220686173206e6f7420656e6f7567682060448201527f555344430000000000000000000000000000000000000000000000000000000060648201526084016103fd565b6098546040517f9dc29fac0000000000000000000000000000000000000000000000000000000081523360048201526080860135602482015273ffffffffffffffffffffffffffffffffffffffff90911690639dc29fac90604401600060405180830381600087803b158015610ac457600080fd5b505af1158015610ad8573d6000803e3d6000fd5b505060995473ffffffffffffffffffffffffffffffffffffffff16915063a9059cbb9050610b0c6080870160608801611d2d565b6040517fffffffff0000000000000000000000000000000000000000000000000000000060e084901b16815273ffffffffffffffffffffffffffffffffffffffff909116600482015260248101849052604401602060405180830381600087803b158015610b7957600080fd5b505af1158015610b8d573d6000803e3d6000fd5b505050506040513d601f19601f82011682018060405250810190610bb19190611da4565b5060408051608080870135825260208201849052918101849052600060608201527fd14708b04f06794c9a8f177c3f696f66f07bb42d7d26f4bcbe621fe83ea9592091016107bc565b609a5473ffffffffffffffffffffffffffffffffffffffff163314610ca1576040517f08c379a000000000000000000000000000000000000000000000000000000000815260206004820152602760248201527f4f6e6c792074726967676572207365727665722063616e20776974686472617760448201527f206e61746976650000000000000000000000000000000000000000000000000060648201526084016103fd565b609a54604051479160009173ffffffffffffffffffffffffffffffffffffffff9091169083908381818185875af1925050503d8060008114610cff576040519150601f19603f3d011682016040523d82523d6000602084013e610d04565b606091505b5050905080610d6f576040517f08c379a000000000000000000000000000000000000000000000000000000000815260206004820152601460248201527f4661696c656420746f2073656e6420457468657200000000000000000000000060448201526064016103fd565b5050565b604080518082018252601281527f555344432062616c616e63652069732025730000000000000000000000000000602082015260995491517f70a08231000000000000000000000000000000000000000000000000000000008152306004820152600092610e53929173ffffffffffffffffffffffffffffffffffffffff909116906370a082319060240160206040518083038186803b158015610e1657600080fd5b505afa158015610e2a573d6000803e3d6000fd5b505050506040513d601f19601f82011682018060405250810190610e4e9190611e1a565b6118b6565b60985473ffffffffffffffffffffffffffffffffffffffff16610e796020840184611d2d565b73ffffffffffffffffffffffffffffffffffffffff16148015610ed8575060995473ffffffffffffffffffffffffffffffffffffffff16610ec06040840160208501611d2d565b73ffffffffffffffffffffffffffffffffffffffff16145b610f64576040517f08c379a000000000000000000000000000000000000000000000000000000000815260206004820152602960248201527f556e694d6f636b3a204f6e6c792073656c6c696e67206f66204554482069732060448201527f737570706f72746564000000000000000000000000000000000000000000000060648201526084016103fd565b6099546040517f70a0823100000000000000000000000000000000000000000000000000000000815230600482015260808401359173ffffffffffffffffffffffffffffffffffffffff16906370a082319060240160206040518083038186803b158015610fd157600080fd5b505afa158015610fe5573d6000803e3d6000fd5b505050506040513d601f19601f820116820180604052508101906110099190611e1a565b1015611097576040517f08c379a000000000000000000000000000000000000000000000000000000000815260206004820152602360248201527f5b556e69537761705d204e6f7420656e6f7567682055534443206f6e20726f7560448201527f746572000000000000000000000000000000000000000000000000000000000060648201526084016103fd565b6097546040517f120806470000000000000000000000000000000000000000000000000000000081526000600482018190529173ffffffffffffffffffffffffffffffffffffffff169063120806479060240160206040518083038186803b15801561110257600080fd5b505afa158015611116573d6000803e3d6000fd5b505050506040513d601f19601f8201168201806040525081019061113a9190611e1a565b9050600061115a6c0c9f2c9cd04674edea4000000085608001358461171c565b6098546040517f70a08231000000000000000000000000000000000000000000000000000000008152336004820152919250829173ffffffffffffffffffffffffffffffffffffffff909116906370a082319060240160206040518083038186803b1580156111c857600080fd5b505afa1580156111dc573d6000803e3d6000fd5b505050506040513d601f19601f820116820180604052508101906112009190611e1a565b101561128e576040517f08c379a000000000000000000000000000000000000000000000000000000000815260206004820152602d60248201527f5b556e69537761705d20436c69656e7420686173206e6f7420656e6f7567682060448201527f646345544820746f2073656c6c0000000000000000000000000000000000000060648201526084016103fd565b6098546040517f9dc29fac0000000000000000000000000000000000000000000000000000000081523360048201526024810183905273ffffffffffffffffffffffffffffffffffffffff90911690639dc29fac90604401600060405180830381600087803b15801561130057600080fd5b505af1158015611314573d6000803e3d6000fd5b505060995473ffffffffffffffffffffffffffffffffffffffff16915063a9059cbb90506113486080870160608801611d2d565b6040517fffffffff0000000000000000000000000000000000000000000000000000000060e084901b16815273ffffffffffffffffffffffffffffffffffffffff909116600482015260808701356024820152604401602060405180830381600087803b1580156113b857600080fd5b505af11580156113cc573d6000803e3d6000fd5b505050506040513d601f19601f820116820180604052508101906113f09190611da4565b50604080518281526080808701356020830152918101849052600060608201527fd14708b04f06794c9a8f177c3f696f66f07bb42d7d26f4bcbe621fe83ea9592091016107bc565b60335473ffffffffffffffffffffffffffffffffffffffff1633146114b9576040517f08c379a000000000000000000000000000000000000000000000000000000000815260206004820181905260248201527f4f776e61626c653a2063616c6c6572206973206e6f7420746865206f776e657260448201526064016103fd565b6114c36000611947565b565b6097546040517f120806470000000000000000000000000000000000000000000000000000000081526000600482018190529173ffffffffffffffffffffffffffffffffffffffff169063120806479060240160206040518083038186803b15801561153057600080fd5b505afa158015611544573d6000803e3d6000fd5b505050506040513d601f19601f820116820180604052508101906115689190611e1a565b905090565b60335473ffffffffffffffffffffffffffffffffffffffff1633146115ee576040517f08c379a000000000000000000000000000000000000000000000000000000000815260206004820181905260248201527f4f776e61626c653a2063616c6c6572206973206e6f7420746865206f776e657260448201526064016103fd565b73ffffffffffffffffffffffffffffffffffffffff8116611691576040517f08c379a000000000000000000000000000000000000000000000000000000000815260206004820152602660248201527f4f776e61626c653a206e6577206f776e657220697320746865207a65726f206160448201527f646472657373000000000000000000000000000000000000000000000000000060648201526084016103fd565b61169a81611947565b50565b6116a56119be565b609780547fffffffffffffffffffffffff000000000000000000000000000000000000000090811673ffffffffffffffffffffffffffffffffffffffff958616179091556098805482169385169390931790925560998054831694841694909417909355609a805490911692909116919091179055565b600080807fffffffffffffffffffffffffffffffffffffffffffffffffffffffffffffffff8587098587029250828110838203039150508060001415611774576000841161176957600080fd5b5082900490506118af565b80841161178057600080fd5b60008486880980840393811190920391905060006117a086196001611eab565b86169586900495938490049360008190030460010190506117c18184611ec3565b9093179260006117d2876003611ec3565b60021890506117e18188611ec3565b6117ec906002611f00565b6117f69082611ec3565b90506118028188611ec3565b61180d906002611f00565b6118179082611ec3565b90506118238188611ec3565b61182e906002611f00565b6118389082611ec3565b90506118448188611ec3565b61184f906002611f00565b6118599082611ec3565b90506118658188611ec3565b611870906002611f00565b61187a9082611ec3565b90506118868188611ec3565b611891906002611f00565b61189b9082611ec3565b90506118a78186611ec3565b955050505050505b9392505050565b610d6f82826040516024016118cc929190611e32565b604080517fffffffffffffffffffffffffffffffffffffffffffffffffffffffffffffffe08184030181529190526020810180517bffffffffffffffffffffffffffffffffffffffffffffffffffffffff167f9710a9d000000000000000000000000000000000000000000000000000000000179052611ae3565b6033805473ffffffffffffffffffffffffffffffffffffffff8381167fffffffffffffffffffffffff0000000000000000000000000000000000000000831681179093556040519116919082907f8be0079c531659141344cd1fd0a4f28419497f9722a3daafe3b4186f6b6457e090600090a35050565b600054610100900460ff16806119d7575060005460ff16155b611a63576040517f08c379a000000000000000000000000000000000000000000000000000000000815260206004820152602e60248201527f496e697469616c697a61626c653a20636f6e747261637420697320616c72656160448201527f647920696e697469616c697a656400000000000000000000000000000000000060648201526084016103fd565b600054610100900460ff16158015611aa257600080547fffffffffffffffffffffffffffffffffffffffffffffffffffffffffffff0000166101011790555b611aaa611b04565b611ab2611c18565b801561169a57600080547fffffffffffffffffffffffffffffffffffffffffffffffffffffffffffff00ff16905550565b80516a636f6e736f6c652e6c6f67602083016000808483855afa5050505050565b600054610100900460ff1680611b1d575060005460ff16155b611ba9576040517f08c379a000000000000000000000000000000000000000000000000000000000815260206004820152602e60248201527f496e697469616c697a61626c653a20636f6e747261637420697320616c72656160448201527f647920696e697469616c697a656400000000000000000000000000000000000060648201526084016103fd565b600054610100900460ff16158015611ab257600080547fffffffffffffffffffffffffffffffffffffffffffffffffffffffffffff000016610101179055801561169a57600080547fffffffffffffffffffffffffffffffffffffffffffffffffffffffffffff00ff16905550565b600054610100900460ff1680611c31575060005460ff16155b611cbd576040517f08c379a000000000000000000000000000000000000000000000000000000000815260206004820152602e60248201527f496e697469616c697a61626c653a20636f6e747261637420697320616c72656160448201527f647920696e697469616c697a656400000000000000000000000000000000000060648201526084016103fd565b600054610100900460ff16158015611cfc57600080547fffffffffffffffffffffffffffffffffffffffffffffffffffffffffffff0000166101011790555b611ab233611947565b600060808284031215611d16578081fd5b50919050565b600060e08284031215611d16578081fd5b600060208284031215611d3e578081fd5b81356118af81611f46565b60008060008060808587031215611d5e578283fd5b8435611d6981611f46565b93506020850135611d7981611f46565b92506040850135611d8981611f46565b91506060850135611d9981611f46565b939692955090935050565b600060208284031215611db5578081fd5b815180151581146118af578182fd5b600060208284031215611dd5578081fd5b813567ffffffffffffffff811115611deb578182fd5b611df784828501611d05565b949350505050565b600060e08284031215611e10578081fd5b6118af8383611d1c565b600060208284031215611e2b578081fd5b5051919050565b6040815260008351806040840152815b81811015611e5f5760208187018101516060868401015201611e42565b81811115611e705782606083860101525b50602083019390935250601f919091017fffffffffffffffffffffffffffffffffffffffffffffffffffffffffffffffe01601606001919050565b60008219821115611ebe57611ebe611f17565b500190565b6000817fffffffffffffffffffffffffffffffffffffffffffffffffffffffffffffffff0483118215151615611efb57611efb611f17565b500290565b600082821015611f1257611f12611f17565b500390565b7f4e487b7100000000000000000000000000000000000000000000000000000000600052601160045260246000fd5b73ffffffffffffffffffffffffffffffffffffffff8116811461169a57600080fdfea2646970667358221220a59d4483fc605238afb85a168fc54aa687cb436cc555e4509313b9e6904776ba64736f6c63430008040033",
  "linkReferences": {},
  "deployedLinkReferences": {}
}