{
  "_format": "hh-sol-artifact-1",
  "contractName": "wToken",
  "sourceName": "contracts/mocks/wToken.sol",
  "abi": [
    {
      "inputs": [
        {
          "internalType": "string",
          "name": "_name",
          "type": "string"
        },
        {
          "internalType": "string",
          "name": "_symbol",
          "type": "string"
        }
      ],
      "stateMutability": "nonpayable",
      "type": "constructor"
    },
    {
      "anonymous": false,
      "inputs": [
        {
          "indexed": true,
          "internalType": "address",
          "name": "owner",
          "type": "address"
        },
        {
          "indexed": true,
          "internalType": "address",
          "name": "spender",
          "type": "address"
        },
        {
          "indexed": false,
          "internalType": "uint256",
          "name": "value",
          "type": "uint256"
        }
      ],
      "name": "Approval",
      "type": "event"
    },
    {
      "anonymous": false,
      "inputs": [
        {
          "indexed": true,
          "internalType": "address",
          "name": "previousOwner",
          "type": "address"
        },
        {
          "indexed": true,
          "internalType": "address",
          "name": "newOwner",
          "type": "address"
        }
      ],
      "name": "OwnershipTransferred",
      "type": "event"
    },
    {
      "anonymous": false,
      "inputs": [
        {
          "indexed": true,
          "internalType": "address",
          "name": "from",
          "type": "address"
        },
        {
          "indexed": true,
          "internalType": "address",
          "name": "to",
          "type": "address"
        },
        {
          "indexed": false,
          "internalType": "uint256",
          "name": "value",
          "type": "uint256"
        }
      ],
      "name": "Transfer",
      "type": "event"
    },
    {
      "inputs": [
        {
          "internalType": "address",
          "name": "owner",
          "type": "address"
        },
        {
          "internalType": "address",
          "name": "spender",
          "type": "address"
        }
      ],
      "name": "allowance",
      "outputs": [
        {
          "internalType": "uint256",
          "name": "",
          "type": "uint256"
        }
      ],
      "stateMutability": "view",
      "type": "function"
    },
    {
      "inputs": [
        {
          "internalType": "address",
          "name": "spender",
          "type": "address"
        },
        {
          "internalType": "uint256",
          "name": "amount",
          "type": "uint256"
        }
      ],
      "name": "approve",
      "outputs": [
        {
          "internalType": "bool",
          "name": "",
          "type": "bool"
        }
      ],
      "stateMutability": "nonpayable",
      "type": "function"
    },
    {
      "inputs": [
        {
          "internalType": "address",
          "name": "account",
          "type": "address"
        }
      ],
      "name": "balanceOf",
      "outputs": [
        {
          "internalType": "uint256",
          "name": "",
          "type": "uint256"
        }
      ],
      "stateMutability": "view",
      "type": "function"
    },
    {
      "inputs": [
        {
          "internalType": "address",
          "name": "account",
          "type": "address"
        },
        {
          "internalType": "uint256",
          "name": "amount",
          "type": "uint256"
        }
      ],
      "name": "burn",
      "outputs": [],
      "stateMutability": "nonpayable",
      "type": "function"
    },
    {
      "inputs": [],
      "name": "decimals",
      "outputs": [
        {
          "internalType": "uint8",
          "name": "",
          "type": "uint8"
        }
      ],
      "stateMutability": "view",
      "type": "function"
    },
    {
      "inputs": [
        {
          "internalType": "address",
          "name": "spender",
          "type": "address"
        },
        {
          "internalType": "uint256",
          "name": "subtractedValue",
          "type": "uint256"
        }
      ],
      "name": "decreaseAllowance",
      "outputs": [
        {
          "internalType": "bool",
          "name": "",
          "type": "bool"
        }
      ],
      "stateMutability": "nonpayable",
      "type": "function"
    },
    {
      "inputs": [
        {
          "internalType": "address",
          "name": "spender",
          "type": "address"
        },
        {
          "internalType": "uint256",
          "name": "addedValue",
          "type": "uint256"
        }
      ],
      "name": "increaseAllowance",
      "outputs": [
        {
          "internalType": "bool",
          "name": "",
          "type": "bool"
        }
      ],
      "stateMutability": "nonpayable",
      "type": "function"
    },
    {
      "inputs": [
        {
          "internalType": "address",
          "name": "account",
          "type": "address"
        },
        {
          "internalType": "uint256",
          "name": "amount",
          "type": "uint256"
        }
      ],
      "name": "mint",
      "outputs": [],
      "stateMutability": "nonpayable",
      "type": "function"
    },
    {
      "inputs": [],
      "name": "name",
      "outputs": [
        {
          "internalType": "string",
          "name": "",
          "type": "string"
        }
      ],
      "stateMutability": "view",
      "type": "function"
    },
    {
      "inputs": [],
      "name": "owner",
      "outputs": [
        {
          "internalType": "address",
          "name": "",
          "type": "address"
        }
      ],
      "stateMutability": "view",
      "type": "function"
    },
    {
      "inputs": [],
      "name": "renounceOwnership",
      "outputs": [],
      "stateMutability": "nonpayable",
      "type": "function"
    },
    {
      "inputs": [],
      "name": "router",
      "outputs": [
        {
          "internalType": "address",
          "name": "",
          "type": "address"
        }
      ],
      "stateMutability": "view",
      "type": "function"
    },
    {
      "inputs": [
        {
          "internalType": "address",
          "name": "newRouter",
          "type": "address"
        }
      ],
      "name": "setRouter",
      "outputs": [],
      "stateMutability": "nonpayable",
      "type": "function"
    },
    {
      "inputs": [],
      "name": "symbol",
      "outputs": [
        {
          "internalType": "string",
          "name": "",
          "type": "string"
        }
      ],
      "stateMutability": "view",
      "type": "function"
    },
    {
      "inputs": [],
      "name": "totalSupply",
      "outputs": [
        {
          "internalType": "uint256",
          "name": "",
          "type": "uint256"
        }
      ],
      "stateMutability": "view",
      "type": "function"
    },
    {
      "inputs": [
        {
          "internalType": "address",
          "name": "recipient",
          "type": "address"
        },
        {
          "internalType": "uint256",
          "name": "amount",
          "type": "uint256"
        }
      ],
      "name": "transfer",
      "outputs": [
        {
          "internalType": "bool",
          "name": "",
          "type": "bool"
        }
      ],
      "stateMutability": "nonpayable",
      "type": "function"
    },
    {
      "inputs": [
        {
          "internalType": "address",
          "name": "sender",
          "type": "address"
        },
        {
          "internalType": "address",
          "name": "recipient",
          "type": "address"
        },
        {
          "internalType": "uint256",
          "name": "amount",
          "type": "uint256"
        }
      ],
      "name": "transferFrom",
      "outputs": [
        {
          "internalType": "bool",
          "name": "",
          "type": "bool"
        }
      ],
      "stateMutability": "nonpayable",
      "type": "function"
    },
    {
      "inputs": [
        {
          "internalType": "address",
          "name": "newOwner",
          "type": "address"
        }
      ],
      "name": "transferOwnership",
      "outputs": [],
      "stateMutability": "nonpayable",
      "type": "function"
    }
  ],
  "bytecode": "0x60806040523480156200001157600080fd5b50604051620016f9380380620016f9833981016040819052620000349162000237565b8151829082906200004d906003906020850190620000de565b50805162000063906004906020840190620000de565b505050620000806200007a6200008860201b60201c565b6200008c565b5050620002f1565b3390565b600580546001600160a01b038381166001600160a01b0319831681179093556040519116919082907f8be0079c531659141344cd1fd0a4f28419497f9722a3daafe3b4186f6b6457e090600090a35050565b828054620000ec906200029e565b90600052602060002090601f0160209004810192826200011057600085556200015b565b82601f106200012b57805160ff19168380011785556200015b565b828001600101855582156200015b579182015b828111156200015b5782518255916020019190600101906200013e565b50620001699291506200016d565b5090565b5b808211156200016957600081556001016200016e565b600082601f83011262000195578081fd5b81516001600160401b0380821115620001b257620001b2620002db565b604051601f8301601f19908116603f01168101908282118183101715620001dd57620001dd620002db565b81604052838152602092508683858801011115620001f9578485fd5b8491505b838210156200021c5785820183015181830184015290820190620001fd565b838211156200022d57848385830101525b9695505050505050565b600080604083850312156200024a578182fd5b82516001600160401b038082111562000261578384fd5b6200026f8683870162000184565b9350602085015191508082111562000285578283fd5b50620002948582860162000184565b9150509250929050565b600181811c90821680620002b357607f821691505b60208210811415620002d557634e487b7160e01b600052602260045260246000fd5b50919050565b634e487b7160e01b600052604160045260246000fd5b6113f880620003016000396000f3fe608060405234801561001057600080fd5b50600436106101365760003560e01c80638da5cb5b116100b2578063a9059cbb11610081578063dd62ed3e11610066578063dd62ed3e146102a9578063f2fde38b146102ef578063f887ea401461030257600080fd5b8063a9059cbb14610283578063c0d786551461029657600080fd5b80638da5cb5b1461021657806395d89b41146102555780639dc29fac1461025d578063a457c2d71461027057600080fd5b8063313ce5671161010957806340c10f19116100ee57806340c10f19146101c357806370a08231146101d8578063715018a61461020e57600080fd5b8063313ce567146101a157806339509351146101b057600080fd5b806306fdde031461013b578063095ea7b31461015957806318160ddd1461017c57806323b872dd1461018e575b600080fd5b610143610320565b604051610150919061129f565b60405180910390f35b61016c610167366004611276565b6103b2565b6040519015158152602001610150565b6002545b604051908152602001610150565b61016c61019c36600461123b565b6103c8565b60405160128152602001610150565b61016c6101be366004611276565b6104b3565b6101d66101d1366004611276565b6104fc565b005b6101806101e63660046111e8565b73ffffffffffffffffffffffffffffffffffffffff1660009081526020819052604090205490565b6101d66105b1565b60055473ffffffffffffffffffffffffffffffffffffffff165b60405173ffffffffffffffffffffffffffffffffffffffff9091168152602001610150565b61014361063e565b6101d661026b366004611276565b61064d565b61016c61027e366004611276565b6106fe565b61016c610291366004611276565b6107d6565b6101d66102a43660046111e8565b6107e3565b6101806102b7366004611209565b73ffffffffffffffffffffffffffffffffffffffff918216600090815260016020908152604080832093909416825291909152205490565b6101d66102fd3660046111e8565b6108ab565b60065473ffffffffffffffffffffffffffffffffffffffff16610230565b60606003805461032f9061133f565b80601f016020809104026020016040519081016040528092919081815260200182805461035b9061133f565b80156103a85780601f1061037d576101008083540402835291602001916103a8565b820191906000526020600020905b81548152906001019060200180831161038b57829003601f168201915b5050505050905090565b60006103bf3384846109db565b50600192915050565b60006103d5848484610b8f565b73ffffffffffffffffffffffffffffffffffffffff841660009081526001602090815260408083203384529091529020548281101561049b576040517f08c379a000000000000000000000000000000000000000000000000000000000815260206004820152602860248201527f45524332303a207472616e7366657220616d6f756e742065786365656473206160448201527f6c6c6f77616e636500000000000000000000000000000000000000000000000060648201526084015b60405180910390fd5b6104a885338584036109db565b506001949350505050565b33600081815260016020908152604080832073ffffffffffffffffffffffffffffffffffffffff8716845290915281205490916103bf9185906104f7908690611310565b6109db565b60065473ffffffffffffffffffffffffffffffffffffffff1633146105a3576040517f08c379a000000000000000000000000000000000000000000000000000000000815260206004820152602160248201527f4f776e61626c653a2063616c6c6572206973206e6f742074686520726f75746560448201527f72000000000000000000000000000000000000000000000000000000000000006064820152608401610492565b6105ad8282610e43565b5050565b60055473ffffffffffffffffffffffffffffffffffffffff163314610632576040517f08c379a000000000000000000000000000000000000000000000000000000000815260206004820181905260248201527f4f776e61626c653a2063616c6c6572206973206e6f7420746865206f776e65726044820152606401610492565b61063c6000610f63565b565b60606004805461032f9061133f565b60065473ffffffffffffffffffffffffffffffffffffffff1633146106f4576040517f08c379a000000000000000000000000000000000000000000000000000000000815260206004820152602160248201527f4f776e61626c653a2063616c6c6572206973206e6f742074686520726f75746560448201527f72000000000000000000000000000000000000000000000000000000000000006064820152608401610492565b6105ad8282610fda565b33600090815260016020908152604080832073ffffffffffffffffffffffffffffffffffffffff86168452909152812054828110156107bf576040517f08c379a000000000000000000000000000000000000000000000000000000000815260206004820152602560248201527f45524332303a2064656372656173656420616c6c6f77616e63652062656c6f7760448201527f207a65726f0000000000000000000000000000000000000000000000000000006064820152608401610492565b6107cc33858584036109db565b5060019392505050565b60006103bf338484610b8f565b60055473ffffffffffffffffffffffffffffffffffffffff163314610864576040517f08c379a000000000000000000000000000000000000000000000000000000000815260206004820181905260248201527f4f776e61626c653a2063616c6c6572206973206e6f7420746865206f776e65726044820152606401610492565b600680547fffffffffffffffffffffffff00000000000000000000000000000000000000001673ffffffffffffffffffffffffffffffffffffffff92909216919091179055565b60055473ffffffffffffffffffffffffffffffffffffffff16331461092c576040517f08c379a000000000000000000000000000000000000000000000000000000000815260206004820181905260248201527f4f776e61626c653a2063616c6c6572206973206e6f7420746865206f776e65726044820152606401610492565b73ffffffffffffffffffffffffffffffffffffffff81166109cf576040517f08c379a000000000000000000000000000000000000000000000000000000000815260206004820152602660248201527f4f776e61626c653a206e6577206f776e657220697320746865207a65726f206160448201527f64647265737300000000000000000000000000000000000000000000000000006064820152608401610492565b6109d881610f63565b50565b73ffffffffffffffffffffffffffffffffffffffff8316610a7d576040517f08c379a0000000000000000000000000000000000000000000000000000000008152602060048201526024808201527f45524332303a20617070726f76652066726f6d20746865207a65726f2061646460448201527f72657373000000000000000000000000000000000000000000000000000000006064820152608401610492565b73ffffffffffffffffffffffffffffffffffffffff8216610b20576040517f08c379a000000000000000000000000000000000000000000000000000000000815260206004820152602260248201527f45524332303a20617070726f766520746f20746865207a65726f20616464726560448201527f73730000000000000000000000000000000000000000000000000000000000006064820152608401610492565b73ffffffffffffffffffffffffffffffffffffffff83811660008181526001602090815260408083209487168084529482529182902085905590518481527f8c5be1e5ebec7d5bd14f71427d1e84f3dd0314c0f7b2291e5b200ac8c7c3b92591015b60405180910390a3505050565b73ffffffffffffffffffffffffffffffffffffffff8316610c32576040517f08c379a000000000000000000000000000000000000000000000000000000000815260206004820152602560248201527f45524332303a207472616e736665722066726f6d20746865207a65726f20616460448201527f64726573730000000000000000000000000000000000000000000000000000006064820152608401610492565b73ffffffffffffffffffffffffffffffffffffffff8216610cd5576040517f08c379a000000000000000000000000000000000000000000000000000000000815260206004820152602360248201527f45524332303a207472616e7366657220746f20746865207a65726f206164647260448201527f65737300000000000000000000000000000000000000000000000000000000006064820152608401610492565b73ffffffffffffffffffffffffffffffffffffffff831660009081526020819052604090205481811015610d8b576040517f08c379a000000000000000000000000000000000000000000000000000000000815260206004820152602660248201527f45524332303a207472616e7366657220616d6f756e742065786365656473206260448201527f616c616e636500000000000000000000000000000000000000000000000000006064820152608401610492565b73ffffffffffffffffffffffffffffffffffffffff808516600090815260208190526040808220858503905591851681529081208054849290610dcf908490611310565b925050819055508273ffffffffffffffffffffffffffffffffffffffff168473ffffffffffffffffffffffffffffffffffffffff167fddf252ad1be2c89b69c2b068fc378daa952ba7f163c4a11628f55a4df523b3ef84604051610e3591815260200190565b60405180910390a350505050565b73ffffffffffffffffffffffffffffffffffffffff8216610ec0576040517f08c379a000000000000000000000000000000000000000000000000000000000815260206004820152601f60248201527f45524332303a206d696e7420746f20746865207a65726f2061646472657373006044820152606401610492565b8060026000828254610ed29190611310565b909155505073ffffffffffffffffffffffffffffffffffffffff821660009081526020819052604081208054839290610f0c908490611310565b909155505060405181815273ffffffffffffffffffffffffffffffffffffffff8316906000907fddf252ad1be2c89b69c2b068fc378daa952ba7f163c4a11628f55a4df523b3ef9060200160405180910390a35050565b6005805473ffffffffffffffffffffffffffffffffffffffff8381167fffffffffffffffffffffffff0000000000000000000000000000000000000000831681179093556040519116919082907f8be0079c531659141344cd1fd0a4f28419497f9722a3daafe3b4186f6b6457e090600090a35050565b73ffffffffffffffffffffffffffffffffffffffff821661107d576040517f08c379a000000000000000000000000000000000000000000000000000000000815260206004820152602160248201527f45524332303a206275726e2066726f6d20746865207a65726f2061646472657360448201527f73000000000000000000000000000000000000000000000000000000000000006064820152608401610492565b73ffffffffffffffffffffffffffffffffffffffff821660009081526020819052604090205481811015611133576040517f08c379a000000000000000000000000000000000000000000000000000000000815260206004820152602260248201527f45524332303a206275726e20616d6f756e7420657863656564732062616c616e60448201527f63650000000000000000000000000000000000000000000000000000000000006064820152608401610492565b73ffffffffffffffffffffffffffffffffffffffff8316600090815260208190526040812083830390556002805484929061116f908490611328565b909155505060405182815260009073ffffffffffffffffffffffffffffffffffffffff8516907fddf252ad1be2c89b69c2b068fc378daa952ba7f163c4a11628f55a4df523b3ef90602001610b82565b803573ffffffffffffffffffffffffffffffffffffffff811681146111e357600080fd5b919050565b6000602082840312156111f9578081fd5b611202826111bf565b9392505050565b6000806040838503121561121b578081fd5b611224836111bf565b9150611232602084016111bf565b90509250929050565b60008060006060848603121561124f578081fd5b611258846111bf565b9250611266602085016111bf565b9150604084013590509250925092565b60008060408385031215611288578182fd5b611291836111bf565b946020939093013593505050565b6000602080835283518082850152825b818110156112cb578581018301518582016040015282016112af565b818111156112dc5783604083870101525b50601f017fffffffffffffffffffffffffffffffffffffffffffffffffffffffffffffffe016929092016040019392505050565b6000821982111561132357611323611393565b500190565b60008282101561133a5761133a611393565b500390565b600181811c9082168061135357607f821691505b6020821081141561138d577f4e487b7100000000000000000000000000000000000000000000000000000000600052602260045260246000fd5b50919050565b7f4e487b7100000000000000000000000000000000000000000000000000000000600052601160045260246000fdfea26469706673582212205584b90ba94cad58f1d0fffa2d81da7c17176f2f1c1390875bffc21c9564521464736f6c63430008040033",
  "linkReferences": {},
  "deployedLinkReferences": {}
}