{
  "_format": "hh-sol-artifact-1",
  "contractName": "DeltaNeutralPerp",
  "sourceName": "contracts/strategy/DeltaNeutralPerp.sol",
  "abi": [
    {
      "anonymous": false,
      "inputs": [
        {
          "indexed": true,
          "internalType": "address",
          "name": "user",
          "type": "address"
        }
      ],
      "name": "DepositAllowed",
      "type": "event"
    },
    {
      "anonymous": false,
      "inputs": [
        {
          "indexed": true,
          "internalType": "address",
          "name": "previousOwner",
          "type": "address"
        },
        {
          "indexed": true,
          "internalType": "address",
          "name": "newOwner",
          "type": "address"
        }
      ],
      "name": "OwnershipTransferred",
      "type": "event"
    },
    {
      "anonymous": false,
      "inputs": [
        {
          "indexed": true,
          "internalType": "address",
          "name": "triger",
          "type": "address"
        },
        {
          "indexed": false,
          "internalType": "uint256",
          "name": "pfAmount",
          "type": "uint256"
        }
      ],
      "name": "PFCharged",
      "type": "event"
    },
    {
      "anonymous": false,
      "inputs": [
        {
          "indexed": true,
          "internalType": "bool",
          "name": "operationType",
          "type": "bool"
        },
        {
          "indexed": true,
          "internalType": "bool",
          "name": "positionType",
          "type": "bool"
        },
        {
          "indexed": false,
          "internalType": "uint256",
          "name": "usdcValue",
          "type": "uint256"
        },
        {
          "indexed": false,
          "internalType": "uint256",
          "name": "wValue",
          "type": "uint256"
        }
      ],
      "name": "PositionAdjusted",
      "type": "event"
    },
    {
      "anonymous": false,
      "inputs": [
        {
          "indexed": true,
          "internalType": "address",
          "name": "user",
          "type": "address"
        },
        {
          "indexed": false,
          "internalType": "uint256",
          "name": "usdcAmount",
          "type": "uint256"
        },
        {
          "indexed": true,
          "internalType": "uint256",
          "name": "depositAmount",
          "type": "uint256"
        },
        {
          "indexed": true,
          "internalType": "uint256",
          "name": "dcMintingAmount",
          "type": "uint256"
        }
      ],
      "name": "USDCDeposited",
      "type": "event"
    },
    {
      "anonymous": false,
      "inputs": [
        {
          "indexed": true,
          "internalType": "address",
          "name": "user",
          "type": "address"
        },
        {
          "indexed": false,
          "internalType": "uint256",
          "name": "usdcAmount",
          "type": "uint256"
        }
      ],
      "name": "USDCWithdrawn",
      "type": "event"
    },
    {
      "inputs": [
        {
          "internalType": "bool",
          "name": "operationType",
          "type": "bool"
        },
        {
          "internalType": "bool",
          "name": "positionType",
          "type": "bool"
        },
        {
          "internalType": "uint256",
          "name": "amount",
          "type": "uint256"
        }
      ],
      "name": "adjustPosition",
      "outputs": [],
      "stateMutability": "nonpayable",
      "type": "function"
    },
    {
      "inputs": [
        {
          "internalType": "address[]",
          "name": "users",
          "type": "address[]"
        },
        {
          "internalType": "bool",
          "name": "isDAO",
          "type": "bool"
        }
      ],
      "name": "allowDeposit",
      "outputs": [],
      "stateMutability": "nonpayable",
      "type": "function"
    },
    {
      "inputs": [
        {
          "internalType": "contract IERC20",
          "name": "token",
          "type": "address"
        },
        {
          "internalType": "uint256",
          "name": "amount",
          "type": "uint256"
        }
      ],
      "name": "approveTokenForUni",
      "outputs": [],
      "stateMutability": "nonpayable",
      "type": "function"
    },
    {
      "inputs": [],
      "name": "approveUSDC",
      "outputs": [],
      "stateMutability": "nonpayable",
      "type": "function"
    },
    {
      "inputs": [
        {
          "internalType": "address",
          "name": "user",
          "type": "address"
        }
      ],
      "name": "availableDeposit",
      "outputs": [
        {
          "internalType": "uint256",
          "name": "",
          "type": "uint256"
        }
      ],
      "stateMutability": "view",
      "type": "function"
    },
    {
      "inputs": [],
      "name": "currentCasualDeposits",
      "outputs": [
        {
          "internalType": "uint256",
          "name": "",
          "type": "uint256"
        }
      ],
      "stateMutability": "view",
      "type": "function"
    },
    {
      "inputs": [],
      "name": "currentDaoDeposits",
      "outputs": [
        {
          "internalType": "uint256",
          "name": "",
          "type": "uint256"
        }
      ],
      "stateMutability": "view",
      "type": "function"
    },
    {
      "inputs": [
        {
          "internalType": "address",
          "name": "user",
          "type": "address"
        },
        {
          "internalType": "bool",
          "name": "isDAO",
          "type": "bool"
        }
      ],
      "name": "denyDeposit",
      "outputs": [],
      "stateMutability": "nonpayable",
      "type": "function"
    },
    {
      "inputs": [
        {
          "internalType": "uint256",
          "name": "amount",
          "type": "uint256"
        }
      ],
      "name": "depositUSDC",
      "outputs": [],
      "stateMutability": "nonpayable",
      "type": "function"
    },
    {
      "inputs": [
        {
          "internalType": "address",
          "name": "tokenA",
          "type": "address"
        },
        {
          "internalType": "address",
          "name": "tokenB",
          "type": "address"
        },
        {
          "internalType": "uint256",
          "name": "amount",
          "type": "uint256"
        }
      ],
      "name": "directBuyTokensToUniswap",
      "outputs": [],
      "stateMutability": "nonpayable",
      "type": "function"
    },
    {
      "inputs": [
        {
          "internalType": "uint256",
          "name": "amount",
          "type": "uint256"
        }
      ],
      "name": "directClosePosition",
      "outputs": [],
      "stateMutability": "nonpayable",
      "type": "function"
    },
    {
      "inputs": [
        {
          "internalType": "uint256",
          "name": "amount",
          "type": "uint256"
        }
      ],
      "name": "directDepositToVault",
      "outputs": [],
      "stateMutability": "nonpayable",
      "type": "function"
    },
    {
      "inputs": [
        {
          "internalType": "uint256",
          "name": "amount",
          "type": "uint256"
        },
        {
          "internalType": "bool",
          "name": "position",
          "type": "bool"
        }
      ],
      "name": "directOpenPosition",
      "outputs": [],
      "stateMutability": "nonpayable",
      "type": "function"
    },
    {
      "inputs": [
        {
          "internalType": "uint256",
          "name": "amount",
          "type": "uint256"
        }
      ],
      "name": "directWithdrawUSDCtoPerpVault",
      "outputs": [],
      "stateMutability": "nonpayable",
      "type": "function"
    },
    {
      "inputs": [
        {
          "internalType": "contract IERC20",
          "name": "_token",
          "type": "address"
        }
      ],
      "name": "emergencyWithdraw",
      "outputs": [],
      "stateMutability": "nonpayable",
      "type": "function"
    },
    {
      "inputs": [],
      "name": "escrowServer",
      "outputs": [
        {
          "internalType": "address",
          "name": "",
          "type": "address"
        }
      ],
      "stateMutability": "view",
      "type": "function"
    },
    {
      "inputs": [],
      "name": "getCurrentFundingRate",
      "outputs": [
        {
          "internalType": "uint256",
          "name": "",
          "type": "uint256"
        }
      ],
      "stateMutability": "view",
      "type": "function"
    },
    {
      "inputs": [],
      "name": "getDCTokenPrice",
      "outputs": [
        {
          "internalType": "uint256",
          "name": "",
          "type": "uint256"
        }
      ],
      "stateMutability": "view",
      "type": "function"
    },
    {
      "inputs": [],
      "name": "getDailyMarketTwap",
      "outputs": [
        {
          "internalType": "uint256",
          "name": "",
          "type": "uint256"
        }
      ],
      "stateMutability": "view",
      "type": "function"
    },
    {
      "inputs": [],
      "name": "getDepositLimit",
      "outputs": [
        {
          "internalType": "uint256",
          "name": "",
          "type": "uint256"
        }
      ],
      "stateMutability": "view",
      "type": "function"
    },
    {
      "inputs": [],
      "name": "getReserve",
      "outputs": [
        {
          "internalType": "uint256",
          "name": "",
          "type": "uint256"
        }
      ],
      "stateMutability": "view",
      "type": "function"
    },
    {
      "inputs": [],
      "name": "getTotalUSDCValue",
      "outputs": [
        {
          "internalType": "uint256",
          "name": "",
          "type": "uint256"
        }
      ],
      "stateMutability": "view",
      "type": "function"
    },
    {
      "inputs": [
        {
          "internalType": "address",
          "name": "_usdc",
          "type": "address"
        },
        {
          "internalType": "address",
          "name": "router_",
          "type": "address"
        },
        {
          "internalType": "address",
          "name": "wToken_",
          "type": "address"
        },
        {
          "internalType": "address",
          "name": "vToken_",
          "type": "address"
        },
        {
          "internalType": "contract IClearingHouse",
          "name": "perp_",
          "type": "address"
        },
        {
          "internalType": "contract IVault",
          "name": "perpVault_",
          "type": "address"
        },
        {
          "internalType": "address",
          "name": "_triggerServer",
          "type": "address"
        }
      ],
      "name": "initialize",
      "outputs": [],
      "stateMutability": "nonpayable",
      "type": "function"
    },
    {
      "inputs": [
        {
          "internalType": "address",
          "name": "user",
          "type": "address"
        }
      ],
      "name": "isAllowedToDeposit",
      "outputs": [
        {
          "internalType": "bool",
          "name": "",
          "type": "bool"
        }
      ],
      "stateMutability": "view",
      "type": "function"
    },
    {
      "inputs": [],
      "name": "maxDaoListPoolSizeLimit",
      "outputs": [
        {
          "internalType": "uint256",
          "name": "",
          "type": "uint256"
        }
      ],
      "stateMutability": "view",
      "type": "function"
    },
    {
      "inputs": [],
      "name": "maxUsersPoolSizeLimit",
      "outputs": [
        {
          "internalType": "uint256",
          "name": "",
          "type": "uint256"
        }
      ],
      "stateMutability": "view",
      "type": "function"
    },
    {
      "inputs": [
        {
          "internalType": "address",
          "name": "newContract",
          "type": "address"
        }
      ],
      "name": "migrate",
      "outputs": [],
      "stateMutability": "nonpayable",
      "type": "function"
    },
    {
      "inputs": [],
      "name": "owner",
      "outputs": [
        {
          "internalType": "address",
          "name": "",
          "type": "address"
        }
      ],
      "stateMutability": "view",
      "type": "function"
    },
    {
      "inputs": [],
      "name": "renounceOwnership",
      "outputs": [],
      "stateMutability": "nonpayable",
      "type": "function"
    },
    {
      "inputs": [
        {
          "internalType": "address",
          "name": "dcToken_",
          "type": "address"
        }
      ],
      "name": "setDcToken",
      "outputs": [],
      "stateMutability": "nonpayable",
      "type": "function"
    },
    {
      "inputs": [
        {
          "internalType": "uint256",
          "name": "_newLimit",
          "type": "uint256"
        }
      ],
      "name": "setDepositLimit",
      "outputs": [],
      "stateMutability": "nonpayable",
      "type": "function"
    },
    {
      "inputs": [
        {
          "internalType": "address",
          "name": "_newEscrow",
          "type": "address"
        }
      ],
      "name": "setEscrow",
      "outputs": [],
      "stateMutability": "nonpayable",
      "type": "function"
    },
    {
      "inputs": [
        {
          "internalType": "uint256",
          "name": "_newLimit",
          "type": "uint256"
        }
      ],
      "name": "setMaxDaoPoolSizeLimit",
      "outputs": [],
      "stateMutability": "nonpayable",
      "type": "function"
    },
    {
      "inputs": [
        {
          "internalType": "address",
          "name": "_newTriggerServer",
          "type": "address"
        }
      ],
      "name": "setTriggerServer",
      "outputs": [],
      "stateMutability": "nonpayable",
      "type": "function"
    },
    {
      "inputs": [
        {
          "internalType": "uint256",
          "name": "_newLimit",
          "type": "uint256"
        }
      ],
      "name": "setUsersMaxPoolSizeLimit",
      "outputs": [],
      "stateMutability": "nonpayable",
      "type": "function"
    },
    {
      "inputs": [
        {
          "internalType": "address",
          "name": "newVToken",
          "type": "address"
        }
      ],
      "name": "setVToken",
      "outputs": [],
      "stateMutability": "nonpayable",
      "type": "function"
    },
    {
      "inputs": [
        {
          "internalType": "address",
          "name": "newOwner",
          "type": "address"
        }
      ],
      "name": "transferOwnership",
      "outputs": [],
      "stateMutability": "nonpayable",
      "type": "function"
    },
    {
      "inputs": [],
      "name": "triggerServer",
      "outputs": [
        {
          "internalType": "address",
          "name": "",
          "type": "address"
        }
      ],
      "stateMutability": "view",
      "type": "function"
    },
    {
      "inputs": [
        {
          "internalType": "uint256",
          "name": "amount",
          "type": "uint256"
        }
      ],
      "name": "withdrawUSDC",
      "outputs": [],
      "stateMutability": "nonpayable",
      "type": "function"
    }
  ],
  "bytecode": "0x608060405234801561001057600080fd5b50614db7806100206000396000f3fe608060405234801561001057600080fd5b50600436106102ad5760003560e01c80637e5fc1fc1161017b578063c10c3546116100d8578063e83e15121161008c578063f688bcfb11610071578063f688bcfb14610571578063f863061114610584578063fd241f991461058c57600080fd5b8063e83e15121461054b578063f2fde38b1461055e57600080fd5b8063ce5494bb116100bd578063ce5494bb14610512578063db81f99b14610525578063e1721e201461053857600080fd5b8063c10c3546146104ec578063caea2d86146104ff57600080fd5b8063abda8a9c1161012f578063bdc8144b11610114578063bdc8144b146104c7578063bf125342146104da578063bfbd55d3146104e357600080fd5b8063abda8a9c146104ac578063b8cd986f146104b457600080fd5b80638da5cb5b116101605780638da5cb5b146104735780639a34d97214610491578063a272f9211461049957600080fd5b80637e5fc1fc1461044d578063878e71021461046057600080fd5b8063529f9c6511610229578063608261b8116101dd5780636f13248d116101c25780636f13248d146103e95780636ff1c9bc14610432578063715018a61461044557600080fd5b8063608261b8146103ce5780636b83c501146103d657600080fd5b806359bf5d391161020e57806359bf5d39146103aa5780635d4b671c146103b25780635d871d0c146103c557600080fd5b8063529f9c65146103845780635532250f1461039757600080fd5b80631c84b545116102805780634469fc9d116102655780634469fc9d14610352578063506a052614610368578063515f732f1461037b57600080fd5b80631c84b5451461032c578063358764761461033f57600080fd5b806302150afa146102b25780630df8af19146102bc57806310e54cba146102cf5780631a06c975146102e2575b600080fd5b6102ba6105ac565b005b6102ba6102ca366004614b10565b6107f6565b6102ba6102dd366004614b10565b6108aa565b606c546103029073ffffffffffffffffffffffffffffffffffffffff1681565b60405173ffffffffffffffffffffffffffffffffffffffff90911681526020015b60405180910390f35b6102ba61033a366004614913565b610997565b6102ba61034d36600461487e565b610a4e565b61035a610cb4565b604051908152602001610323565b6102ba610376366004614953565b610cf5565b61035a60775481565b6102ba610392366004614846565b610e16565b6102ba6103a5366004614b10565b610ede565b61035a610fcb565b6102ba6103c0366004614acd565b611072565b61035a60765481565b61035a61119f565b6102ba6103e4366004614a9e565b611306565b6104226103f7366004614846565b73ffffffffffffffffffffffffffffffffffffffff1660009081526071602052604090205460ff1690565b6040519015158152602001610323565b6102ba610440366004614846565b61171c565b6102ba6119d1565b6102ba61045b366004614846565b611a5e565b6102ba61046e366004614846565b611b26565b60335473ffffffffffffffffffffffffffffffffffffffff16610302565b61035a611c6b565b6102ba6104a7366004614b10565b611dd0565b606e5461035a565b6102ba6104c236600461498b565b611e80565b6102ba6104d5366004614b10565b612251565b61035a60755481565b61035a60745481565b6102ba6104fa366004614846565b61233e565b61035a61050d366004614846565b612483565b6102ba610520366004614846565b6124bc565b6102ba610533366004614b10565b612729565b6102ba610546366004614b10565b612dad565b6102ba610559366004614b28565b612e5d565b6102ba61056c366004614846565b612f0e565b6102ba61057f366004614b10565b61303b565b61035a61367a565b606d546103029073ffffffffffffffffffffffffffffffffffffffff1681565b606d5473ffffffffffffffffffffffffffffffffffffffff163314610658576040517f08c379a000000000000000000000000000000000000000000000000000000000815260206004820152602660248201527f537472617465677953746f726167653a2063616c6c6572206973206e6f74207460448201527f726967676572000000000000000000000000000000000000000000000000000060648201526084015b60405180910390fd5b6069546067546040517f095ea7b300000000000000000000000000000000000000000000000000000000815273ffffffffffffffffffffffffffffffffffffffff91821660048201527fffffffffffffffffffffffffffffffffffffffffffffffffffffffffffffffff602482015291169063095ea7b390604401602060405180830381600087803b1580156106ed57600080fd5b505af1158015610701573d6000803e3d6000fd5b505050506040513d601f19601f820116820180604052508101906107259190614a82565b506069546070546040517f095ea7b300000000000000000000000000000000000000000000000000000000815273ffffffffffffffffffffffffffffffffffffffff91821660048201527fffffffffffffffffffffffffffffffffffffffffffffffffffffffffffffffff602482015291169063095ea7b390604401602060405180830381600087803b1580156107bb57600080fd5b505af11580156107cf573d6000803e3d6000fd5b505050506040513d601f19601f820116820180604052508101906107f39190614a82565b50565b606d5473ffffffffffffffffffffffffffffffffffffffff16331461089d576040517f08c379a000000000000000000000000000000000000000000000000000000000815260206004820152602660248201527f537472617465677953746f726167653a2063616c6c6572206973206e6f74207460448201527f7269676765720000000000000000000000000000000000000000000000000000606482015260840161064f565b6108a6816137ae565b5050565b60335473ffffffffffffffffffffffffffffffffffffffff16331461092b576040517f08c379a000000000000000000000000000000000000000000000000000000000815260206004820181905260248201527f4f776e61626c653a2063616c6c6572206973206e6f7420746865206f776e6572604482015260640161064f565b80610992576040517f08c379a000000000000000000000000000000000000000000000000000000000815260206004820152601060248201527f444e503a207a65726f20616d6f756e7400000000000000000000000000000000604482015260640161064f565b607455565b606d5473ffffffffffffffffffffffffffffffffffffffff163314610a3e576040517f08c379a000000000000000000000000000000000000000000000000000000000815260206004820152602660248201527f537472617465677953746f726167653a2063616c6c6572206973206e6f74207460448201527f7269676765720000000000000000000000000000000000000000000000000000606482015260840161064f565b610a498383836138eb565b505050565b610a566139d3565b606980547fffffffffffffffffffffffff000000000000000000000000000000000000000090811673ffffffffffffffffffffffffffffffffffffffff8a81169182179093556067805483168a8516908117909155606a805484168a8616179055606b80548416898616179055606f80548416888616179055607080548416878616179055606d8054841694861694909417909355606580547fffffffffffffffffff00000000000000000000000000000000000000000000001664012c0001f417905560668054909216909155630bebc200606e556040517f095ea7b300000000000000000000000000000000000000000000000000000000815260048101929092527fffffffffffffffffffffffffffffffffffffffffffffffffffffffffffffffff60248301529063095ea7b390604401602060405180830381600087803b158015610ba457600080fd5b505af1158015610bb8573d6000803e3d6000fd5b505050506040513d601f19601f82011682018060405250810190610bdc9190614a82565b50606a546067546040517f095ea7b300000000000000000000000000000000000000000000000000000000815273ffffffffffffffffffffffffffffffffffffffff91821660048201527fffffffffffffffffffffffffffffffffffffffffffffffffffffffffffffffff602482015291169063095ea7b390604401602060405180830381600087803b158015610c7257600080fd5b505af1158015610c86573d6000803e3d6000fd5b505050506040513d601f19601f82011682018060405250810190610caa9190614a82565b5050505050505050565b60008064e8d4a51000610cc5611c6b565b610ccf9190614bf7565b90506000610cde610e10613af8565b9050610cee82620f424083613bae565b9250505090565b60335473ffffffffffffffffffffffffffffffffffffffff163314610d76576040517f08c379a000000000000000000000000000000000000000000000000000000000815260206004820181905260248201527f4f776e61626c653a2063616c6c6572206973206e6f7420746865206f776e6572604482015260640161064f565b8015610dc9575073ffffffffffffffffffffffffffffffffffffffff16600090815260726020526040902080547fffffffffffffffffffffffffffffffffffffffffffffffffffffffffffffff00169055565b5073ffffffffffffffffffffffffffffffffffffffff16600090815260716020526040902080547fffffffffffffffffffffffffffffffffffffffffffffffffffffffffffffff00169055565b60335473ffffffffffffffffffffffffffffffffffffffff163314610e97576040517f08c379a000000000000000000000000000000000000000000000000000000000815260206004820181905260248201527f4f776e61626c653a2063616c6c6572206973206e6f7420746865206f776e6572604482015260640161064f565b606880547fffffffffffffffffffffffff00000000000000000000000000000000000000001673ffffffffffffffffffffffffffffffffffffffff92909216919091179055565b60335473ffffffffffffffffffffffffffffffffffffffff163314610f5f576040517f08c379a000000000000000000000000000000000000000000000000000000000815260206004820181905260248201527f4f776e61626c653a2063616c6c6572206973206e6f7420746865206f776e6572604482015260640161064f565b80610fc6576040517f08c379a000000000000000000000000000000000000000000000000000000000815260206004820152601060248201527f444e503a207a65726f20616d6f756e7400000000000000000000000000000000604482015260640161064f565b607555565b6069546040517f70a0823100000000000000000000000000000000000000000000000000000000815230600482015260009173ffffffffffffffffffffffffffffffffffffffff16906370a082319060240160206040518083038186803b15801561103557600080fd5b505afa158015611049573d6000803e3d6000fd5b505050506040513d601f19601f8201168201806040525081019061106d9190614af8565b905090565b60335473ffffffffffffffffffffffffffffffffffffffff1633146110f3576040517f08c379a000000000000000000000000000000000000000000000000000000000815260206004820181905260248201527f4f776e61626c653a2063616c6c6572206973206e6f7420746865206f776e6572604482015260640161064f565b6067546040517f095ea7b300000000000000000000000000000000000000000000000000000000815273ffffffffffffffffffffffffffffffffffffffff9182166004820152602481018390529083169063095ea7b390604401602060405180830381600087803b15801561116757600080fd5b505af115801561117b573d6000803e3d6000fd5b505050506040513d601f19601f82011682018060405250810190610a499190614a82565b606854604080517f18160ddd000000000000000000000000000000000000000000000000000000008152905160009273ffffffffffffffffffffffffffffffffffffffff16916318160ddd916004808301926020929190829003018186803b15801561120a57600080fd5b505afa15801561121e573d6000803e3d6000fd5b505050506040513d601f19601f820116820180604052508101906112429190614af8565b61124c5750600090565b61106d61125761367a565b606854604080517f18160ddd0000000000000000000000000000000000000000000000000000000081529051670de0b6b3a76400009273ffffffffffffffffffffffffffffffffffffffff16916318160ddd916004808301926020929190829003018186803b1580156112c957600080fd5b505afa1580156112dd573d6000803e3d6000fd5b505050506040513d601f19601f820116820180604052508101906113019190614af8565b613bae565b606d5473ffffffffffffffffffffffffffffffffffffffff1633146113ad576040517f08c379a000000000000000000000000000000000000000000000000000000000815260206004820152602660248201527f537472617465677953746f726167653a2063616c6c6572206973206e6f74207460448201527f7269676765720000000000000000000000000000000000000000000000000000606482015260840161064f565b80611414576040517f08c379a000000000000000000000000000000000000000000000000000000000815260206004820152601060248201527f444e503a207a65726f20616d6f756e7400000000000000000000000000000000604482015260640161064f565b821561171457600061142782602d613d48565b905082156115325781611438610fcb565b10156114a0576040517f08c379a000000000000000000000000000000000000000000000000000000000815260206004820152601960248201527f444e503a20496e73756666696369656e74207265736572766500000000000000604482015260640161064f565b606954606a546114ca9173ffffffffffffffffffffffffffffffffffffffff9081169116836138eb565b6114d381613d60565b6114eb6114e58264e8d4a51000614c30565b84613e59565b50604080518281526020810183905284151591861515917f1c520f41c3a8e2aa318c749011558adfd2b9bf3a82c508c280944ba6424145af910160405180910390a361170e565b606a546040517f70a0823100000000000000000000000000000000000000000000000000000000815230600482015282916115f29173ffffffffffffffffffffffffffffffffffffffff909116906370a08231906024015b60206040518083038186803b1580156115a257600080fd5b505afa1580156115b6573d6000803e3d6000fd5b505050506040513d601f19601f820116820180604052508101906115da9190614af8565b6115e46000613af8565b670de0b6b3a7640000613bae565b101561160557611600613fd6565b61170e565b606a546069546040517f70a082310000000000000000000000000000000000000000000000000000000081523060048201526116b89273ffffffffffffffffffffffffffffffffffffffff908116921690849083906370a082319060240160206040518083038186803b15801561167b57600080fd5b505afa15801561168f573d6000803e3d6000fd5b505050506040513d601f19601f820116820180604052508101906116b39190614af8565b6142c1565b6116c28184613e59565b506116cc816143a9565b604080518281526020810183905284151591861515917f1c520f41c3a8e2aa318c749011558adfd2b9bf3a82c508c280944ba6424145af910160405180910390a35b50505050565b610a49613fd6565b60335473ffffffffffffffffffffffffffffffffffffffff16331461179d576040517f08c379a000000000000000000000000000000000000000000000000000000000815260206004820181905260248201527f4f776e61626c653a2063616c6c6572206973206e6f7420746865206f776e6572604482015260640161064f565b606c5473ffffffffffffffffffffffffffffffffffffffff1661181c576040517f08c379a000000000000000000000000000000000000000000000000000000000815260206004820152601d60248201527f537472617465677953746f726167653a207a65726f2061646472657373000000604482015260640161064f565b606c546040517f70a0823100000000000000000000000000000000000000000000000000000000815230600482015273ffffffffffffffffffffffffffffffffffffffff8381169263a9059cbb9291169083906370a082319060240160206040518083038186803b15801561189057600080fd5b505afa1580156118a4573d6000803e3d6000fd5b505050506040513d601f19601f820116820180604052508101906118c89190614af8565b6040517fffffffff0000000000000000000000000000000000000000000000000000000060e085901b16815273ffffffffffffffffffffffffffffffffffffffff90921660048301526024820152604401602060405180830381600087803b15801561193357600080fd5b505af1158015611947573d6000803e3d6000fd5b505050506040513d601f19601f8201168201806040525081019061196b9190614a82565b6107f3576040517f08c379a000000000000000000000000000000000000000000000000000000000815260206004820152601a60248201527f444e503a204552433230207472616e73666572206661696c6564000000000000604482015260640161064f565b60335473ffffffffffffffffffffffffffffffffffffffff163314611a52576040517f08c379a000000000000000000000000000000000000000000000000000000000815260206004820181905260248201527f4f776e61626c653a2063616c6c6572206973206e6f7420746865206f776e6572604482015260640161064f565b611a5c600061440a565b565b60335473ffffffffffffffffffffffffffffffffffffffff163314611adf576040517f08c379a000000000000000000000000000000000000000000000000000000000815260206004820181905260248201527f4f776e61626c653a2063616c6c6572206973206e6f7420746865206f776e6572604482015260640161064f565b606b80547fffffffffffffffffffffffff00000000000000000000000000000000000000001673ffffffffffffffffffffffffffffffffffffffff92909216919091179055565b60335473ffffffffffffffffffffffffffffffffffffffff163314611ba7576040517f08c379a000000000000000000000000000000000000000000000000000000000815260206004820181905260248201527f4f776e61626c653a2063616c6c6572206973206e6f7420746865206f776e6572604482015260640161064f565b73ffffffffffffffffffffffffffffffffffffffff8116611c24576040517f08c379a000000000000000000000000000000000000000000000000000000000815260206004820152601d60248201527f537472617465677953746f726167653a207a65726f2061646472657373000000604482015260640161064f565b606d80547fffffffffffffffffffffffff00000000000000000000000000000000000000001673ffffffffffffffffffffffffffffffffffffffff92909216919091179055565b600080606f60009054906101000a900473ffffffffffffffffffffffffffffffffffffffff1673ffffffffffffffffffffffffffffffffffffffff1663f807cd226040518163ffffffff1660e01b815260040160206040518083038186803b158015611cd657600080fd5b505afa158015611cea573d6000803e3d6000fd5b505050506040513d601f19601f82011682018060405250810190611d0e9190614862565b606b546040517f99e4a77100000000000000000000000000000000000000000000000000000000815273ffffffffffffffffffffffffffffffffffffffff9182166004820152610e1060248201529116906399e4a7719060440160206040518083038186803b158015611d8057600080fd5b505afa158015611d94573d6000803e3d6000fd5b505050506040513d601f19601f82011682018060405250810190611db89190614862565b90506000611dc582614481565b9050610cee816144b1565b606d5473ffffffffffffffffffffffffffffffffffffffff163314611e77576040517f08c379a000000000000000000000000000000000000000000000000000000000815260206004820152602660248201527f537472617465677953746f726167653a2063616c6c6572206973206e6f74207460448201527f7269676765720000000000000000000000000000000000000000000000000000606482015260840161064f565b6107f3816143a9565b60335473ffffffffffffffffffffffffffffffffffffffff163314611f01576040517f08c379a000000000000000000000000000000000000000000000000000000000815260206004820181905260248201527f4f776e61626c653a2063616c6c6572206973206e6f7420746865206f776e6572604482015260640161064f565b80156121185760005b8251811015610a495760716000848381518110611f50577f4e487b7100000000000000000000000000000000000000000000000000000000600052603260045260246000fd5b60209081029190910181015173ffffffffffffffffffffffffffffffffffffffff1682528101919091526040016000205460ff1615611feb576040517f08c379a000000000000000000000000000000000000000000000000000000000815260206004820152601960248201527f444e503a205573657220616c726561647920616c6c6f77656400000000000000604482015260640161064f565b60016072600085848151811061202a577f4e487b7100000000000000000000000000000000000000000000000000000000600052603260045260246000fd5b602002602001015173ffffffffffffffffffffffffffffffffffffffff1673ffffffffffffffffffffffffffffffffffffffff16815260200190815260200160002060006101000a81548160ff0219169083151502179055508281815181106120bc577f4e487b7100000000000000000000000000000000000000000000000000000000600052603260045260246000fd5b602002602001015173ffffffffffffffffffffffffffffffffffffffff167fbc20f56c378e7e237a981b81d32ff91ed86109ee0373a910a83346edd53ad0de60405160405180910390a28061211081614c84565b915050611f0a565b60005b8251811015610a4957600160716000858481518110612163577f4e487b7100000000000000000000000000000000000000000000000000000000600052603260045260246000fd5b602002602001015173ffffffffffffffffffffffffffffffffffffffff1673ffffffffffffffffffffffffffffffffffffffff16815260200190815260200160002060006101000a81548160ff0219169083151502179055508281815181106121f5577f4e487b7100000000000000000000000000000000000000000000000000000000600052603260045260246000fd5b602002602001015173ffffffffffffffffffffffffffffffffffffffff167fbc20f56c378e7e237a981b81d32ff91ed86109ee0373a910a83346edd53ad0de60405160405180910390a28061224981614c84565b91505061211b565b60335473ffffffffffffffffffffffffffffffffffffffff1633146122d2576040517f08c379a000000000000000000000000000000000000000000000000000000000815260206004820181905260248201527f4f776e61626c653a2063616c6c6572206973206e6f7420746865206f776e6572604482015260640161064f565b80612339576040517f08c379a000000000000000000000000000000000000000000000000000000000815260206004820152601060248201527f444e503a207a65726f20616d6f756e7400000000000000000000000000000000604482015260640161064f565b606e55565b60335473ffffffffffffffffffffffffffffffffffffffff1633146123bf576040517f08c379a000000000000000000000000000000000000000000000000000000000815260206004820181905260248201527f4f776e61626c653a2063616c6c6572206973206e6f7420746865206f776e6572604482015260640161064f565b73ffffffffffffffffffffffffffffffffffffffff811661243c576040517f08c379a000000000000000000000000000000000000000000000000000000000815260206004820152601d60248201527f537472617465677953746f726167653a207a65726f2061646472657373000000604482015260640161064f565b606c80547fffffffffffffffffffffffff00000000000000000000000000000000000000001673ffffffffffffffffffffffffffffffffffffffff92909216919091179055565b73ffffffffffffffffffffffffffffffffffffffff8116600090815260736020526040812054606e546124b69190614c6d565b92915050565b606d5473ffffffffffffffffffffffffffffffffffffffff163314612563576040517f08c379a000000000000000000000000000000000000000000000000000000000815260206004820152602660248201527f537472617465677953746f726167653a2063616c6c6572206973206e6f74207460448201527f7269676765720000000000000000000000000000000000000000000000000000606482015260840161064f565b60006074819055607555612575613fd6565b6069546040517f70a0823100000000000000000000000000000000000000000000000000000000815230600482015273ffffffffffffffffffffffffffffffffffffffff9091169063a9059cbb90839083906370a082319060240160206040518083038186803b1580156125e857600080fd5b505afa1580156125fc573d6000803e3d6000fd5b505050506040513d601f19601f820116820180604052508101906126209190614af8565b6040517fffffffff0000000000000000000000000000000000000000000000000000000060e085901b16815273ffffffffffffffffffffffffffffffffffffffff90921660048301526024820152604401602060405180830381600087803b15801561268b57600080fd5b505af115801561269f573d6000803e3d6000fd5b505050506040513d601f19601f820116820180604052508101906126c39190614a82565b6107f3576040517f08c379a000000000000000000000000000000000000000000000000000000000815260206004820152601960248201527f444e503a2075736463207472616e73666572206661696c656400000000000000604482015260640161064f565b80612790576040517f08c379a000000000000000000000000000000000000000000000000000000000815260206004820152601060248201527f444e503a207a65726f20616d6f756e7400000000000000000000000000000000604482015260640161064f565b60685473ffffffffffffffffffffffffffffffffffffffff166370a08231336040517fffffffff0000000000000000000000000000000000000000000000000000000060e084901b16815273ffffffffffffffffffffffffffffffffffffffff909116600482015260240160206040518083038186803b15801561281357600080fd5b505afa158015612827573d6000803e3d6000fd5b505050506040513d601f19601f8201168201806040525081019061284b9190614af8565b8111156128b4576040517f08c379a000000000000000000000000000000000000000000000000000000000815260206004820152601860248201527f444e503a20696e73756666696369656e7420746f6b656e730000000000000000604482015260640161064f565b600061292682620f4240606860009054906101000a900473ffffffffffffffffffffffffffffffffffffffff1673ffffffffffffffffffffffffffffffffffffffff166318160ddd6040518163ffffffff1660e01b815260040160206040518083038186803b1580156112c957600080fd5b9050600061293f61293561367a565b83620f4240613bae565b905061294961367a565b8111156129d8576040517f08c379a000000000000000000000000000000000000000000000000000000000815260206004820152602f60248201527f444e503a20747279696e6720746f207769746864726177206d6f72652074686160448201527f6e20706f6f6c20636f6e7461696e730000000000000000000000000000000000606482015260840161064f565b33600090815260736020526040902054811115612a045733600090815260736020526040812055612a29565b3360009081526073602052604081208054839290612a23908490614c6d565b90915550505b80612a32610fcb565b1015612a4957612a49612a43610fcb565b826144d3565b6077548110612a5c576000607755612a74565b8060776000828254612a6e9190614c6d565b90915550505b60685473ffffffffffffffffffffffffffffffffffffffff166323b872dd336040517fffffffff0000000000000000000000000000000000000000000000000000000060e084901b16815273ffffffffffffffffffffffffffffffffffffffff909116600482015230602482015260448101869052606401602060405180830381600087803b158015612b0657600080fd5b505af1158015612b1a573d6000803e3d6000fd5b505050506040513d601f19601f82011682018060405250810190612b3e9190614a82565b612ba4576040517f08c379a000000000000000000000000000000000000000000000000000000000815260206004820152601c60248201527f444e503a206463546f6b656e207472616e73666572206661696c656400000000604482015260640161064f565b6068546040517f42966c680000000000000000000000000000000000000000000000000000000081526004810185905273ffffffffffffffffffffffffffffffffffffffff909116906342966c6890602401602060405180830381600087803b158015612c1057600080fd5b505af1158015612c24573d6000803e3d6000fd5b505050506040513d601f19601f82011682018060405250810190612c489190614a82565b5060695473ffffffffffffffffffffffffffffffffffffffff1663a9059cbb336040517fffffffff0000000000000000000000000000000000000000000000000000000060e084901b16815273ffffffffffffffffffffffffffffffffffffffff909116600482015260248101849052604401602060405180830381600087803b158015612cd557600080fd5b505af1158015612ce9573d6000803e3d6000fd5b505050506040513d601f19601f82011682018060405250810190612d0d9190614a82565b612d73576040517f08c379a000000000000000000000000000000000000000000000000000000000815260206004820152601960248201527f444e503a2075736463207472616e73666572206661696c656400000000000000604482015260640161064f565b60405181815233907f2aa7fb97600ea702b454359fc3d02ae9fa48367e7155505d38cee896e5b5aae79060200160405180910390a2505050565b606d5473ffffffffffffffffffffffffffffffffffffffff163314612e54576040517f08c379a000000000000000000000000000000000000000000000000000000000815260206004820152602660248201527f537472617465677953746f726167653a2063616c6c6572206973206e6f74207460448201527f7269676765720000000000000000000000000000000000000000000000000000606482015260840161064f565b6107f381613d60565b606d5473ffffffffffffffffffffffffffffffffffffffff163314612f04576040517f08c379a000000000000000000000000000000000000000000000000000000000815260206004820152602660248201527f537472617465677953746f726167653a2063616c6c6572206973206e6f74207460448201527f7269676765720000000000000000000000000000000000000000000000000000606482015260840161064f565b610a498282613e59565b60335473ffffffffffffffffffffffffffffffffffffffff163314612f8f576040517f08c379a000000000000000000000000000000000000000000000000000000000815260206004820181905260248201527f4f776e61626c653a2063616c6c6572206973206e6f7420746865206f776e6572604482015260640161064f565b73ffffffffffffffffffffffffffffffffffffffff8116613032576040517f08c379a000000000000000000000000000000000000000000000000000000000815260206004820152602660248201527f4f776e61626c653a206e6577206f776e657220697320746865207a65726f206160448201527f6464726573730000000000000000000000000000000000000000000000000000606482015260840161064f565b6107f38161440a565b806130a2576040517f08c379a000000000000000000000000000000000000000000000000000000000815260206004820152601060248201527f444e503a207a65726f20616d6f756e7400000000000000000000000000000000604482015260640161064f565b606e54336000908152607360205260409020546130c0908390614bdf565b1115613128576040517f08c379a000000000000000000000000000000000000000000000000000000000815260206004820152601c60248201527f444e503a20457863656564696e67206465706f736974206c696d697400000000604482015260640161064f565b3360009081526072602052604090205460ff16156131fc57607554816076546131519190614bdf565b11156131df576040517f08c379a000000000000000000000000000000000000000000000000000000000815260206004820152602260248201527f444e503a20457863656564696e672044414f20746f74616c20706f6f6c4c696d60448201527f6974000000000000000000000000000000000000000000000000000000000000606482015260840161064f565b80607660008282546131f19190614bdf565b9091555061332c9050565b3360009081526071602052604090205460ff1661329b576040517f08c379a000000000000000000000000000000000000000000000000000000000815260206004820152602360248201527f444e503a20596f7520617265206e6f7420616c6c6f77656420746f206465706f60448201527f7369740000000000000000000000000000000000000000000000000000000000606482015260840161064f565b607454816077546132ac9190614bdf565b1115613314576040517f08c379a000000000000000000000000000000000000000000000000000000000815260206004820152601e60248201527f444e503a20457863656564696e6720746f74616c20706f6f6c4c696d69740000604482015260640161064f565b80607760008282546133269190614bdf565b90915550505b600061333661367a565b905060006133498364e8d4a51000614c30565b9050620186a082111561341557600061336b84670de0b6b3a764000085613bae565b905061341181606860009054906101000a900473ffffffffffffffffffffffffffffffffffffffff1673ffffffffffffffffffffffffffffffffffffffff166318160ddd6040518163ffffffff1660e01b815260040160206040518083038186803b1580156133d957600080fd5b505afa1580156133ed573d6000803e3d6000fd5b505050506040513d601f19601f820116820180604052508101906115e49190614af8565b9150505b3360009081526073602052604081208054859290613434908490614bdf565b909155505060695473ffffffffffffffffffffffffffffffffffffffff166323b872dd336040517fffffffff0000000000000000000000000000000000000000000000000000000060e084901b16815273ffffffffffffffffffffffffffffffffffffffff909116600482015230602482015260448101869052606401602060405180830381600087803b1580156134cb57600080fd5b505af11580156134df573d6000803e3d6000fd5b505050506040513d601f19601f820116820180604052508101906135039190614a82565b613569576040517f08c379a000000000000000000000000000000000000000000000000000000000815260206004820152601960248201527f444e503a2075736463207472616e73666572206661696c656400000000000000604482015260640161064f565b60685473ffffffffffffffffffffffffffffffffffffffff166340c10f19336040517fffffffff0000000000000000000000000000000000000000000000000000000060e084901b16815273ffffffffffffffffffffffffffffffffffffffff909116600482015260248101849052604401602060405180830381600087803b1580156135f557600080fd5b505af1158015613609573d6000803e3d6000fd5b505050506040513d601f19601f8201168201806040525081019061362d9190614a82565b50336000818152607360209081526040918290205491518681528493917fadb9c7d50e628cfae085d3b964d71561992874591285cf3fceca443f1a5ed7cb910160405180910390a4505050565b606a546040517f70a082310000000000000000000000000000000000000000000000000000000081523060048201526000916136d79173ffffffffffffffffffffffffffffffffffffffff909116906370a082319060240161158a565b6136df610fcb565b606f546040517f5ae8095100000000000000000000000000000000000000000000000000000000815230600482015264e8d4a51000916137909173ffffffffffffffffffffffffffffffffffffffff90911690635ae809519060240160206040518083038186803b15801561375357600080fd5b505afa158015613767573d6000803e3d6000fd5b505050506040513d601f19601f8201168201806040525081019061378b9190614af8565b61460e565b61379a9190614bf7565b6137a49190614bdf565b61106d9190614bdf565b606f546040805160a081018252606b5473ffffffffffffffffffffffffffffffffffffffff90811682526066548116602083015291810184905260655460009383169262aa9a899291606083019161380e91630100000090041642614bdf565b815260006020918201526040805160e085901b7fffffffff00000000000000000000000000000000000000000000000000000000168152835173ffffffffffffffffffffffffffffffffffffffff9081166004830152928401519092166024830152820151604482015260608201516064820152608090910151608482015260a4016040805180830381600087803b1580156138a957600080fd5b505af11580156138bd573d6000803e3d6000fd5b505050506040513d601f19601f820116820180604052508101906138e19190614b4c565b5060019392505050565b6067546040805160e08101825273ffffffffffffffffffffffffffffffffffffffff8681168252858116602083015260655462ffffff168284015230606083015260808201859052600060a0830152606654811660c083015291517f04e45aaf00000000000000000000000000000000000000000000000000000000815291909216916304e45aaf916139819190600401614b6f565b602060405180830381600087803b15801561399b57600080fd5b505af11580156139af573d6000803e3d6000fd5b505050506040513d601f19601f8201168201806040525081019061170e9190614af8565b600054610100900460ff16806139ec575060005460ff16155b613a78576040517f08c379a000000000000000000000000000000000000000000000000000000000815260206004820152602e60248201527f496e697469616c697a61626c653a20636f6e747261637420697320616c72656160448201527f647920696e697469616c697a6564000000000000000000000000000000000000606482015260840161064f565b600054610100900460ff16158015613ab757600080547fffffffffffffffffffffffffffffffffffffffffffffffffffffffffffff0000166101011790555b613abf61462a565b613ac761473e565b80156107f357600080547fffffffffffffffffffffffffffffffffffffffffffffffffffffffffffff00ff16905550565b606b546040517f120806470000000000000000000000000000000000000000000000000000000081526004810183905260009164e8d4a510009173ffffffffffffffffffffffffffffffffffffffff9091169063120806479060240160206040518083038186803b158015613b6c57600080fd5b505afa158015613b80573d6000803e3d6000fd5b505050506040513d601f19601f82011682018060405250810190613ba49190614af8565b6124b69190614bf7565b600080807fffffffffffffffffffffffffffffffffffffffffffffffffffffffffffffffff8587098587029250828110838203039150508060001415613c065760008411613bfb57600080fd5b508290049050613d41565b808411613c1257600080fd5b6000848688098084039381119092039190506000613c3286196001614bdf565b8616958690049593849004936000819003046001019050613c538184614c30565b909317926000613c64876003614c30565b6002189050613c738188614c30565b613c7e906002614c6d565b613c889082614c30565b9050613c948188614c30565b613c9f906002614c6d565b613ca99082614c30565b9050613cb58188614c30565b613cc0906002614c6d565b613cca9082614c30565b9050613cd68188614c30565b613ce1906002614c6d565b613ceb9082614c30565b9050613cf78188614c30565b613d02906002614c6d565b613d0c9082614c30565b9050613d188188614c30565b613d23906002614c6d565b613d2d9082614c30565b9050613d398186614c30565b955050505050505b9392505050565b60006064613d568385614c30565b613d419190614bf7565b80613dc7576040517f08c379a000000000000000000000000000000000000000000000000000000000815260206004820152601060248201527f444e503a207a65726f20616d6f756e7400000000000000000000000000000000604482015260640161064f565b6070546069546040517f47e7ef2400000000000000000000000000000000000000000000000000000000815273ffffffffffffffffffffffffffffffffffffffff9182166004820152602481018490529116906347e7ef24906044015b600060405180830381600087803b158015613e3e57600080fd5b505af1158015613e52573d6000803e3d6000fd5b5050505050565b606f546040805161010081018252606b5473ffffffffffffffffffffffffffffffffffffffff9081168252841515602083015260009282018390526060820186905260808201839052606554929381169263b6b1b6c3929160a0830191613ec99163010000009091041642614bdf565b815260665473ffffffffffffffffffffffffffffffffffffffff9081166020808401919091526000604093840152825160e086811b7fffffffff0000000000000000000000000000000000000000000000000000000016825285518416600483015291850151151560248201529284015115156044840152606084015160648401526080840151608484015260a084015160a484015260c084015190911660c4830152919091015160e4820152610104016040805180830381600087803b158015613f9357600080fd5b505af1158015613fa7573d6000803e3d6000fd5b505050506040513d601f19601f82011682018060405250810190613fcb9190614b4c565b506001949350505050565b613fe060006137ae565b506070546040517fc39994440000000000000000000000000000000000000000000000000000000081523060048201526140899173ffffffffffffffffffffffffffffffffffffffff169063c39994449060240160206040518083038186803b15801561404c57600080fd5b505afa158015614060573d6000803e3d6000fd5b505050506040513d601f19601f820116820180604052508101906140849190614af8565b6143a9565b606a546040517f70a0823100000000000000000000000000000000000000000000000000000000815230600482015260009173ffffffffffffffffffffffffffffffffffffffff16906370a082319060240160206040518083038186803b1580156140f357600080fd5b505afa158015614107573d6000803e3d6000fd5b505050506040513d601f19601f8201168201806040525081019061412b9190614af8565b11156141e257606a546069546040517f70a082310000000000000000000000000000000000000000000000000000000081523060048201526141e29273ffffffffffffffffffffffffffffffffffffffff90811692169082906370a082319060240160206040518083038186803b1580156141a557600080fd5b505afa1580156141b9573d6000803e3d6000fd5b505050506040513d601f19601f820116820180604052508101906141dd9190614af8565b6138eb565b6069546040517f70a0823100000000000000000000000000000000000000000000000000000000815230600482015260009182917f1c520f41c3a8e2aa318c749011558adfd2b9bf3a82c508c280944ba6424145af9173ffffffffffffffffffffffffffffffffffffffff16906370a082319060240160206040518083038186803b15801561427057600080fd5b505afa158015614284573d6000803e3d6000fd5b505050506040513d601f19601f820116820180604052508101906142a89190614af8565b60408051918252600060208301520160405180910390a3565b6067546040805160e08101825273ffffffffffffffffffffffffffffffffffffffff8781168252868116602083015260655462ffffff16828401523060608301526080820186905260a08201859052606654811660c083015291517f5023b4df0000000000000000000000000000000000000000000000000000000081529190921691635023b4df916143579190600401614b6f565b602060405180830381600087803b15801561437157600080fd5b505af1158015614385573d6000803e3d6000fd5b505050506040513d601f19601f82011682018060405250810190613e529190614af8565b6070546069546040517ff3fef3a300000000000000000000000000000000000000000000000000000000815273ffffffffffffffffffffffffffffffffffffffff91821660048201526024810184905291169063f3fef3a390604401613e24565b6033805473ffffffffffffffffffffffffffffffffffffffff8381167fffffffffffffffffffffffff0000000000000000000000000000000000000000831681179093556040519116919082907f8be0079c531659141344cd1fd0a4f28419497f9722a3daafe3b4186f6b6457e090600090a35050565b60006124b673ffffffffffffffffffffffffffffffffffffffff8316806c01000000000000000000000000613bae565b60006124b682670de0b6b3a76400006c01000000000000000000000000613bae565b60006144df8383614c6d565b905060026144ee600a83614bf7565b6144f89083614bdf565b6145029190614bf7565b9050600061451d82670de0b6b3a76400006113016000613af8565b606a546040517f70a0823100000000000000000000000000000000000000000000000000000000815230600482015291925073ffffffffffffffffffffffffffffffffffffffff16906370a082319060240160206040518083038186803b15801561458757600080fd5b505afa15801561459b573d6000803e3d6000fd5b505050506040513d601f19601f820116820180604052508101906145bf9190614af8565b8111156145ce57611600613fd6565b606a546069546145f99173ffffffffffffffffffffffffffffffffffffffff908116911684846142c1565b614604816000613e59565b5061170e826143a9565b6000808212156146265761462182614cbd565b6124b6565b5090565b600054610100900460ff1680614643575060005460ff16155b6146cf576040517f08c379a000000000000000000000000000000000000000000000000000000000815260206004820152602e60248201527f496e697469616c697a61626c653a20636f6e747261637420697320616c72656160448201527f647920696e697469616c697a6564000000000000000000000000000000000000606482015260840161064f565b600054610100900460ff16158015613ac757600080547fffffffffffffffffffffffffffffffffffffffffffffffffffffffffffff00001661010117905580156107f357600080547fffffffffffffffffffffffffffffffffffffffffffffffffffffffffffff00ff16905550565b600054610100900460ff1680614757575060005460ff16155b6147e3576040517f08c379a000000000000000000000000000000000000000000000000000000000815260206004820152602e60248201527f496e697469616c697a61626c653a20636f6e747261637420697320616c72656160448201527f647920696e697469616c697a6564000000000000000000000000000000000000606482015260840161064f565b600054610100900460ff1615801561482257600080547fffffffffffffffffffffffffffffffffffffffffffffffffffffffffffff0000166101011790555b613ac73361440a565b803561483681614d51565b919050565b803561483681614d73565b600060208284031215614857578081fd5b8135613d4181614d51565b600060208284031215614873578081fd5b8151613d4181614d51565b600080600080600080600060e0888a031215614898578283fd5b87356148a381614d51565b965060208801356148b381614d51565b955060408801356148c381614d51565b945060608801356148d381614d51565b935060808801356148e381614d51565b925060a08801356148f381614d51565b915060c088013561490381614d51565b8091505092959891949750929550565b600080600060608486031215614927578283fd5b833561493281614d51565b9250602084013561494281614d51565b929592945050506040919091013590565b60008060408385031215614965578182fd5b823561497081614d51565b9150602083013561498081614d73565b809150509250929050565b6000806040838503121561499d578182fd5b823567ffffffffffffffff808211156149b4578384fd5b818501915085601f8301126149c7578384fd5b81356020828211156149db576149db614d22565b8160051b6040517fffffffffffffffffffffffffffffffffffffffffffffffffffffffffffffffe0603f83011681018181108682111715614a1e57614a1e614d22565b604052838152828101945085830182870184018b1015614a3c578889fd5b8896505b84871015614a6557614a518161482b565b865260019690960195948301948301614a40565b509650614a75905087820161483b565b9450505050509250929050565b600060208284031215614a93578081fd5b8151613d4181614d73565b600080600060608486031215614ab2578283fd5b8335614abd81614d73565b9250602084013561494281614d73565b60008060408385031215614adf578182fd5b8235614aea81614d51565b946020939093013593505050565b600060208284031215614b09578081fd5b5051919050565b600060208284031215614b21578081fd5b5035919050565b60008060408385031215614b3a578182fd5b82359150602083013561498081614d73565b60008060408385031215614b5e578182fd5b505080516020909101519092909150565b60e081016124b6828473ffffffffffffffffffffffffffffffffffffffff80825116835280602083015116602084015262ffffff60408301511660408401528060608301511660608401526080820151608084015260a082015160a08401528060c08301511660c0840152505050565b60008219821115614bf257614bf2614cf3565b500190565b600082614c2b577f4e487b710000000000000000000000000000000000000000000000000000000081526012600452602481fd5b500490565b6000817fffffffffffffffffffffffffffffffffffffffffffffffffffffffffffffffff0483118215151615614c6857614c68614cf3565b500290565b600082821015614c7f57614c7f614cf3565b500390565b60007fffffffffffffffffffffffffffffffffffffffffffffffffffffffffffffffff821415614cb657614cb6614cf3565b5060010190565b60007f8000000000000000000000000000000000000000000000000000000000000000821415614cef57614cef614cf3565b0390565b7f4e487b7100000000000000000000000000000000000000000000000000000000600052601160045260246000fd5b7f4e487b7100000000000000000000000000000000000000000000000000000000600052604160045260246000fd5b73ffffffffffffffffffffffffffffffffffffffff811681146107f357600080fd5b80151581146107f357600080fdfea26469706673582212204fa1a1fb084b118db54d815a3bcfda837c9548c41dafdbce2e76fff456cea35164736f6c63430008040033",
  "linkReferences": {},
  "deployedLinkReferences": {}
}