{
  "_format": "hh-sol-artifact-1",
  "contractName": "DeltaNeutralPerp",
  "sourceName": "contracts/strategy/DeltaNeutralPerp.sol",
  "abi": [
    {
      "anonymous": false,
      "inputs": [
        {
          "indexed": true,
          "internalType": "address",
          "name": "user",
          "type": "address"
        }
      ],
      "name": "DepositAllowed",
      "type": "event"
    },
    {
      "anonymous": false,
      "inputs": [
        {
          "indexed": true,
          "internalType": "address",
          "name": "previousOwner",
          "type": "address"
        },
        {
          "indexed": true,
          "internalType": "address",
          "name": "newOwner",
          "type": "address"
        }
      ],
      "name": "OwnershipTransferred",
      "type": "event"
    },
    {
      "anonymous": false,
      "inputs": [
        {
          "indexed": true,
          "internalType": "address",
          "name": "triger",
          "type": "address"
        },
        {
          "indexed": false,
          "internalType": "uint256",
          "name": "pfAmount",
          "type": "uint256"
        }
      ],
      "name": "PFCharged",
      "type": "event"
    },
    {
      "anonymous": false,
      "inputs": [
        {
          "indexed": true,
          "internalType": "bool",
          "name": "operationType",
          "type": "bool"
        },
        {
          "indexed": true,
          "internalType": "bool",
          "name": "positionType",
          "type": "bool"
        },
        {
          "indexed": false,
          "internalType": "uint256",
          "name": "usdcValue",
          "type": "uint256"
        },
        {
          "indexed": false,
          "internalType": "uint256",
          "name": "wValue",
          "type": "uint256"
        }
      ],
      "name": "PositionAdjusted",
      "type": "event"
    },
    {
      "anonymous": false,
      "inputs": [
        {
          "indexed": true,
          "internalType": "address",
          "name": "user",
          "type": "address"
        },
        {
          "indexed": false,
          "internalType": "uint256",
          "name": "usdcAmount",
          "type": "uint256"
        },
        {
          "indexed": true,
          "internalType": "uint256",
          "name": "depositAmount",
          "type": "uint256"
        },
        {
          "indexed": true,
          "internalType": "uint256",
          "name": "dcMintingAmount",
          "type": "uint256"
        }
      ],
      "name": "USDCDeposited",
      "type": "event"
    },
    {
      "anonymous": false,
      "inputs": [
        {
          "indexed": true,
          "internalType": "address",
          "name": "user",
          "type": "address"
        },
        {
          "indexed": false,
          "internalType": "uint256",
          "name": "usdcAmount",
          "type": "uint256"
        }
      ],
      "name": "USDCWithdrawn",
      "type": "event"
    },
    {
      "inputs": [
        {
          "internalType": "bool",
          "name": "operationType",
          "type": "bool"
        },
        {
          "internalType": "bool",
          "name": "positionType",
          "type": "bool"
        },
        {
          "internalType": "uint256",
          "name": "amount",
          "type": "uint256"
        }
      ],
      "name": "adjustPosition",
      "outputs": [],
      "stateMutability": "nonpayable",
      "type": "function"
    },
    {
      "inputs": [
        {
          "internalType": "address[]",
          "name": "users",
          "type": "address[]"
        },
        {
          "internalType": "bool",
          "name": "isDAO",
          "type": "bool"
        }
      ],
      "name": "allowDeposit",
      "outputs": [],
      "stateMutability": "nonpayable",
      "type": "function"
    },
    {
      "inputs": [
        {
          "internalType": "contract IERC20",
          "name": "token",
          "type": "address"
        },
        {
          "internalType": "uint256",
          "name": "amount",
          "type": "uint256"
        }
      ],
      "name": "approveTokenForUni",
      "outputs": [],
      "stateMutability": "nonpayable",
      "type": "function"
    },
    {
      "inputs": [],
      "name": "approveUSDC",
      "outputs": [],
      "stateMutability": "nonpayable",
      "type": "function"
    },
    {
      "inputs": [
        {
          "internalType": "address",
          "name": "user",
          "type": "address"
        }
      ],
      "name": "availableDeposit",
      "outputs": [
        {
          "internalType": "uint256",
          "name": "",
          "type": "uint256"
        }
      ],
      "stateMutability": "view",
      "type": "function"
    },
    {
      "inputs": [],
      "name": "currentCasualDeposits",
      "outputs": [
        {
          "internalType": "uint256",
          "name": "",
          "type": "uint256"
        }
      ],
      "stateMutability": "view",
      "type": "function"
    },
    {
      "inputs": [],
      "name": "currentDaoDeposits",
      "outputs": [
        {
          "internalType": "uint256",
          "name": "",
          "type": "uint256"
        }
      ],
      "stateMutability": "view",
      "type": "function"
    },
    {
      "inputs": [
        {
          "internalType": "address",
          "name": "user",
          "type": "address"
        },
        {
          "internalType": "bool",
          "name": "isDAO",
          "type": "bool"
        }
      ],
      "name": "denyDeposit",
      "outputs": [],
      "stateMutability": "nonpayable",
      "type": "function"
    },
    {
      "inputs": [
        {
          "internalType": "uint256",
          "name": "amount",
          "type": "uint256"
        }
      ],
      "name": "depositUSDC",
      "outputs": [],
      "stateMutability": "nonpayable",
      "type": "function"
    },
    {
      "inputs": [
        {
          "internalType": "address",
          "name": "tokenA",
          "type": "address"
        },
        {
          "internalType": "address",
          "name": "tokenB",
          "type": "address"
        },
        {
          "internalType": "uint256",
          "name": "amount",
          "type": "uint256"
        }
      ],
      "name": "directBuyTokensToUniswap",
      "outputs": [],
      "stateMutability": "nonpayable",
      "type": "function"
    },
    {
      "inputs": [
        {
          "internalType": "uint256",
          "name": "amount",
          "type": "uint256"
        }
      ],
      "name": "directClosePosition",
      "outputs": [],
      "stateMutability": "nonpayable",
      "type": "function"
    },
    {
      "inputs": [
        {
          "internalType": "uint256",
          "name": "amount",
          "type": "uint256"
        }
      ],
      "name": "directDepositToVault",
      "outputs": [],
      "stateMutability": "nonpayable",
      "type": "function"
    },
    {
      "inputs": [
        {
          "internalType": "uint256",
          "name": "amount",
          "type": "uint256"
        },
        {
          "internalType": "bool",
          "name": "position",
          "type": "bool"
        }
      ],
      "name": "directOpenPosition",
      "outputs": [],
      "stateMutability": "nonpayable",
      "type": "function"
    },
    {
      "inputs": [
        {
          "internalType": "uint256",
          "name": "amount",
          "type": "uint256"
        }
      ],
      "name": "directWithdrawUSDCtoPerpVault",
      "outputs": [],
      "stateMutability": "nonpayable",
      "type": "function"
    },
    {
      "inputs": [
        {
          "internalType": "contract IERC20",
          "name": "_token",
          "type": "address"
        }
      ],
      "name": "emergencyWithdraw",
      "outputs": [],
      "stateMutability": "nonpayable",
      "type": "function"
    },
    {
      "inputs": [],
      "name": "escrowServer",
      "outputs": [
        {
          "internalType": "address",
          "name": "",
          "type": "address"
        }
      ],
      "stateMutability": "view",
      "type": "function"
    },
    {
      "inputs": [],
      "name": "getCurrentFundingRate",
      "outputs": [
        {
          "internalType": "uint256",
          "name": "",
          "type": "uint256"
        }
      ],
      "stateMutability": "view",
      "type": "function"
    },
    {
      "inputs": [],
      "name": "getDCTokenPrice",
      "outputs": [
        {
          "internalType": "uint256",
          "name": "",
          "type": "uint256"
        }
      ],
      "stateMutability": "view",
      "type": "function"
    },
    {
      "inputs": [],
      "name": "getDailyMarketTwap",
      "outputs": [
        {
          "internalType": "uint256",
          "name": "",
          "type": "uint256"
        }
      ],
      "stateMutability": "view",
      "type": "function"
    },
    {
      "inputs": [],
      "name": "getDepositLimit",
      "outputs": [
        {
          "internalType": "uint256",
          "name": "",
          "type": "uint256"
        }
      ],
      "stateMutability": "view",
      "type": "function"
    },
    {
      "inputs": [],
      "name": "getReserve",
      "outputs": [
        {
          "internalType": "uint256",
          "name": "",
          "type": "uint256"
        }
      ],
      "stateMutability": "view",
      "type": "function"
    },
    {
      "inputs": [],
      "name": "getTotalUSDCValue",
      "outputs": [
        {
          "internalType": "uint256",
          "name": "",
          "type": "uint256"
        }
      ],
      "stateMutability": "view",
      "type": "function"
    },
    {
      "inputs": [
        {
          "internalType": "address",
          "name": "_usdc",
          "type": "address"
        },
        {
          "internalType": "address",
          "name": "router_",
          "type": "address"
        },
        {
          "internalType": "address",
          "name": "wToken_",
          "type": "address"
        },
        {
          "internalType": "address",
          "name": "vToken_",
          "type": "address"
        },
        {
          "internalType": "contract IClearingHouse",
          "name": "perp_",
          "type": "address"
        },
        {
          "internalType": "contract IVault",
          "name": "perpVault_",
          "type": "address"
        },
        {
          "internalType": "address",
          "name": "_triggerServer",
          "type": "address"
        },
        {
          "internalType": "uint32",
          "name": "performanceFee_",
          "type": "uint32"
        },
        {
          "internalType": "uint32",
          "name": "subscriptionFee_",
          "type": "uint32"
        }
      ],
      "name": "initialize",
      "outputs": [],
      "stateMutability": "nonpayable",
      "type": "function"
    },
    {
      "inputs": [
        {
          "internalType": "address",
          "name": "user",
          "type": "address"
        }
      ],
      "name": "isAllowedToDeposit",
      "outputs": [
        {
          "internalType": "bool",
          "name": "",
          "type": "bool"
        }
      ],
      "stateMutability": "view",
      "type": "function"
    },
    {
      "inputs": [],
      "name": "maxDaoListPoolSizeLimit",
      "outputs": [
        {
          "internalType": "uint256",
          "name": "",
          "type": "uint256"
        }
      ],
      "stateMutability": "view",
      "type": "function"
    },
    {
      "inputs": [],
      "name": "maxPoolSizeLimit",
      "outputs": [
        {
          "internalType": "uint256",
          "name": "",
          "type": "uint256"
        }
      ],
      "stateMutability": "view",
      "type": "function"
    },
    {
      "inputs": [],
      "name": "maxUsersPoolSizeLimit",
      "outputs": [
        {
          "internalType": "uint256",
          "name": "",
          "type": "uint256"
        }
      ],
      "stateMutability": "view",
      "type": "function"
    },
    {
      "inputs": [
        {
          "internalType": "address",
          "name": "newContract",
          "type": "address"
        }
      ],
      "name": "migrate",
      "outputs": [],
      "stateMutability": "nonpayable",
      "type": "function"
    },
    {
      "inputs": [],
      "name": "owner",
      "outputs": [
        {
          "internalType": "address",
          "name": "",
          "type": "address"
        }
      ],
      "stateMutability": "view",
      "type": "function"
    },
    {
      "inputs": [],
      "name": "renounceOwnership",
      "outputs": [],
      "stateMutability": "nonpayable",
      "type": "function"
    },
    {
      "inputs": [
        {
          "internalType": "address",
          "name": "dcToken_",
          "type": "address"
        }
      ],
      "name": "setDcToken",
      "outputs": [],
      "stateMutability": "nonpayable",
      "type": "function"
    },
    {
      "inputs": [
        {
          "internalType": "uint256",
          "name": "_newLimit",
          "type": "uint256"
        }
      ],
      "name": "setDepositLimit",
      "outputs": [],
      "stateMutability": "nonpayable",
      "type": "function"
    },
    {
      "inputs": [
        {
          "internalType": "address",
          "name": "_newEscrow",
          "type": "address"
        }
      ],
      "name": "setEscrow",
      "outputs": [],
      "stateMutability": "nonpayable",
      "type": "function"
    },
    {
      "inputs": [
        {
          "internalType": "uint256",
          "name": "_newLimit",
          "type": "uint256"
        }
      ],
      "name": "setMaxDaoPoolSizeLimit",
      "outputs": [],
      "stateMutability": "nonpayable",
      "type": "function"
    },
    {
      "inputs": [
        {
          "internalType": "address",
          "name": "_newTriggerServer",
          "type": "address"
        }
      ],
      "name": "setTriggerServer",
      "outputs": [],
      "stateMutability": "nonpayable",
      "type": "function"
    },
    {
      "inputs": [
        {
          "internalType": "uint256",
          "name": "_newLimit",
          "type": "uint256"
        }
      ],
      "name": "setUsersMaxPoolSizeLimit",
      "outputs": [],
      "stateMutability": "nonpayable",
      "type": "function"
    },
    {
      "inputs": [
        {
          "internalType": "address",
          "name": "newVToken",
          "type": "address"
        }
      ],
      "name": "setVToken",
      "outputs": [],
      "stateMutability": "nonpayable",
      "type": "function"
    },
    {
      "inputs": [
        {
          "internalType": "address",
          "name": "newOwner",
          "type": "address"
        }
      ],
      "name": "transferOwnership",
      "outputs": [],
      "stateMutability": "nonpayable",
      "type": "function"
    },
    {
      "inputs": [],
      "name": "triggerServer",
      "outputs": [
        {
          "internalType": "address",
          "name": "",
          "type": "address"
        }
      ],
      "stateMutability": "view",
      "type": "function"
    },
    {
      "inputs": [
        {
          "internalType": "uint256",
          "name": "amount",
          "type": "uint256"
        }
      ],
      "name": "withdrawUSDC",
      "outputs": [],
      "stateMutability": "nonpayable",
      "type": "function"
    }
  ],
  "bytecode": "0x608060405234801561001057600080fd5b50614e68806100206000396000f3fe608060405234801561001057600080fd5b50600436106102c85760003560e01c80637e5fc1fc1161017b578063c10c3546116100d8578063e83e15121161008c578063f688bcfb11610071578063f688bcfb14610595578063f8630611146105a8578063fd241f99146105b057600080fd5b8063e83e15121461056f578063f2fde38b1461058257600080fd5b8063ce5494bb116100bd578063ce5494bb14610536578063db81f99b14610549578063e1721e201461055c57600080fd5b8063c10c354614610510578063caea2d861461052357600080fd5b8063abda8a9c1161012f578063bdc8144b11610114578063bdc8144b146104eb578063bf125342146104fe578063bfbd55d31461050757600080fd5b8063abda8a9c146104d0578063b8cd986f146104d857600080fd5b80638da5cb5b116101605780638da5cb5b146104975780639a34d972146104b5578063a272f921146104bd57600080fd5b80637e5fc1fc14610471578063878e71021461048457600080fd5b80635532250f116102295780636b83c501116101dd5780636f13248d116101c25780636f13248d1461040d5780636ff1c9bc14610456578063715018a61461046957600080fd5b80636b83c501146103e75780636b8e05ec146103fa57600080fd5b80635d4b671c1161020e5780635d4b671c146103c35780635d871d0c146103d6578063608261b8146103df57600080fd5b80635532250f146103a857806359bf5d39146103bb57600080fd5b806342117f2111610280578063506a052611610265578063506a052614610379578063515f732f1461038c578063529f9c651461039557600080fd5b806342117f211461035a5780634469fc9d1461037157600080fd5b806310e54cba116102b157806310e54cba146102ea5780631a06c975146102fd5780631c84b5451461034757600080fd5b806302150afa146102cd5780630df8af19146102d7575b600080fd5b6102d56105d0565b005b6102d56102e5366004614bc1565b61081a565b6102d56102f8366004614bc1565b6108ce565b606c5461031d9073ffffffffffffffffffffffffffffffffffffffff1681565b60405173ffffffffffffffffffffffffffffffffffffffff90911681526020015b60405180910390f35b6102d56103553660046149c4565b6109bb565b61036360aa5481565b60405190815260200161033e565b610363610a72565b6102d5610387366004614a04565b610ab3565b61036360ae5481565b6102d56103a33660046148d7565b610bd4565b6102d56103b6366004614bc1565b610c9c565b610363610d89565b6102d56103d1366004614b7e565b610e30565b61036360ad5481565b610363610f5d565b6102d56103f5366004614b4f565b6110c4565b6102d561040836600461490f565b6114da565b61044661041b3660046148d7565b73ffffffffffffffffffffffffffffffffffffffff1660009081526076602052604090205460ff1690565b604051901515815260200161033e565b6102d56104643660046148d7565b611799565b6102d5611a4e565b6102d561047f3660046148d7565b611adb565b6102d56104923660046148d7565b611ba3565b60335473ffffffffffffffffffffffffffffffffffffffff1661031d565b610363611ce8565b6102d56104cb366004614bc1565b611e4d565b607354610363565b6102d56104e6366004614a3c565b611efd565b6102d56104f9366004614bc1565b6122ce565b61036360ac5481565b61036360ab5481565b6102d561051e3660046148d7565b6123bb565b6103636105313660046148d7565b612500565b6102d56105443660046148d7565b612539565b6102d5610557366004614bc1565b6127a6565b6102d561056a366004614bc1565b612e2a565b6102d561057d366004614bd9565b612eda565b6102d56105903660046148d7565b612f8b565b6102d56105a3366004614bc1565b6130b8565b6103636136f7565b606d5461031d9073ffffffffffffffffffffffffffffffffffffffff1681565b606d5473ffffffffffffffffffffffffffffffffffffffff16331461067c576040517f08c379a000000000000000000000000000000000000000000000000000000000815260206004820152602660248201527f537472617465677953746f726167653a2063616c6c6572206973206e6f74207460448201527f726967676572000000000000000000000000000000000000000000000000000060648201526084015b60405180910390fd5b6069546067546040517f095ea7b300000000000000000000000000000000000000000000000000000000815273ffffffffffffffffffffffffffffffffffffffff91821660048201527fffffffffffffffffffffffffffffffffffffffffffffffffffffffffffffffff602482015291169063095ea7b390604401602060405180830381600087803b15801561071157600080fd5b505af1158015610725573d6000803e3d6000fd5b505050506040513d601f19601f820116820180604052508101906107499190614b33565b506069546075546040517f095ea7b300000000000000000000000000000000000000000000000000000000815273ffffffffffffffffffffffffffffffffffffffff91821660048201527fffffffffffffffffffffffffffffffffffffffffffffffffffffffffffffffff602482015291169063095ea7b390604401602060405180830381600087803b1580156107df57600080fd5b505af11580156107f3573d6000803e3d6000fd5b505050506040513d601f19601f820116820180604052508101906108179190614b33565b50565b606d5473ffffffffffffffffffffffffffffffffffffffff1633146108c1576040517f08c379a000000000000000000000000000000000000000000000000000000000815260206004820152602660248201527f537472617465677953746f726167653a2063616c6c6572206973206e6f74207460448201527f72696767657200000000000000000000000000000000000000000000000000006064820152608401610673565b6108ca8161382b565b5050565b60335473ffffffffffffffffffffffffffffffffffffffff16331461094f576040517f08c379a000000000000000000000000000000000000000000000000000000000815260206004820181905260248201527f4f776e61626c653a2063616c6c6572206973206e6f7420746865206f776e65726044820152606401610673565b806109b6576040517f08c379a000000000000000000000000000000000000000000000000000000000815260206004820152601060248201527f444e503a207a65726f20616d6f756e74000000000000000000000000000000006044820152606401610673565b60ab55565b606d5473ffffffffffffffffffffffffffffffffffffffff163314610a62576040517f08c379a000000000000000000000000000000000000000000000000000000000815260206004820152602660248201527f537472617465677953746f726167653a2063616c6c6572206973206e6f74207460448201527f72696767657200000000000000000000000000000000000000000000000000006064820152608401610673565b610a6d838383613968565b505050565b60008064e8d4a51000610a83611ce8565b610a8d9190614ca8565b90506000610a9c610e10613a50565b9050610aac82620f424083613b06565b9250505090565b60335473ffffffffffffffffffffffffffffffffffffffff163314610b34576040517f08c379a000000000000000000000000000000000000000000000000000000000815260206004820181905260248201527f4f776e61626c653a2063616c6c6572206973206e6f7420746865206f776e65726044820152606401610673565b8015610b87575073ffffffffffffffffffffffffffffffffffffffff16600090815260af6020526040902080547fffffffffffffffffffffffffffffffffffffffffffffffffffffffffffffff00169055565b5073ffffffffffffffffffffffffffffffffffffffff16600090815260766020526040902080547fffffffffffffffffffffffffffffffffffffffffffffffffffffffffffffff00169055565b60335473ffffffffffffffffffffffffffffffffffffffff163314610c55576040517f08c379a000000000000000000000000000000000000000000000000000000000815260206004820181905260248201527f4f776e61626c653a2063616c6c6572206973206e6f7420746865206f776e65726044820152606401610673565b606880547fffffffffffffffffffffffff00000000000000000000000000000000000000001673ffffffffffffffffffffffffffffffffffffffff92909216919091179055565b60335473ffffffffffffffffffffffffffffffffffffffff163314610d1d576040517f08c379a000000000000000000000000000000000000000000000000000000000815260206004820181905260248201527f4f776e61626c653a2063616c6c6572206973206e6f7420746865206f776e65726044820152606401610673565b80610d84576040517f08c379a000000000000000000000000000000000000000000000000000000000815260206004820152601060248201527f444e503a207a65726f20616d6f756e74000000000000000000000000000000006044820152606401610673565b60ac55565b6069546040517f70a0823100000000000000000000000000000000000000000000000000000000815230600482015260009173ffffffffffffffffffffffffffffffffffffffff16906370a082319060240160206040518083038186803b158015610df357600080fd5b505afa158015610e07573d6000803e3d6000fd5b505050506040513d601f19601f82011682018060405250810190610e2b9190614ba9565b905090565b60335473ffffffffffffffffffffffffffffffffffffffff163314610eb1576040517f08c379a000000000000000000000000000000000000000000000000000000000815260206004820181905260248201527f4f776e61626c653a2063616c6c6572206973206e6f7420746865206f776e65726044820152606401610673565b6067546040517f095ea7b300000000000000000000000000000000000000000000000000000000815273ffffffffffffffffffffffffffffffffffffffff9182166004820152602481018390529083169063095ea7b390604401602060405180830381600087803b158015610f2557600080fd5b505af1158015610f39573d6000803e3d6000fd5b505050506040513d601f19601f82011682018060405250810190610a6d9190614b33565b606854604080517f18160ddd000000000000000000000000000000000000000000000000000000008152905160009273ffffffffffffffffffffffffffffffffffffffff16916318160ddd916004808301926020929190829003018186803b158015610fc857600080fd5b505afa158015610fdc573d6000803e3d6000fd5b505050506040513d601f19601f820116820180604052508101906110009190614ba9565b61100a5750600090565b610e2b6110156136f7565b606854604080517f18160ddd0000000000000000000000000000000000000000000000000000000081529051670de0b6b3a76400009273ffffffffffffffffffffffffffffffffffffffff16916318160ddd916004808301926020929190829003018186803b15801561108757600080fd5b505afa15801561109b573d6000803e3d6000fd5b505050506040513d601f19601f820116820180604052508101906110bf9190614ba9565b613b06565b606d5473ffffffffffffffffffffffffffffffffffffffff16331461116b576040517f08c379a000000000000000000000000000000000000000000000000000000000815260206004820152602660248201527f537472617465677953746f726167653a2063616c6c6572206973206e6f74207460448201527f72696767657200000000000000000000000000000000000000000000000000006064820152608401610673565b806111d2576040517f08c379a000000000000000000000000000000000000000000000000000000000815260206004820152601060248201527f444e503a207a65726f20616d6f756e74000000000000000000000000000000006044820152606401610673565b82156114d25760006111e582602d613ca0565b905082156112f057816111f6610d89565b101561125e576040517f08c379a000000000000000000000000000000000000000000000000000000000815260206004820152601960248201527f444e503a20496e73756666696369656e742072657365727665000000000000006044820152606401610673565b606954606a546112889173ffffffffffffffffffffffffffffffffffffffff908116911683613968565b61129181613cb8565b6112a96112a38264e8d4a51000614ce1565b84613db1565b50604080518281526020810183905284151591861515917f1c520f41c3a8e2aa318c749011558adfd2b9bf3a82c508c280944ba6424145af910160405180910390a36114cc565b606a546040517f70a0823100000000000000000000000000000000000000000000000000000000815230600482015282916113b09173ffffffffffffffffffffffffffffffffffffffff909116906370a08231906024015b60206040518083038186803b15801561136057600080fd5b505afa158015611374573d6000803e3d6000fd5b505050506040513d601f19601f820116820180604052508101906113989190614ba9565b6113a26000613a50565b670de0b6b3a7640000613b06565b10156113c3576113be613f2e565b6114cc565b606a546069546040517f70a082310000000000000000000000000000000000000000000000000000000081523060048201526114769273ffffffffffffffffffffffffffffffffffffffff908116921690849083906370a082319060240160206040518083038186803b15801561143957600080fd5b505afa15801561144d573d6000803e3d6000fd5b505050506040513d601f19601f820116820180604052508101906114719190614ba9565b614219565b6114808184613db1565b5061148a81614301565b604080518281526020810183905284151591861515917f1c520f41c3a8e2aa318c749011558adfd2b9bf3a82c508c280944ba6424145af910160405180910390a35b50505050565b610a6d613f2e565b6114e2614362565b6069805473ffffffffffffffffffffffffffffffffffffffff8b81167fffffffffffffffffffffffff00000000000000000000000000000000000000009283168117909355606780548c83169084168117909155606a80548c8416908516179055606b80548b8416908516179055607480548a841690851617905560758054898416908516179055606d8054928816928416929092179091556071805463ffffffff868116640100000000027fffffffffffffffffffffffffffffffffffffffffffffffff000000000000000090921690881617179055600060728190556070819055606e819055606f556065805464012c0001f47fffffffffffffffffff000000000000000000000000000000000000000000000090911617905560668054909216909155630bebc2006073556040517f095ea7b300000000000000000000000000000000000000000000000000000000815260048101919091527fffffffffffffffffffffffffffffffffffffffffffffffffffffffffffffffff602482015263095ea7b390604401602060405180830381600087803b15801561168757600080fd5b505af115801561169b573d6000803e3d6000fd5b505050506040513d601f19601f820116820180604052508101906116bf9190614b33565b50606a546067546040517f095ea7b300000000000000000000000000000000000000000000000000000000815273ffffffffffffffffffffffffffffffffffffffff91821660048201527fffffffffffffffffffffffffffffffffffffffffffffffffffffffffffffffff602482015291169063095ea7b390604401602060405180830381600087803b15801561175557600080fd5b505af1158015611769573d6000803e3d6000fd5b505050506040513d601f19601f8201168201806040525081019061178d9190614b33565b50505050505050505050565b60335473ffffffffffffffffffffffffffffffffffffffff16331461181a576040517f08c379a000000000000000000000000000000000000000000000000000000000815260206004820181905260248201527f4f776e61626c653a2063616c6c6572206973206e6f7420746865206f776e65726044820152606401610673565b606c5473ffffffffffffffffffffffffffffffffffffffff16611899576040517f08c379a000000000000000000000000000000000000000000000000000000000815260206004820152601d60248201527f537472617465677953746f726167653a207a65726f20616464726573730000006044820152606401610673565b606c546040517f70a0823100000000000000000000000000000000000000000000000000000000815230600482015273ffffffffffffffffffffffffffffffffffffffff8381169263a9059cbb9291169083906370a082319060240160206040518083038186803b15801561190d57600080fd5b505afa158015611921573d6000803e3d6000fd5b505050506040513d601f19601f820116820180604052508101906119459190614ba9565b6040517fffffffff0000000000000000000000000000000000000000000000000000000060e085901b16815273ffffffffffffffffffffffffffffffffffffffff90921660048301526024820152604401602060405180830381600087803b1580156119b057600080fd5b505af11580156119c4573d6000803e3d6000fd5b505050506040513d601f19601f820116820180604052508101906119e89190614b33565b610817576040517f08c379a000000000000000000000000000000000000000000000000000000000815260206004820152601a60248201527f444e503a204552433230207472616e73666572206661696c65640000000000006044820152606401610673565b60335473ffffffffffffffffffffffffffffffffffffffff163314611acf576040517f08c379a000000000000000000000000000000000000000000000000000000000815260206004820181905260248201527f4f776e61626c653a2063616c6c6572206973206e6f7420746865206f776e65726044820152606401610673565b611ad96000614487565b565b60335473ffffffffffffffffffffffffffffffffffffffff163314611b5c576040517f08c379a000000000000000000000000000000000000000000000000000000000815260206004820181905260248201527f4f776e61626c653a2063616c6c6572206973206e6f7420746865206f776e65726044820152606401610673565b606b80547fffffffffffffffffffffffff00000000000000000000000000000000000000001673ffffffffffffffffffffffffffffffffffffffff92909216919091179055565b60335473ffffffffffffffffffffffffffffffffffffffff163314611c24576040517f08c379a000000000000000000000000000000000000000000000000000000000815260206004820181905260248201527f4f776e61626c653a2063616c6c6572206973206e6f7420746865206f776e65726044820152606401610673565b73ffffffffffffffffffffffffffffffffffffffff8116611ca1576040517f08c379a000000000000000000000000000000000000000000000000000000000815260206004820152601d60248201527f537472617465677953746f726167653a207a65726f20616464726573730000006044820152606401610673565b606d80547fffffffffffffffffffffffff00000000000000000000000000000000000000001673ffffffffffffffffffffffffffffffffffffffff92909216919091179055565b600080607460009054906101000a900473ffffffffffffffffffffffffffffffffffffffff1673ffffffffffffffffffffffffffffffffffffffff1663f807cd226040518163ffffffff1660e01b815260040160206040518083038186803b158015611d5357600080fd5b505afa158015611d67573d6000803e3d6000fd5b505050506040513d601f19601f82011682018060405250810190611d8b91906148f3565b606b546040517f99e4a77100000000000000000000000000000000000000000000000000000000815273ffffffffffffffffffffffffffffffffffffffff9182166004820152610e1060248201529116906399e4a7719060440160206040518083038186803b158015611dfd57600080fd5b505afa158015611e11573d6000803e3d6000fd5b505050506040513d601f19601f82011682018060405250810190611e3591906148f3565b90506000611e42826144fe565b9050610aac8161452e565b606d5473ffffffffffffffffffffffffffffffffffffffff163314611ef4576040517f08c379a000000000000000000000000000000000000000000000000000000000815260206004820152602660248201527f537472617465677953746f726167653a2063616c6c6572206973206e6f74207460448201527f72696767657200000000000000000000000000000000000000000000000000006064820152608401610673565b61081781614301565b60335473ffffffffffffffffffffffffffffffffffffffff163314611f7e576040517f08c379a000000000000000000000000000000000000000000000000000000000815260206004820181905260248201527f4f776e61626c653a2063616c6c6572206973206e6f7420746865206f776e65726044820152606401610673565b80156121955760005b8251811015610a6d5760766000848381518110611fcd577f4e487b7100000000000000000000000000000000000000000000000000000000600052603260045260246000fd5b60209081029190910181015173ffffffffffffffffffffffffffffffffffffffff1682528101919091526040016000205460ff1615612068576040517f08c379a000000000000000000000000000000000000000000000000000000000815260206004820152601960248201527f444e503a205573657220616c726561647920616c6c6f776564000000000000006044820152606401610673565b600160af60008584815181106120a7577f4e487b7100000000000000000000000000000000000000000000000000000000600052603260045260246000fd5b602002602001015173ffffffffffffffffffffffffffffffffffffffff1673ffffffffffffffffffffffffffffffffffffffff16815260200190815260200160002060006101000a81548160ff021916908315150217905550828181518110612139577f4e487b7100000000000000000000000000000000000000000000000000000000600052603260045260246000fd5b602002602001015173ffffffffffffffffffffffffffffffffffffffff167fbc20f56c378e7e237a981b81d32ff91ed86109ee0373a910a83346edd53ad0de60405160405180910390a28061218d81614d35565b915050611f87565b60005b8251811015610a6d576001607660008584815181106121e0577f4e487b7100000000000000000000000000000000000000000000000000000000600052603260045260246000fd5b602002602001015173ffffffffffffffffffffffffffffffffffffffff1673ffffffffffffffffffffffffffffffffffffffff16815260200190815260200160002060006101000a81548160ff021916908315150217905550828181518110612272577f4e487b7100000000000000000000000000000000000000000000000000000000600052603260045260246000fd5b602002602001015173ffffffffffffffffffffffffffffffffffffffff167fbc20f56c378e7e237a981b81d32ff91ed86109ee0373a910a83346edd53ad0de60405160405180910390a2806122c681614d35565b915050612198565b60335473ffffffffffffffffffffffffffffffffffffffff16331461234f576040517f08c379a000000000000000000000000000000000000000000000000000000000815260206004820181905260248201527f4f776e61626c653a2063616c6c6572206973206e6f7420746865206f776e65726044820152606401610673565b806123b6576040517f08c379a000000000000000000000000000000000000000000000000000000000815260206004820152601060248201527f444e503a207a65726f20616d6f756e74000000000000000000000000000000006044820152606401610673565b607355565b60335473ffffffffffffffffffffffffffffffffffffffff16331461243c576040517f08c379a000000000000000000000000000000000000000000000000000000000815260206004820181905260248201527f4f776e61626c653a2063616c6c6572206973206e6f7420746865206f776e65726044820152606401610673565b73ffffffffffffffffffffffffffffffffffffffff81166124b9576040517f08c379a000000000000000000000000000000000000000000000000000000000815260206004820152601d60248201527f537472617465677953746f726167653a207a65726f20616464726573730000006044820152606401610673565b606c80547fffffffffffffffffffffffff00000000000000000000000000000000000000001673ffffffffffffffffffffffffffffffffffffffff92909216919091179055565b73ffffffffffffffffffffffffffffffffffffffff81166000908152607760205260408120546073546125339190614d1e565b92915050565b606d5473ffffffffffffffffffffffffffffffffffffffff1633146125e0576040517f08c379a000000000000000000000000000000000000000000000000000000000815260206004820152602660248201527f537472617465677953746f726167653a2063616c6c6572206973206e6f74207460448201527f72696767657200000000000000000000000000000000000000000000000000006064820152608401610673565b600060ab81905560ac556125f2613f2e565b6069546040517f70a0823100000000000000000000000000000000000000000000000000000000815230600482015273ffffffffffffffffffffffffffffffffffffffff9091169063a9059cbb90839083906370a082319060240160206040518083038186803b15801561266557600080fd5b505afa158015612679573d6000803e3d6000fd5b505050506040513d601f19601f8201168201806040525081019061269d9190614ba9565b6040517fffffffff0000000000000000000000000000000000000000000000000000000060e085901b16815273ffffffffffffffffffffffffffffffffffffffff90921660048301526024820152604401602060405180830381600087803b15801561270857600080fd5b505af115801561271c573d6000803e3d6000fd5b505050506040513d601f19601f820116820180604052508101906127409190614b33565b610817576040517f08c379a000000000000000000000000000000000000000000000000000000000815260206004820152601960248201527f444e503a2075736463207472616e73666572206661696c6564000000000000006044820152606401610673565b8061280d576040517f08c379a000000000000000000000000000000000000000000000000000000000815260206004820152601060248201527f444e503a207a65726f20616d6f756e74000000000000000000000000000000006044820152606401610673565b60685473ffffffffffffffffffffffffffffffffffffffff166370a08231336040517fffffffff0000000000000000000000000000000000000000000000000000000060e084901b16815273ffffffffffffffffffffffffffffffffffffffff909116600482015260240160206040518083038186803b15801561289057600080fd5b505afa1580156128a4573d6000803e3d6000fd5b505050506040513d601f19601f820116820180604052508101906128c89190614ba9565b811115612931576040517f08c379a000000000000000000000000000000000000000000000000000000000815260206004820152601860248201527f444e503a20696e73756666696369656e7420746f6b656e7300000000000000006044820152606401610673565b60006129a382620f4240606860009054906101000a900473ffffffffffffffffffffffffffffffffffffffff1673ffffffffffffffffffffffffffffffffffffffff166318160ddd6040518163ffffffff1660e01b815260040160206040518083038186803b15801561108757600080fd5b905060006129bc6129b26136f7565b83620f4240613b06565b90506129c66136f7565b811115612a55576040517f08c379a000000000000000000000000000000000000000000000000000000000815260206004820152602f60248201527f444e503a20747279696e6720746f207769746864726177206d6f72652074686160448201527f6e20706f6f6c20636f6e7461696e7300000000000000000000000000000000006064820152608401610673565b33600090815260776020526040902054811115612a815733600090815260776020526040812055612aa6565b3360009081526077602052604081208054839290612aa0908490614d1e565b90915550505b80612aaf610d89565b1015612ac657612ac6612ac0610d89565b82614550565b60ae548110612ad957600060ae55612af1565b8060ae6000828254612aeb9190614d1e565b90915550505b60685473ffffffffffffffffffffffffffffffffffffffff166323b872dd336040517fffffffff0000000000000000000000000000000000000000000000000000000060e084901b16815273ffffffffffffffffffffffffffffffffffffffff909116600482015230602482015260448101869052606401602060405180830381600087803b158015612b8357600080fd5b505af1158015612b97573d6000803e3d6000fd5b505050506040513d601f19601f82011682018060405250810190612bbb9190614b33565b612c21576040517f08c379a000000000000000000000000000000000000000000000000000000000815260206004820152601c60248201527f444e503a206463546f6b656e207472616e73666572206661696c6564000000006044820152606401610673565b6068546040517f42966c680000000000000000000000000000000000000000000000000000000081526004810185905273ffffffffffffffffffffffffffffffffffffffff909116906342966c6890602401602060405180830381600087803b158015612c8d57600080fd5b505af1158015612ca1573d6000803e3d6000fd5b505050506040513d601f19601f82011682018060405250810190612cc59190614b33565b5060695473ffffffffffffffffffffffffffffffffffffffff1663a9059cbb336040517fffffffff0000000000000000000000000000000000000000000000000000000060e084901b16815273ffffffffffffffffffffffffffffffffffffffff909116600482015260248101849052604401602060405180830381600087803b158015612d5257600080fd5b505af1158015612d66573d6000803e3d6000fd5b505050506040513d601f19601f82011682018060405250810190612d8a9190614b33565b612df0576040517f08c379a000000000000000000000000000000000000000000000000000000000815260206004820152601960248201527f444e503a2075736463207472616e73666572206661696c6564000000000000006044820152606401610673565b60405181815233907f2aa7fb97600ea702b454359fc3d02ae9fa48367e7155505d38cee896e5b5aae79060200160405180910390a2505050565b606d5473ffffffffffffffffffffffffffffffffffffffff163314612ed1576040517f08c379a000000000000000000000000000000000000000000000000000000000815260206004820152602660248201527f537472617465677953746f726167653a2063616c6c6572206973206e6f74207460448201527f72696767657200000000000000000000000000000000000000000000000000006064820152608401610673565b61081781613cb8565b606d5473ffffffffffffffffffffffffffffffffffffffff163314612f81576040517f08c379a000000000000000000000000000000000000000000000000000000000815260206004820152602660248201527f537472617465677953746f726167653a2063616c6c6572206973206e6f74207460448201527f72696767657200000000000000000000000000000000000000000000000000006064820152608401610673565b610a6d8282613db1565b60335473ffffffffffffffffffffffffffffffffffffffff16331461300c576040517f08c379a000000000000000000000000000000000000000000000000000000000815260206004820181905260248201527f4f776e61626c653a2063616c6c6572206973206e6f7420746865206f776e65726044820152606401610673565b73ffffffffffffffffffffffffffffffffffffffff81166130af576040517f08c379a000000000000000000000000000000000000000000000000000000000815260206004820152602660248201527f4f776e61626c653a206e6577206f776e657220697320746865207a65726f206160448201527f64647265737300000000000000000000000000000000000000000000000000006064820152608401610673565b61081781614487565b8061311f576040517f08c379a000000000000000000000000000000000000000000000000000000000815260206004820152601060248201527f444e503a207a65726f20616d6f756e74000000000000000000000000000000006044820152606401610673565b6073543360009081526077602052604090205461313d908390614c90565b11156131a5576040517f08c379a000000000000000000000000000000000000000000000000000000000815260206004820152601c60248201527f444e503a20457863656564696e67206465706f736974206c696d6974000000006044820152606401610673565b33600090815260af602052604090205460ff16156132795760ac548160ad546131ce9190614c90565b111561325c576040517f08c379a000000000000000000000000000000000000000000000000000000000815260206004820152602260248201527f444e503a20457863656564696e672044414f20746f74616c20706f6f6c4c696d60448201527f69740000000000000000000000000000000000000000000000000000000000006064820152608401610673565b8060ad600082825461326e9190614c90565b909155506133a99050565b3360009081526076602052604090205460ff16613318576040517f08c379a000000000000000000000000000000000000000000000000000000000815260206004820152602360248201527f444e503a20596f7520617265206e6f7420616c6c6f77656420746f206465706f60448201527f73697400000000000000000000000000000000000000000000000000000000006064820152608401610673565b60ab548160ae546133299190614c90565b1115613391576040517f08c379a000000000000000000000000000000000000000000000000000000000815260206004820152601e60248201527f444e503a20457863656564696e6720746f74616c20706f6f6c4c696d697400006044820152606401610673565b8060ae60008282546133a39190614c90565b90915550505b60006133b36136f7565b905060006133c68364e8d4a51000614ce1565b9050620186a08211156134925760006133e884670de0b6b3a764000085613b06565b905061348e81606860009054906101000a900473ffffffffffffffffffffffffffffffffffffffff1673ffffffffffffffffffffffffffffffffffffffff166318160ddd6040518163ffffffff1660e01b815260040160206040518083038186803b15801561345657600080fd5b505afa15801561346a573d6000803e3d6000fd5b505050506040513d601f19601f820116820180604052508101906113a29190614ba9565b9150505b33600090815260776020526040812080548592906134b1908490614c90565b909155505060695473ffffffffffffffffffffffffffffffffffffffff166323b872dd336040517fffffffff0000000000000000000000000000000000000000000000000000000060e084901b16815273ffffffffffffffffffffffffffffffffffffffff909116600482015230602482015260448101869052606401602060405180830381600087803b15801561354857600080fd5b505af115801561355c573d6000803e3d6000fd5b505050506040513d601f19601f820116820180604052508101906135809190614b33565b6135e6576040517f08c379a000000000000000000000000000000000000000000000000000000000815260206004820152601960248201527f444e503a2075736463207472616e73666572206661696c6564000000000000006044820152606401610673565b60685473ffffffffffffffffffffffffffffffffffffffff166340c10f19336040517fffffffff0000000000000000000000000000000000000000000000000000000060e084901b16815273ffffffffffffffffffffffffffffffffffffffff909116600482015260248101849052604401602060405180830381600087803b15801561367257600080fd5b505af1158015613686573d6000803e3d6000fd5b505050506040513d601f19601f820116820180604052508101906136aa9190614b33565b50336000818152607760209081526040918290205491518681528493917fadb9c7d50e628cfae085d3b964d71561992874591285cf3fceca443f1a5ed7cb910160405180910390a4505050565b606a546040517f70a082310000000000000000000000000000000000000000000000000000000081523060048201526000916137549173ffffffffffffffffffffffffffffffffffffffff909116906370a0823190602401611348565b61375c610d89565b6074546040517f5ae8095100000000000000000000000000000000000000000000000000000000815230600482015264e8d4a510009161380d9173ffffffffffffffffffffffffffffffffffffffff90911690635ae809519060240160206040518083038186803b1580156137d057600080fd5b505afa1580156137e4573d6000803e3d6000fd5b505050506040513d601f19601f820116820180604052508101906138089190614ba9565b61468b565b6138179190614ca8565b6138219190614c90565b610e2b9190614c90565b6074546040805160a081018252606b5473ffffffffffffffffffffffffffffffffffffffff90811682526066548116602083015291810184905260655460009383169262aa9a899291606083019161388b91630100000090041642614c90565b815260006020918201526040805160e085901b7fffffffff00000000000000000000000000000000000000000000000000000000168152835173ffffffffffffffffffffffffffffffffffffffff9081166004830152928401519092166024830152820151604482015260608201516064820152608090910151608482015260a4016040805180830381600087803b15801561392657600080fd5b505af115801561393a573d6000803e3d6000fd5b505050506040513d601f19601f8201168201806040525081019061395e9190614bfd565b5060019392505050565b6067546040805160e08101825273ffffffffffffffffffffffffffffffffffffffff8681168252858116602083015260655462ffffff168284015230606083015260808201859052600060a0830152606654811660c083015291517f04e45aaf00000000000000000000000000000000000000000000000000000000815291909216916304e45aaf916139fe9190600401614c20565b602060405180830381600087803b158015613a1857600080fd5b505af1158015613a2c573d6000803e3d6000fd5b505050506040513d601f19601f820116820180604052508101906114cc9190614ba9565b606b546040517f120806470000000000000000000000000000000000000000000000000000000081526004810183905260009164e8d4a510009173ffffffffffffffffffffffffffffffffffffffff9091169063120806479060240160206040518083038186803b158015613ac457600080fd5b505afa158015613ad8573d6000803e3d6000fd5b505050506040513d601f19601f82011682018060405250810190613afc9190614ba9565b6125339190614ca8565b600080807fffffffffffffffffffffffffffffffffffffffffffffffffffffffffffffffff8587098587029250828110838203039150508060001415613b5e5760008411613b5357600080fd5b508290049050613c99565b808411613b6a57600080fd5b6000848688098084039381119092039190506000613b8a86196001614c90565b8616958690049593849004936000819003046001019050613bab8184614ce1565b909317926000613bbc876003614ce1565b6002189050613bcb8188614ce1565b613bd6906002614d1e565b613be09082614ce1565b9050613bec8188614ce1565b613bf7906002614d1e565b613c019082614ce1565b9050613c0d8188614ce1565b613c18906002614d1e565b613c229082614ce1565b9050613c2e8188614ce1565b613c39906002614d1e565b613c439082614ce1565b9050613c4f8188614ce1565b613c5a906002614d1e565b613c649082614ce1565b9050613c708188614ce1565b613c7b906002614d1e565b613c859082614ce1565b9050613c918186614ce1565b955050505050505b9392505050565b60006064613cae8385614ce1565b613c999190614ca8565b80613d1f576040517f08c379a000000000000000000000000000000000000000000000000000000000815260206004820152601060248201527f444e503a207a65726f20616d6f756e74000000000000000000000000000000006044820152606401610673565b6075546069546040517f47e7ef2400000000000000000000000000000000000000000000000000000000815273ffffffffffffffffffffffffffffffffffffffff9182166004820152602481018490529116906347e7ef24906044015b600060405180830381600087803b158015613d9657600080fd5b505af1158015613daa573d6000803e3d6000fd5b5050505050565b6074546040805161010081018252606b5473ffffffffffffffffffffffffffffffffffffffff9081168252841515602083015260009282018390526060820186905260808201839052606554929381169263b6b1b6c3929160a0830191613e219163010000009091041642614c90565b815260665473ffffffffffffffffffffffffffffffffffffffff9081166020808401919091526000604093840152825160e086811b7fffffffff0000000000000000000000000000000000000000000000000000000016825285518416600483015291850151151560248201529284015115156044840152606084015160648401526080840151608484015260a084015160a484015260c084015190911660c4830152919091015160e4820152610104016040805180830381600087803b158015613eeb57600080fd5b505af1158015613eff573d6000803e3d6000fd5b505050506040513d601f19601f82011682018060405250810190613f239190614bfd565b506001949350505050565b613f38600061382b565b506075546040517fc3999444000000000000000000000000000000000000000000000000000000008152306004820152613fe19173ffffffffffffffffffffffffffffffffffffffff169063c39994449060240160206040518083038186803b158015613fa457600080fd5b505afa158015613fb8573d6000803e3d6000fd5b505050506040513d601f19601f82011682018060405250810190613fdc9190614ba9565b614301565b606a546040517f70a0823100000000000000000000000000000000000000000000000000000000815230600482015260009173ffffffffffffffffffffffffffffffffffffffff16906370a082319060240160206040518083038186803b15801561404b57600080fd5b505afa15801561405f573d6000803e3d6000fd5b505050506040513d601f19601f820116820180604052508101906140839190614ba9565b111561413a57606a546069546040517f70a0823100000000000000000000000000000000000000000000000000000000815230600482015261413a9273ffffffffffffffffffffffffffffffffffffffff90811692169082906370a082319060240160206040518083038186803b1580156140fd57600080fd5b505afa158015614111573d6000803e3d6000fd5b505050506040513d601f19601f820116820180604052508101906141359190614ba9565b613968565b6069546040517f70a0823100000000000000000000000000000000000000000000000000000000815230600482015260009182917f1c520f41c3a8e2aa318c749011558adfd2b9bf3a82c508c280944ba6424145af9173ffffffffffffffffffffffffffffffffffffffff16906370a082319060240160206040518083038186803b1580156141c857600080fd5b505afa1580156141dc573d6000803e3d6000fd5b505050506040513d601f19601f820116820180604052508101906142009190614ba9565b60408051918252600060208301520160405180910390a3565b6067546040805160e08101825273ffffffffffffffffffffffffffffffffffffffff8781168252868116602083015260655462ffffff16828401523060608301526080820186905260a08201859052606654811660c083015291517f5023b4df0000000000000000000000000000000000000000000000000000000081529190921691635023b4df916142af9190600401614c20565b602060405180830381600087803b1580156142c957600080fd5b505af11580156142dd573d6000803e3d6000fd5b505050506040513d601f19601f82011682018060405250810190613daa9190614ba9565b6075546069546040517ff3fef3a300000000000000000000000000000000000000000000000000000000815273ffffffffffffffffffffffffffffffffffffffff91821660048201526024810184905291169063f3fef3a390604401613d7c565b600054610100900460ff168061437b575060005460ff16155b614407576040517f08c379a000000000000000000000000000000000000000000000000000000000815260206004820152602e60248201527f496e697469616c697a61626c653a20636f6e747261637420697320616c72656160448201527f647920696e697469616c697a65640000000000000000000000000000000000006064820152608401610673565b600054610100900460ff1615801561444657600080547fffffffffffffffffffffffffffffffffffffffffffffffffffffffffffff0000166101011790555b61444e6146a7565b6144566147bb565b801561081757600080547fffffffffffffffffffffffffffffffffffffffffffffffffffffffffffff00ff16905550565b6033805473ffffffffffffffffffffffffffffffffffffffff8381167fffffffffffffffffffffffff0000000000000000000000000000000000000000831681179093556040519116919082907f8be0079c531659141344cd1fd0a4f28419497f9722a3daafe3b4186f6b6457e090600090a35050565b600061253373ffffffffffffffffffffffffffffffffffffffff8316806c01000000000000000000000000613b06565b600061253382670de0b6b3a76400006c01000000000000000000000000613b06565b600061455c8383614d1e565b9050600261456b600a83614ca8565b6145759083614c90565b61457f9190614ca8565b9050600061459a82670de0b6b3a76400006110bf6000613a50565b606a546040517f70a0823100000000000000000000000000000000000000000000000000000000815230600482015291925073ffffffffffffffffffffffffffffffffffffffff16906370a082319060240160206040518083038186803b15801561460457600080fd5b505afa158015614618573d6000803e3d6000fd5b505050506040513d601f19601f8201168201806040525081019061463c9190614ba9565b81111561464b576113be613f2e565b606a546069546146769173ffffffffffffffffffffffffffffffffffffffff90811691168484614219565b614681816000613db1565b506114cc82614301565b6000808212156146a35761469e82614d6e565b612533565b5090565b600054610100900460ff16806146c0575060005460ff16155b61474c576040517f08c379a000000000000000000000000000000000000000000000000000000000815260206004820152602e60248201527f496e697469616c697a61626c653a20636f6e747261637420697320616c72656160448201527f647920696e697469616c697a65640000000000000000000000000000000000006064820152608401610673565b600054610100900460ff1615801561445657600080547fffffffffffffffffffffffffffffffffffffffffffffffffffffffffffff000016610101179055801561081757600080547fffffffffffffffffffffffffffffffffffffffffffffffffffffffffffff00ff16905550565b600054610100900460ff16806147d4575060005460ff16155b614860576040517f08c379a000000000000000000000000000000000000000000000000000000000815260206004820152602e60248201527f496e697469616c697a61626c653a20636f6e747261637420697320616c72656160448201527f647920696e697469616c697a65640000000000000000000000000000000000006064820152608401610673565b600054610100900460ff1615801561489f57600080547fffffffffffffffffffffffffffffffffffffffffffffffffffffffffffff0000166101011790555b61445633614487565b80356148b381614e02565b919050565b80356148b381614e24565b803563ffffffff811681146148b357600080fd5b6000602082840312156148e8578081fd5b8135613c9981614e02565b600060208284031215614904578081fd5b8151613c9981614e02565b60008060008060008060008060006101208a8c03121561492d578485fd5b893561493881614e02565b985060208a013561494881614e02565b975060408a013561495881614e02565b965060608a013561496881614e02565b955060808a013561497881614e02565b945060a08a013561498881614e02565b935060c08a013561499881614e02565b92506149a660e08b016148c3565b91506149b56101008b016148c3565b90509295985092959850929598565b6000806000606084860312156149d8578283fd5b83356149e381614e02565b925060208401356149f381614e02565b929592945050506040919091013590565b60008060408385031215614a16578182fd5b8235614a2181614e02565b91506020830135614a3181614e24565b809150509250929050565b60008060408385031215614a4e578182fd5b823567ffffffffffffffff80821115614a65578384fd5b818501915085601f830112614a78578384fd5b8135602082821115614a8c57614a8c614dd3565b8160051b6040517fffffffffffffffffffffffffffffffffffffffffffffffffffffffffffffffe0603f83011681018181108682111715614acf57614acf614dd3565b604052838152828101945085830182870184018b1015614aed578889fd5b8896505b84871015614b1657614b02816148a8565b865260019690960195948301948301614af1565b509650614b2690508782016148b8565b9450505050509250929050565b600060208284031215614b44578081fd5b8151613c9981614e24565b600080600060608486031215614b63578283fd5b8335614b6e81614e24565b925060208401356149f381614e24565b60008060408385031215614b90578182fd5b8235614b9b81614e02565b946020939093013593505050565b600060208284031215614bba578081fd5b5051919050565b600060208284031215614bd2578081fd5b5035919050565b60008060408385031215614beb578182fd5b823591506020830135614a3181614e24565b60008060408385031215614c0f578182fd5b505080516020909101519092909150565b60e08101612533828473ffffffffffffffffffffffffffffffffffffffff80825116835280602083015116602084015262ffffff60408301511660408401528060608301511660608401526080820151608084015260a082015160a08401528060c08301511660c0840152505050565b60008219821115614ca357614ca3614da4565b500190565b600082614cdc577f4e487b710000000000000000000000000000000000000000000000000000000081526012600452602481fd5b500490565b6000817fffffffffffffffffffffffffffffffffffffffffffffffffffffffffffffffff0483118215151615614d1957614d19614da4565b500290565b600082821015614d3057614d30614da4565b500390565b60007fffffffffffffffffffffffffffffffffffffffffffffffffffffffffffffffff821415614d6757614d67614da4565b5060010190565b60007f8000000000000000000000000000000000000000000000000000000000000000821415614da057614da0614da4565b0390565b7f4e487b7100000000000000000000000000000000000000000000000000000000600052601160045260246000fd5b7f4e487b7100000000000000000000000000000000000000000000000000000000600052604160045260246000fd5b73ffffffffffffffffffffffffffffffffffffffff8116811461081757600080fd5b801515811461081757600080fdfea2646970667358221220f16f68a14e4f81a7564d3c154aefe82fc24359b4e528c47547a202af7411150c64736f6c63430008040033",
  "linkReferences": {},
  "deployedLinkReferences": {}
}