{
  "_format": "hh-sol-artifact-1",
  "contractName": "DcTokenFactory",
  "sourceName": "contracts/DcTokenFactory.sol",
  "abi": [
    {
      "inputs": [],
      "stateMutability": "nonpayable",
      "type": "constructor"
    },
    {
      "anonymous": false,
      "inputs": [
        {
          "indexed": true,
          "internalType": "address",
          "name": "previousOwner",
          "type": "address"
        },
        {
          "indexed": true,
          "internalType": "address",
          "name": "newOwner",
          "type": "address"
        }
      ],
      "name": "OwnershipTransferred",
      "type": "event"
    },
    {
      "inputs": [
        {
          "internalType": "address",
          "name": "_member",
          "type": "address"
        },
        {
          "internalType": "address",
          "name": "_dcToken",
          "type": "address"
        }
      ],
      "name": "addGovernanceToDcToken",
      "outputs": [],
      "stateMutability": "nonpayable",
      "type": "function"
    },
    {
      "inputs": [
        {
          "internalType": "uint256",
          "name": "_tokenId",
          "type": "uint256"
        }
      ],
      "name": "getDcToken",
      "outputs": [
        {
          "internalType": "address",
          "name": "",
          "type": "address"
        }
      ],
      "stateMutability": "view",
      "type": "function"
    },
    {
      "inputs": [
        {
          "internalType": "string",
          "name": "_name",
          "type": "string"
        },
        {
          "internalType": "string",
          "name": "_symbol",
          "type": "string"
        }
      ],
      "name": "initNewDcToken",
      "outputs": [
        {
          "internalType": "address",
          "name": "",
          "type": "address"
        }
      ],
      "stateMutability": "nonpayable",
      "type": "function"
    },
    {
      "inputs": [
        {
          "internalType": "address",
          "name": "dcToken",
          "type": "address"
        }
      ],
      "name": "isDcToken",
      "outputs": [
        {
          "internalType": "bool",
          "name": "",
          "type": "bool"
        }
      ],
      "stateMutability": "view",
      "type": "function"
    },
    {
      "inputs": [],
      "name": "owner",
      "outputs": [
        {
          "internalType": "address",
          "name": "",
          "type": "address"
        }
      ],
      "stateMutability": "view",
      "type": "function"
    },
    {
      "inputs": [
        {
          "internalType": "address",
          "name": "_dcToken",
          "type": "address"
        }
      ],
      "name": "pauseToDcToken",
      "outputs": [],
      "stateMutability": "nonpayable",
      "type": "function"
    },
    {
      "inputs": [
        {
          "internalType": "address",
          "name": "_member",
          "type": "address"
        },
        {
          "internalType": "address",
          "name": "_dcToken",
          "type": "address"
        }
      ],
      "name": "removeGovernanceToDcToken",
      "outputs": [],
      "stateMutability": "nonpayable",
      "type": "function"
    },
    {
      "inputs": [],
      "name": "renounceOwnership",
      "outputs": [],
      "stateMutability": "nonpayable",
      "type": "function"
    },
    {
      "inputs": [
        {
          "internalType": "address",
          "name": "newOwner",
          "type": "address"
        }
      ],
      "name": "transferOwnership",
      "outputs": [],
      "stateMutability": "nonpayable",
      "type": "function"
    },
    {
      "inputs": [
        {
          "internalType": "address",
          "name": "_dcToken",
          "type": "address"
        }
      ],
      "name": "unpauseToDcToken",
      "outputs": [],
      "stateMutability": "nonpayable",
      "type": "function"
    }
  ],
  "bytecode": "0x608060405234801561001057600080fd5b5061001a3361001f565b61006f565b600080546001600160a01b038381166001600160a01b0319831681178455604051919092169283917f8be0079c531659141344cd1fd0a4f28419497f9722a3daafe3b4186f6b6457e09190a35050565b612a2c8061007e6000396000f3fe60806040523480156200001157600080fd5b5060043610620000cd5760003560e01c80638da5cb5b116200007f578063aae227121162000062578063aae2271214620001d0578063df10770014620001e7578063f2fde38b14620001fe57600080fd5b80638da5cb5b1462000164578063a693c78f146200018357600080fd5b80635a3b5bb411620000b45780635a3b5bb4146200010257806370d9b42b1462000119578063715018a6146200015a57600080fd5b80631478d50214620000d2578063364c949d14620000eb575b600080fd5b620000e9620000e336600462000aa5565b62000215565b005b620000e9620000fc36600462000ac9565b62000301565b620000e96200011336600462000ac9565b6200040c565b620001306200012a36600462000b68565b620004e4565b60405173ffffffffffffffffffffffffffffffffffffffff90911681526020015b60405180910390f35b620000e962000549565b60005473ffffffffffffffffffffffffffffffffffffffff1662000130565b620001bf6200019436600462000aa5565b73ffffffffffffffffffffffffffffffffffffffff1660009081526002602052604090205460ff1690565b604051901515815260200162000151565b62000130620001e136600462000b00565b620005da565b620000e9620001f836600462000aa5565b62000749565b620000e96200020f36600462000aa5565b62000815565b60005473ffffffffffffffffffffffffffffffffffffffff1633146200029c576040517f08c379a000000000000000000000000000000000000000000000000000000000815260206004820181905260248201527f4f776e61626c653a2063616c6c6572206973206e6f7420746865206f776e657260448201526064015b60405180910390fd5b8073ffffffffffffffffffffffffffffffffffffffff16633f4ba83a6040518163ffffffff1660e01b8152600401600060405180830381600087803b158015620002e557600080fd5b505af1158015620002fa573d6000803e3d6000fd5b5050505050565b60005473ffffffffffffffffffffffffffffffffffffffff16331462000384576040517f08c379a000000000000000000000000000000000000000000000000000000000815260206004820181905260248201527f4f776e61626c653a2063616c6c6572206973206e6f7420746865206f776e6572604482015260640162000293565b6040517fc4c7f2f400000000000000000000000000000000000000000000000000000000815273ffffffffffffffffffffffffffffffffffffffff838116600483015282169063c4c7f2f4906024015b600060405180830381600087803b158015620003ef57600080fd5b505af115801562000404573d6000803e3d6000fd5b505050505050565b60005473ffffffffffffffffffffffffffffffffffffffff1633146200048f576040517f08c379a000000000000000000000000000000000000000000000000000000000815260206004820181905260248201527f4f776e61626c653a2063616c6c6572206973206e6f7420746865206f776e6572604482015260640162000293565b6040517f906e247900000000000000000000000000000000000000000000000000000000815273ffffffffffffffffffffffffffffffffffffffff838116600483015282169063906e247990602401620003d4565b60006001828154811062000521577f4e487b7100000000000000000000000000000000000000000000000000000000600052603260045260246000fd5b60009182526020909120015473ffffffffffffffffffffffffffffffffffffffff1692915050565b60005473ffffffffffffffffffffffffffffffffffffffff163314620005cc576040517f08c379a000000000000000000000000000000000000000000000000000000000815260206004820181905260248201527f4f776e61626c653a2063616c6c6572206973206e6f7420746865206f776e6572604482015260640162000293565b620005d860006200094b565b565b6000805473ffffffffffffffffffffffffffffffffffffffff1633146200065e576040517f08c379a000000000000000000000000000000000000000000000000000000000815260206004820181905260248201527f4f776e61626c653a2063616c6c6572206973206e6f7420746865206f776e6572604482015260640162000293565b600083836040516200067090620009c0565b6200067d92919062000bed565b604051809103906000f0801580156200069a573d6000803e3d6000fd5b5073ffffffffffffffffffffffffffffffffffffffff8116600081815260026020526040812080547fffffffffffffffffffffffffffffffffffffffffffffffffffffffffffffff001660019081179091558054808201825591527fb10e2d527612073b26eecdfd717e6a320cf44b4afac2b0732d9fcbe2b7fa0cf60180547fffffffffffffffffffffffff000000000000000000000000000000000000000016909117905591505092915050565b60005473ffffffffffffffffffffffffffffffffffffffff163314620007cc576040517f08c379a000000000000000000000000000000000000000000000000000000000815260206004820181905260248201527f4f776e61626c653a2063616c6c6572206973206e6f7420746865206f776e6572604482015260640162000293565b8073ffffffffffffffffffffffffffffffffffffffff16638456cb596040518163ffffffff1660e01b8152600401600060405180830381600087803b158015620002e557600080fd5b60005473ffffffffffffffffffffffffffffffffffffffff16331462000898576040517f08c379a000000000000000000000000000000000000000000000000000000000815260206004820181905260248201527f4f776e61626c653a2063616c6c6572206973206e6f7420746865206f776e6572604482015260640162000293565b73ffffffffffffffffffffffffffffffffffffffff81166200093d576040517f08c379a000000000000000000000000000000000000000000000000000000000815260206004820152602660248201527f4f776e61626c653a206e6577206f776e657220697320746865207a65726f206160448201527f6464726573730000000000000000000000000000000000000000000000000000606482015260840162000293565b62000948816200094b565b50565b6000805473ffffffffffffffffffffffffffffffffffffffff8381167fffffffffffffffffffffffff0000000000000000000000000000000000000000831681178455604051919092169283917f8be0079c531659141344cd1fd0a4f28419497f9722a3daafe3b4186f6b6457e09190a35050565b611da88062000c4f83390190565b803573ffffffffffffffffffffffffffffffffffffffff81168114620009f357600080fd5b919050565b600082601f83011262000a09578081fd5b813567ffffffffffffffff8082111562000a275762000a2762000c1f565b604051601f83017fffffffffffffffffffffffffffffffffffffffffffffffffffffffffffffffe0908116603f0116810190828211818310171562000a705762000a7062000c1f565b8160405283815286602085880101111562000a89578485fd5b8360208701602083013792830160200193909352509392505050565b60006020828403121562000ab7578081fd5b62000ac282620009ce565b9392505050565b6000806040838503121562000adc578081fd5b62000ae783620009ce565b915062000af760208401620009ce565b90509250929050565b6000806040838503121562000b13578182fd5b823567ffffffffffffffff8082111562000b2b578384fd5b62000b3986838701620009f8565b9350602085013591508082111562000b4f578283fd5b5062000b5e85828601620009f8565b9150509250929050565b60006020828403121562000b7a578081fd5b5035919050565b60008151808452815b8181101562000ba85760208185018101518683018201520162000b8a565b8181111562000bba5782602083870101525b50601f017fffffffffffffffffffffffffffffffffffffffffffffffffffffffffffffffe0169290920160200192915050565b60408152600062000c02604083018562000b81565b828103602084015262000c16818562000b81565b95945050505050565b7f4e487b7100000000000000000000000000000000000000000000000000000000600052604160045260246000fdfe60806040523480156200001157600080fd5b5060405162001da838038062001da8833981016040819052620000349162000244565b8151829082906200004d906003906020850190620000eb565b50805162000063906004906020840190620000eb565b505050620000806200007a6200009560201b60201c565b62000099565b50506005805460ff60a01b19169055620002fe565b3390565b600580546001600160a01b038381166001600160a01b0319831681179093556040519116919082907f8be0079c531659141344cd1fd0a4f28419497f9722a3daafe3b4186f6b6457e090600090a35050565b828054620000f990620002ab565b90600052602060002090601f0160209004810192826200011d576000855562000168565b82601f106200013857805160ff191683800117855562000168565b8280016001018555821562000168579182015b82811115620001685782518255916020019190600101906200014b565b50620001769291506200017a565b5090565b5b808211156200017657600081556001016200017b565b600082601f830112620001a2578081fd5b81516001600160401b0380821115620001bf57620001bf620002e8565b604051601f8301601f19908116603f01168101908282118183101715620001ea57620001ea620002e8565b8160405283815260209250868385880101111562000206578485fd5b8491505b838210156200022957858201830151818301840152908201906200020a565b838211156200023a57848385830101525b9695505050505050565b6000806040838503121562000257578182fd5b82516001600160401b03808211156200026e578384fd5b6200027c8683870162000191565b9350602085015191508082111562000292578283fd5b50620002a18582860162000191565b9150509250929050565b600181811c90821680620002c057607f821691505b60208210811415620002e257634e487b7160e01b600052602260045260246000fd5b50919050565b634e487b7160e01b600052604160045260246000fd5b611a9a806200030e6000396000f3fe608060405234801561001057600080fd5b506004361061018d5760003560e01c8063715018a6116100e3578063a457c2d71161008c578063dd62ed3e11610066578063dd62ed3e14610352578063dee1f0e414610398578063f2fde38b146103d157600080fd5b8063a457c2d714610319578063a9059cbb1461032c578063c4c7f2f41461033f57600080fd5b80638da5cb5b116100bd5780638da5cb5b146102d6578063906e2479146102fe57806395d89b411461031157600080fd5b8063715018a6146102a35780638426e6c1146102ab5780638456cb59146102ce57600080fd5b8063395093511161014557806342966c681161011f57806342966c68146102375780635c975abb1461024a57806370a082311461026d57600080fd5b806339509351146102075780633f4ba83a1461021a57806340c10f191461022457600080fd5b806318160ddd1161017657806318160ddd146101d357806323b872dd146101e5578063313ce567146101f857600080fd5b806306fdde0314610192578063095ea7b3146101b0575b600080fd5b61019a6103e4565b6040516101a79190611941565b60405180910390f35b6101c36101be366004611900565b610476565b60405190151581526020016101a7565b6002545b6040519081526020016101a7565b6101c36101f33660046118c5565b61048c565b604051601281526020016101a7565b6101c3610215366004611900565b610577565b6102226105c0565b005b6101c3610232366004611900565b61064b565b6101c3610245366004611929565b61077c565b60055474010000000000000000000000000000000000000000900460ff166101c3565b6101d761027b366004611872565b73ffffffffffffffffffffffffffffffffffffffff1660009081526020819052604090205490565b6102226108b6565b6101c36102b9366004611872565b60066020526000908152604090205460ff1681565b610222610941565b60055460405173ffffffffffffffffffffffffffffffffffffffff90911681526020016101a7565b61022261030c366004611872565b6109ca565b61019a610b14565b6101c3610327366004611900565b610b23565b6101c361033a366004611900565b610bfb565b61022261034d366004611872565b610c08565b6101d7610360366004611893565b73ffffffffffffffffffffffffffffffffffffffff918216600090815260016020908152604080832093909416825291909152205490565b6101c36103a6366004611872565b73ffffffffffffffffffffffffffffffffffffffff1660009081526006602052604090205460ff1690565b6102226103df366004611872565b610d55565b6060600380546103f3906119e1565b80601f016020809104026020016040519081016040528092919081815260200182805461041f906119e1565b801561046c5780601f106104415761010080835404028352916020019161046c565b820191906000526020600020905b81548152906001019060200180831161044f57829003601f168201915b5050505050905090565b6000610483338484610e85565b50600192915050565b6000610499848484611039565b73ffffffffffffffffffffffffffffffffffffffff841660009081526001602090815260408083203384529091529020548281101561055f576040517f08c379a000000000000000000000000000000000000000000000000000000000815260206004820152602860248201527f45524332303a207472616e7366657220616d6f756e742065786365656473206160448201527f6c6c6f77616e636500000000000000000000000000000000000000000000000060648201526084015b60405180910390fd5b61056c8533858403610e85565b506001949350505050565b33600081815260016020908152604080832073ffffffffffffffffffffffffffffffffffffffff8716845290915281205490916104839185906105bb9086906119b2565b610e85565b60055473ffffffffffffffffffffffffffffffffffffffff163314610641576040517f08c379a000000000000000000000000000000000000000000000000000000000815260206004820181905260248201527f4f776e61626c653a2063616c6c6572206973206e6f7420746865206f776e65726044820152606401610556565b6106496112ed565b565b60055460009074010000000000000000000000000000000000000000900460ff16156106d3576040517f08c379a000000000000000000000000000000000000000000000000000000000815260206004820152601060248201527f5061757361626c653a20706175736564000000000000000000000000000000006044820152606401610556565b3360009081526006602052604090205460ff16610772576040517f08c379a000000000000000000000000000000000000000000000000000000000815260206004820152602a60248201527f6463476f7665726e616e63653a2063616c6c6572206973206e6f74207468652060448201527f676f7665726e616e6365000000000000000000000000000000000000000000006064820152608401610556565b61048383836113e6565b60055460009074010000000000000000000000000000000000000000900460ff1615610804576040517f08c379a000000000000000000000000000000000000000000000000000000000815260206004820152601060248201527f5061757361626c653a20706175736564000000000000000000000000000000006044820152606401610556565b3360009081526006602052604090205460ff166108a3576040517f08c379a000000000000000000000000000000000000000000000000000000000815260206004820152602a60248201527f6463476f7665726e616e63653a2063616c6c6572206973206e6f74207468652060448201527f676f7665726e616e6365000000000000000000000000000000000000000000006064820152608401610556565b6108ad3383611506565b5060015b919050565b60055473ffffffffffffffffffffffffffffffffffffffff163314610937576040517f08c379a000000000000000000000000000000000000000000000000000000000815260206004820181905260248201527f4f776e61626c653a2063616c6c6572206973206e6f7420746865206f776e65726044820152606401610556565b61064960006116eb565b60055473ffffffffffffffffffffffffffffffffffffffff1633146109c2576040517f08c379a000000000000000000000000000000000000000000000000000000000815260206004820181905260248201527f4f776e61626c653a2063616c6c6572206973206e6f7420746865206f776e65726044820152606401610556565b610649611762565b60055473ffffffffffffffffffffffffffffffffffffffff163314610a4b576040517f08c379a000000000000000000000000000000000000000000000000000000000815260206004820181905260248201527f4f776e61626c653a2063616c6c6572206973206e6f7420746865206f776e65726044820152606401610556565b73ffffffffffffffffffffffffffffffffffffffff8116610ac8576040517f08c379a000000000000000000000000000000000000000000000000000000000815260206004820152601a60248201527f6463476f7665726e616e63653a207a65726f20616464726573730000000000006044820152606401610556565b73ffffffffffffffffffffffffffffffffffffffff16600090815260066020526040902080547fffffffffffffffffffffffffffffffffffffffffffffffffffffffffffffff00169055565b6060600480546103f3906119e1565b33600090815260016020908152604080832073ffffffffffffffffffffffffffffffffffffffff8616845290915281205482811015610be4576040517f08c379a000000000000000000000000000000000000000000000000000000000815260206004820152602560248201527f45524332303a2064656372656173656420616c6c6f77616e63652062656c6f7760448201527f207a65726f0000000000000000000000000000000000000000000000000000006064820152608401610556565b610bf13385858403610e85565b5060019392505050565b6000610483338484611039565b60055473ffffffffffffffffffffffffffffffffffffffff163314610c89576040517f08c379a000000000000000000000000000000000000000000000000000000000815260206004820181905260248201527f4f776e61626c653a2063616c6c6572206973206e6f7420746865206f776e65726044820152606401610556565b73ffffffffffffffffffffffffffffffffffffffff8116610d06576040517f08c379a000000000000000000000000000000000000000000000000000000000815260206004820152601a60248201527f6463476f7665726e616e63653a207a65726f20616464726573730000000000006044820152606401610556565b73ffffffffffffffffffffffffffffffffffffffff16600090815260066020526040902080547fffffffffffffffffffffffffffffffffffffffffffffffffffffffffffffff00166001179055565b60055473ffffffffffffffffffffffffffffffffffffffff163314610dd6576040517f08c379a000000000000000000000000000000000000000000000000000000000815260206004820181905260248201527f4f776e61626c653a2063616c6c6572206973206e6f7420746865206f776e65726044820152606401610556565b73ffffffffffffffffffffffffffffffffffffffff8116610e79576040517f08c379a000000000000000000000000000000000000000000000000000000000815260206004820152602660248201527f4f776e61626c653a206e6577206f776e657220697320746865207a65726f206160448201527f64647265737300000000000000000000000000000000000000000000000000006064820152608401610556565b610e82816116eb565b50565b73ffffffffffffffffffffffffffffffffffffffff8316610f27576040517f08c379a0000000000000000000000000000000000000000000000000000000008152602060048201526024808201527f45524332303a20617070726f76652066726f6d20746865207a65726f2061646460448201527f72657373000000000000000000000000000000000000000000000000000000006064820152608401610556565b73ffffffffffffffffffffffffffffffffffffffff8216610fca576040517f08c379a000000000000000000000000000000000000000000000000000000000815260206004820152602260248201527f45524332303a20617070726f766520746f20746865207a65726f20616464726560448201527f73730000000000000000000000000000000000000000000000000000000000006064820152608401610556565b73ffffffffffffffffffffffffffffffffffffffff83811660008181526001602090815260408083209487168084529482529182902085905590518481527f8c5be1e5ebec7d5bd14f71427d1e84f3dd0314c0f7b2291e5b200ac8c7c3b92591015b60405180910390a3505050565b73ffffffffffffffffffffffffffffffffffffffff83166110dc576040517f08c379a000000000000000000000000000000000000000000000000000000000815260206004820152602560248201527f45524332303a207472616e736665722066726f6d20746865207a65726f20616460448201527f64726573730000000000000000000000000000000000000000000000000000006064820152608401610556565b73ffffffffffffffffffffffffffffffffffffffff821661117f576040517f08c379a000000000000000000000000000000000000000000000000000000000815260206004820152602360248201527f45524332303a207472616e7366657220746f20746865207a65726f206164647260448201527f65737300000000000000000000000000000000000000000000000000000000006064820152608401610556565b73ffffffffffffffffffffffffffffffffffffffff831660009081526020819052604090205481811015611235576040517f08c379a000000000000000000000000000000000000000000000000000000000815260206004820152602660248201527f45524332303a207472616e7366657220616d6f756e742065786365656473206260448201527f616c616e636500000000000000000000000000000000000000000000000000006064820152608401610556565b73ffffffffffffffffffffffffffffffffffffffff8085166000908152602081905260408082208585039055918516815290812080548492906112799084906119b2565b925050819055508273ffffffffffffffffffffffffffffffffffffffff168473ffffffffffffffffffffffffffffffffffffffff167fddf252ad1be2c89b69c2b068fc378daa952ba7f163c4a11628f55a4df523b3ef846040516112df91815260200190565b60405180910390a350505050565b60055474010000000000000000000000000000000000000000900460ff16611371576040517f08c379a000000000000000000000000000000000000000000000000000000000815260206004820152601460248201527f5061757361626c653a206e6f74207061757365640000000000000000000000006044820152606401610556565b600580547fffffffffffffffffffffff00ffffffffffffffffffffffffffffffffffffffff1690557f5db9ee0a495bf2e6ff9c91a7834c1ba4fdd244a5e8aa4e537bd38aeae4b073aa335b60405173ffffffffffffffffffffffffffffffffffffffff909116815260200160405180910390a1565b73ffffffffffffffffffffffffffffffffffffffff8216611463576040517f08c379a000000000000000000000000000000000000000000000000000000000815260206004820152601f60248201527f45524332303a206d696e7420746f20746865207a65726f2061646472657373006044820152606401610556565b806002600082825461147591906119b2565b909155505073ffffffffffffffffffffffffffffffffffffffff8216600090815260208190526040812080548392906114af9084906119b2565b909155505060405181815273ffffffffffffffffffffffffffffffffffffffff8316906000907fddf252ad1be2c89b69c2b068fc378daa952ba7f163c4a11628f55a4df523b3ef9060200160405180910390a35050565b73ffffffffffffffffffffffffffffffffffffffff82166115a9576040517f08c379a000000000000000000000000000000000000000000000000000000000815260206004820152602160248201527f45524332303a206275726e2066726f6d20746865207a65726f2061646472657360448201527f73000000000000000000000000000000000000000000000000000000000000006064820152608401610556565b73ffffffffffffffffffffffffffffffffffffffff82166000908152602081905260409020548181101561165f576040517f08c379a000000000000000000000000000000000000000000000000000000000815260206004820152602260248201527f45524332303a206275726e20616d6f756e7420657863656564732062616c616e60448201527f63650000000000000000000000000000000000000000000000000000000000006064820152608401610556565b73ffffffffffffffffffffffffffffffffffffffff8316600090815260208190526040812083830390556002805484929061169b9084906119ca565b909155505060405182815260009073ffffffffffffffffffffffffffffffffffffffff8516907fddf252ad1be2c89b69c2b068fc378daa952ba7f163c4a11628f55a4df523b3ef9060200161102c565b6005805473ffffffffffffffffffffffffffffffffffffffff8381167fffffffffffffffffffffffff0000000000000000000000000000000000000000831681179093556040519116919082907f8be0079c531659141344cd1fd0a4f28419497f9722a3daafe3b4186f6b6457e090600090a35050565b60055474010000000000000000000000000000000000000000900460ff16156117e7576040517f08c379a000000000000000000000000000000000000000000000000000000000815260206004820152601060248201527f5061757361626c653a20706175736564000000000000000000000000000000006044820152606401610556565b600580547fffffffffffffffffffffff00ffffffffffffffffffffffffffffffffffffffff16740100000000000000000000000000000000000000001790557f62e78cea01bee320cd4e420270b5ea74000d11b0c9f74754ebdbfc544b05a2586113bc3390565b803573ffffffffffffffffffffffffffffffffffffffff811681146108b157600080fd5b600060208284031215611883578081fd5b61188c8261184e565b9392505050565b600080604083850312156118a5578081fd5b6118ae8361184e565b91506118bc6020840161184e565b90509250929050565b6000806000606084860312156118d9578081fd5b6118e28461184e565b92506118f06020850161184e565b9150604084013590509250925092565b60008060408385031215611912578182fd5b61191b8361184e565b946020939093013593505050565b60006020828403121561193a578081fd5b5035919050565b6000602080835283518082850152825b8181101561196d57858101830151858201604001528201611951565b8181111561197e5783604083870101525b50601f017fffffffffffffffffffffffffffffffffffffffffffffffffffffffffffffffe016929092016040019392505050565b600082198211156119c5576119c5611a35565b500190565b6000828210156119dc576119dc611a35565b500390565b600181811c908216806119f557607f821691505b60208210811415611a2f577f4e487b7100000000000000000000000000000000000000000000000000000000600052602260045260246000fd5b50919050565b7f4e487b7100000000000000000000000000000000000000000000000000000000600052601160045260246000fdfea2646970667358221220d8b98952c10337892185754116c53a93bd19a4daeaa0a5b1bfdf6b737e05ee8464736f6c63430008040033a2646970667358221220ad5406908159ab5fa6be2db4aa05075f17e3c116efe762a48c5d059dbeeeec9b64736f6c63430008040033",
  "linkReferences": {},
  "deployedLinkReferences": {}
}