{
  "_format": "hh-sol-artifact-1",
  "contractName": "DeltaNeutralPerp",
  "sourceName": "contracts/strategy/DeltaNeutralPerp.sol",
  "abi": [
    {
      "inputs": [
        {
          "internalType": "address",
          "name": "_usdc",
          "type": "address"
        },
        {
          "internalType": "contract IPriceFeed",
          "name": "_chainLink",
          "type": "address"
        },
        {
          "internalType": "contract IdcTokenFactory",
          "name": "_dcTokenFactory",
          "type": "address"
        },
        {
          "internalType": "contract IdcToken",
          "name": "_dcToken",
          "type": "address"
        },
        {
          "internalType": "contract ISwapRouter",
          "name": "_router",
          "type": "address"
        },
        {
          "internalType": "address",
          "name": "_wETH",
          "type": "address"
        },
        {
          "internalType": "contract IClearingHouse",
          "name": "_perp",
          "type": "address"
        },
        {
          "internalType": "contract IVault",
          "name": "_perpVault",
          "type": "address"
        },
        {
          "internalType": "address",
          "name": "_perpBaseToken",
          "type": "address"
        },
        {
          "internalType": "address",
          "name": "_triggerServer",
          "type": "address"
        }
      ],
      "stateMutability": "nonpayable",
      "type": "constructor"
    },
    {
      "anonymous": false,
      "inputs": [
        {
          "indexed": true,
          "internalType": "address",
          "name": "previousOwner",
          "type": "address"
        },
        {
          "indexed": true,
          "internalType": "address",
          "name": "newOwner",
          "type": "address"
        }
      ],
      "name": "OwnershipTransferred",
      "type": "event"
    },
    {
      "anonymous": false,
      "inputs": [
        {
          "indexed": false,
          "internalType": "address",
          "name": "account",
          "type": "address"
        }
      ],
      "name": "Paused",
      "type": "event"
    },
    {
      "anonymous": false,
      "inputs": [
        {
          "indexed": false,
          "internalType": "address",
          "name": "account",
          "type": "address"
        }
      ],
      "name": "Unpaused",
      "type": "event"
    },
    {
      "inputs": [
        {
          "internalType": "address",
          "name": "_member",
          "type": "address"
        }
      ],
      "name": "addGovernance",
      "outputs": [],
      "stateMutability": "nonpayable",
      "type": "function"
    },
    {
      "inputs": [
        {
          "internalType": "bool",
          "name": "operationType",
          "type": "bool"
        },
        {
          "internalType": "bool",
          "name": "positionType",
          "type": "bool"
        },
        {
          "internalType": "uint256",
          "name": "amount",
          "type": "uint256"
        }
      ],
      "name": "adjustPosition",
      "outputs": [],
      "stateMutability": "nonpayable",
      "type": "function"
    },
    {
      "inputs": [
        {
          "internalType": "uint256",
          "name": "amount",
          "type": "uint256"
        }
      ],
      "name": "buyETH",
      "outputs": [],
      "stateMutability": "nonpayable",
      "type": "function"
    },
    {
      "inputs": [],
      "name": "chainLinkPriceFeed",
      "outputs": [
        {
          "internalType": "contract IPriceFeed",
          "name": "",
          "type": "address"
        }
      ],
      "stateMutability": "view",
      "type": "function"
    },
    {
      "inputs": [],
      "name": "dcToken",
      "outputs": [
        {
          "internalType": "contract IdcToken",
          "name": "",
          "type": "address"
        }
      ],
      "stateMutability": "view",
      "type": "function"
    },
    {
      "inputs": [],
      "name": "dcTokenFactory",
      "outputs": [
        {
          "internalType": "contract IdcTokenFactory",
          "name": "",
          "type": "address"
        }
      ],
      "stateMutability": "view",
      "type": "function"
    },
    {
      "inputs": [
        {
          "internalType": "uint256",
          "name": "amount",
          "type": "uint256"
        }
      ],
      "name": "depositToVault",
      "outputs": [],
      "stateMutability": "nonpayable",
      "type": "function"
    },
    {
      "inputs": [
        {
          "internalType": "uint256",
          "name": "amount",
          "type": "uint256"
        }
      ],
      "name": "depositUSDC",
      "outputs": [],
      "stateMutability": "nonpayable",
      "type": "function"
    },
    {
      "inputs": [
        {
          "internalType": "contract IERC20",
          "name": "_token",
          "type": "address"
        }
      ],
      "name": "emergencyWithdraw",
      "outputs": [],
      "stateMutability": "nonpayable",
      "type": "function"
    },
    {
      "inputs": [],
      "name": "escrow",
      "outputs": [
        {
          "internalType": "address",
          "name": "",
          "type": "address"
        }
      ],
      "stateMutability": "view",
      "type": "function"
    },
    {
      "inputs": [],
      "name": "ethValue",
      "outputs": [
        {
          "internalType": "uint256",
          "name": "",
          "type": "uint256"
        }
      ],
      "stateMutability": "view",
      "type": "function"
    },
    {
      "inputs": [
        {
          "internalType": "uint256",
          "name": "amount",
          "type": "uint256"
        }
      ],
      "name": "getPoolShare",
      "outputs": [
        {
          "internalType": "uint256",
          "name": "",
          "type": "uint256"
        }
      ],
      "stateMutability": "view",
      "type": "function"
    },
    {
      "inputs": [],
      "name": "getTotalUSDCValue",
      "outputs": [
        {
          "internalType": "uint256",
          "name": "",
          "type": "uint256"
        }
      ],
      "stateMutability": "view",
      "type": "function"
    },
    {
      "inputs": [
        {
          "internalType": "address",
          "name": "",
          "type": "address"
        }
      ],
      "name": "governance",
      "outputs": [
        {
          "internalType": "bool",
          "name": "",
          "type": "bool"
        }
      ],
      "stateMutability": "view",
      "type": "function"
    },
    {
      "inputs": [
        {
          "internalType": "address",
          "name": "governance_",
          "type": "address"
        }
      ],
      "name": "isGovernance",
      "outputs": [
        {
          "internalType": "bool",
          "name": "",
          "type": "bool"
        }
      ],
      "stateMutability": "view",
      "type": "function"
    },
    {
      "inputs": [],
      "name": "owner",
      "outputs": [
        {
          "internalType": "address",
          "name": "",
          "type": "address"
        }
      ],
      "stateMutability": "view",
      "type": "function"
    },
    {
      "inputs": [],
      "name": "paused",
      "outputs": [
        {
          "internalType": "bool",
          "name": "",
          "type": "bool"
        }
      ],
      "stateMutability": "view",
      "type": "function"
    },
    {
      "inputs": [],
      "name": "performanceFee",
      "outputs": [
        {
          "internalType": "uint256",
          "name": "",
          "type": "uint256"
        }
      ],
      "stateMutability": "view",
      "type": "function"
    },
    {
      "inputs": [],
      "name": "perp",
      "outputs": [
        {
          "internalType": "contract IClearingHouse",
          "name": "",
          "type": "address"
        }
      ],
      "stateMutability": "view",
      "type": "function"
    },
    {
      "inputs": [],
      "name": "perpBaseToken",
      "outputs": [
        {
          "internalType": "address",
          "name": "",
          "type": "address"
        }
      ],
      "stateMutability": "view",
      "type": "function"
    },
    {
      "inputs": [],
      "name": "perpVault",
      "outputs": [
        {
          "internalType": "contract IVault",
          "name": "",
          "type": "address"
        }
      ],
      "stateMutability": "view",
      "type": "function"
    },
    {
      "inputs": [
        {
          "internalType": "address",
          "name": "_member",
          "type": "address"
        }
      ],
      "name": "removeGovernance",
      "outputs": [],
      "stateMutability": "nonpayable",
      "type": "function"
    },
    {
      "inputs": [],
      "name": "renounceOwnership",
      "outputs": [],
      "stateMutability": "nonpayable",
      "type": "function"
    },
    {
      "inputs": [],
      "name": "reserveValue",
      "outputs": [
        {
          "internalType": "uint256",
          "name": "",
          "type": "uint256"
        }
      ],
      "stateMutability": "view",
      "type": "function"
    },
    {
      "inputs": [],
      "name": "router",
      "outputs": [
        {
          "internalType": "contract ISwapRouter",
          "name": "",
          "type": "address"
        }
      ],
      "stateMutability": "view",
      "type": "function"
    },
    {
      "inputs": [
        {
          "internalType": "address",
          "name": "_newEscrow",
          "type": "address"
        }
      ],
      "name": "setEscrow",
      "outputs": [],
      "stateMutability": "nonpayable",
      "type": "function"
    },
    {
      "inputs": [
        {
          "internalType": "uint256",
          "name": "ethValue_",
          "type": "uint256"
        },
        {
          "internalType": "uint256",
          "name": "shortValue_",
          "type": "uint256"
        },
        {
          "internalType": "uint256",
          "name": "reserveValue_",
          "type": "uint256"
        }
      ],
      "name": "setProportionsToPosition",
      "outputs": [],
      "stateMutability": "nonpayable",
      "type": "function"
    },
    {
      "inputs": [
        {
          "internalType": "address",
          "name": "_newTriggerServer",
          "type": "address"
        }
      ],
      "name": "setTriggerServer",
      "outputs": [],
      "stateMutability": "nonpayable",
      "type": "function"
    },
    {
      "inputs": [],
      "name": "shortValue",
      "outputs": [
        {
          "internalType": "uint256",
          "name": "",
          "type": "uint256"
        }
      ],
      "stateMutability": "view",
      "type": "function"
    },
    {
      "inputs": [],
      "name": "totalUSDValue",
      "outputs": [
        {
          "internalType": "uint256",
          "name": "",
          "type": "uint256"
        }
      ],
      "stateMutability": "view",
      "type": "function"
    },
    {
      "inputs": [
        {
          "internalType": "address",
          "name": "newOwner",
          "type": "address"
        }
      ],
      "name": "transferOwnership",
      "outputs": [],
      "stateMutability": "nonpayable",
      "type": "function"
    },
    {
      "inputs": [],
      "name": "triggerServer",
      "outputs": [
        {
          "internalType": "address",
          "name": "",
          "type": "address"
        }
      ],
      "stateMutability": "view",
      "type": "function"
    },
    {
      "inputs": [],
      "name": "usdToken",
      "outputs": [
        {
          "internalType": "address",
          "name": "",
          "type": "address"
        }
      ],
      "stateMutability": "view",
      "type": "function"
    },
    {
      "inputs": [],
      "name": "wETH",
      "outputs": [
        {
          "internalType": "address",
          "name": "",
          "type": "address"
        }
      ],
      "stateMutability": "view",
      "type": "function"
    },
    {
      "inputs": [
        {
          "internalType": "uint256",
          "name": "amount",
          "type": "uint256"
        }
      ],
      "name": "withdrawUSDC",
      "outputs": [],
      "stateMutability": "nonpayable",
      "type": "function"
    },
    {
      "inputs": [
        {
          "internalType": "uint256",
          "name": "amount",
          "type": "uint256"
        }
      ],
      "name": "withdrawUSDCtoPerpVault",
      "outputs": [],
      "stateMutability": "nonpayable",
      "type": "function"
    }
  ],
  "bytecode": "0x60806040523480156200001157600080fd5b5060405162002989380380620029898339810160408190526200003491620003ca565b6200003f33620002f6565b6000805460ff60a01b191690556200005b602d80600a62000346565b600480546001600160a01b03199081166001600160a01b038d81169190911783556002805483168d8316179055600c805483168c8316908117909155600b805484168c84169081179091556003805485168c85161790556005805485168b8516179055600e805485168a8516179055600f8054851689851617905560108054851688851617905560068054909416928616929092179092556009805460ff1916905560405163a693c78f60e01b8152928301529063a693c78f9060240160206040518083038186803b1580156200013157600080fd5b505afa15801562000146573d6000803e3d6000fd5b505050506040513d601f19601f820116820180604052508101906200016c9190620004b7565b620001c85760405162461bcd60e51b815260206004820152602160248201527f44656c74614e65757472616c506572703a20696e76616c6964206463546f6b656044820152603760f91b60648201526084015b60405180910390fd5b6004805460035460405163095ea7b360e01b81526001600160a01b03918216938101939093526000196024840152169063095ea7b390604401602060405180830381600087803b1580156200021c57600080fd5b505af115801562000231573d6000803e3d6000fd5b505050506040513d601f19601f82011682018060405250810190620002579190620004b7565b5060055460035460405163095ea7b360e01b81526001600160a01b039182166004820152600019602482015291169063095ea7b390604401602060405180830381600087803b158015620002aa57600080fd5b505af1158015620002bf573d6000803e3d6000fd5b505050506040513d601f19601f82011682018060405250810190620002e59190620004b7565b50505050505050505050506200051e565b600080546001600160a01b038381166001600160a01b0319831681178455604051919092169283917f8be0079c531659141344cd1fd0a4f28419497f9722a3daafe3b4186f6b6457e09190a35050565b80620003538385620004e0565b6200035f9190620004e0565b606414620003bc5760405162461bcd60e51b8152602060048201526024808201527f44656c74614e65757472616c506572703a20696e76616c696420706172616d656044820152637465727360e01b6064820152608401620001bf565b601192909255601255601355565b6000806000806000806000806000806101408b8d031215620003ea578586fd5b8a51620003f78162000505565b60208c0151909a506200040a8162000505565b60408c01519099506200041d8162000505565b60608c0151909850620004308162000505565b60808c0151909750620004438162000505565b60a08c0151909650620004568162000505565b60c08c0151909550620004698162000505565b60e08c01519094506200047c8162000505565b6101008c0151909350620004908162000505565b6101208c0151909250620004a48162000505565b809150509295989b9194979a5092959850565b600060208284031215620004c9578081fd5b81518015158114620004d9578182fd5b9392505050565b600082198211156200050057634e487b7160e01b81526011600452602481fd5b500190565b6001600160a01b03811681146200051b57600080fd5b50565b61245b806200052e6000396000f3fe608060405234801561001057600080fd5b506004361061025c5760003560e01c8063c10c354611610145578063efbf8185116100bd578063f86306111161008c578063f897a22b11610071578063f897a22b14610598578063fd241f99146105b8578063fe9d087e146105d857600080fd5b8063f863061114610570578063f887ea401461057857600080fd5b8063efbf818514610517578063f24286211461052a578063f2fde38b1461054a578063f688bcfb1461055d57600080fd5b8063dee1f0e411610114578063dfb79e32116100f9578063dfb79e32146104b7578063e2beb8f1146104d7578063e2fdcc17146104f757600080fd5b8063dee1f0e41461045e578063df23a9d21461049757600080fd5b8063c10c35461461041c578063c48dfed01461042f578063c4c7f2f414610438578063db81f99b1461044b57600080fd5b80637c3882a0116101d85780638da5cb5b116101a7578063b04622961161018c578063b0462296146103e0578063b3a16872146103f3578063bfa4c00c146103fc57600080fd5b80638da5cb5b146103af578063906e2479146103cd57600080fd5b80637c3882a0146103675780638426e6c1146103705780638778878214610393578063878e71021461039c57600080fd5b80636273010d1161022f5780636ff1c9bc116102145780636ff1c9bc1461032c578063715018a61461033f578063736434951461034757600080fd5b80636273010d146102d45780636b83c5011461031957600080fd5b80630162e72014610261578063025b11491461027d57806339e1ee9b146102925780635c975abb146102a5575b600080fd5b61026a60125481565b6040519081526020015b60405180910390f35b61029061028b36600461230d565b6105eb565b005b6102906102a03660046122d2565b610681565b60005474010000000000000000000000000000000000000000900460ff165b6040519015158152602001610274565b600f546102f49073ffffffffffffffffffffffffffffffffffffffff1681565b60405173ffffffffffffffffffffffffffffffffffffffff9091168152602001610274565b61029061032736600461227a565b6107be565b61029061033a366004612242565b6108ea565b610290610b63565b6010546102f49073ffffffffffffffffffffffffffffffffffffffff1681565b61026a60085481565b6102c461037e366004612242565b60016020526000908152604090205460ff1681565b61026a60075481565b6102906103aa366004612242565b610bf0565b60005473ffffffffffffffffffffffffffffffffffffffff166102f4565b6102906103db366004612242565b610d35565b6102906103ee3660046122d2565b610e7f565b61026a60135481565b600e546102f49073ffffffffffffffffffffffffffffffffffffffff1681565b61029061042a366004612242565b6110c9565b61026a60115481565b610290610446366004612242565b61120e565b6102906104593660046122d2565b61135e565b6102c461046c366004612242565b73ffffffffffffffffffffffffffffffffffffffff1660009081526001602052604090205460ff1690565b600b546102f49073ffffffffffffffffffffffffffffffffffffffff1681565b6002546102f49073ffffffffffffffffffffffffffffffffffffffff1681565b600c546102f49073ffffffffffffffffffffffffffffffffffffffff1681565b600d546102f49073ffffffffffffffffffffffffffffffffffffffff1681565b6102906105253660046122d2565b61151d565b6005546102f49073ffffffffffffffffffffffffffffffffffffffff1681565b610290610558366004612242565b6115ff565b61029061056b3660046122d2565b61172c565b61026a6118e5565b6003546102f49073ffffffffffffffffffffffffffffffffffffffff1681565b6004546102f49073ffffffffffffffffffffffffffffffffffffffff1681565b6006546102f49073ffffffffffffffffffffffffffffffffffffffff1681565b61026a6105e63660046122d2565b611bb7565b60005473ffffffffffffffffffffffffffffffffffffffff163314610671576040517f08c379a000000000000000000000000000000000000000000000000000000000815260206004820181905260248201527f4f776e61626c653a2063616c6c6572206973206e6f7420746865206f776e657260448201526064015b60405180910390fd5b61067c838383611c7f565b505050565b60065473ffffffffffffffffffffffffffffffffffffffff163314610728576040517f08c379a000000000000000000000000000000000000000000000000000000000815260206004820152602f60248201527f6463537472617465677953746f726167653a2063616c6c6572206973206e6f7460448201527f2074686520676f7665726e616e636500000000000000000000000000000000006064820152608401610668565b600f54600480546040517ff3fef3a300000000000000000000000000000000000000000000000000000000815273ffffffffffffffffffffffffffffffffffffffff91821692810192909252602482018490529091169063f3fef3a3906044015b600060405180830381600087803b1580156107a357600080fd5b505af11580156107b7573d6000803e3d6000fd5b5050505050565b60065473ffffffffffffffffffffffffffffffffffffffff163314610865576040517f08c379a000000000000000000000000000000000000000000000000000000000815260206004820152602f60248201527f6463537472617465677953746f726167653a2063616c6c6572206973206e6f7460448201527f2074686520676f7665726e616e636500000000000000000000000000000000006064820152608401610668565b806108cc576040517f08c379a000000000000000000000000000000000000000000000000000000000815260206004820152601d60248201527f44656c74614e65757472616c506572703a207a65726f20616d6f756e740000006044820152606401610668565b82156108e2576108dc8183611d30565b50505050565b6108dc611e9e565b60065473ffffffffffffffffffffffffffffffffffffffff163314610991576040517f08c379a000000000000000000000000000000000000000000000000000000000815260206004820152602f60248201527f6463537472617465677953746f726167653a2063616c6c6572206973206e6f7460448201527f2074686520676f7665726e616e636500000000000000000000000000000000006064820152608401610668565b600d5473ffffffffffffffffffffffffffffffffffffffff16610a10576040517f08c379a000000000000000000000000000000000000000000000000000000000815260206004820152601f60248201527f6463537472617465677953746f726167653a207a65726f2061646472657373006044820152606401610668565b600d546040517f70a0823100000000000000000000000000000000000000000000000000000000815230600482015273ffffffffffffffffffffffffffffffffffffffff8381169263a9059cbb9291169083906370a082319060240160206040518083038186803b158015610a8457600080fd5b505afa158015610a98573d6000803e3d6000fd5b505050506040513d601f19601f82011682018060405250810190610abc91906122ba565b6040517fffffffff0000000000000000000000000000000000000000000000000000000060e085901b16815273ffffffffffffffffffffffffffffffffffffffff90921660048301526024820152604401602060405180830381600087803b158015610b2757600080fd5b505af1158015610b3b573d6000803e3d6000fd5b505050506040513d601f19601f82011682018060405250810190610b5f919061225e565b5050565b60005473ffffffffffffffffffffffffffffffffffffffff163314610be4576040517f08c379a000000000000000000000000000000000000000000000000000000000815260206004820181905260248201527f4f776e61626c653a2063616c6c6572206973206e6f7420746865206f776e65726044820152606401610668565b610bee6000611fcf565b565b60005473ffffffffffffffffffffffffffffffffffffffff163314610c71576040517f08c379a000000000000000000000000000000000000000000000000000000000815260206004820181905260248201527f4f776e61626c653a2063616c6c6572206973206e6f7420746865206f776e65726044820152606401610668565b73ffffffffffffffffffffffffffffffffffffffff8116610cee576040517f08c379a000000000000000000000000000000000000000000000000000000000815260206004820152601f60248201527f6463537472617465677953746f726167653a207a65726f2061646472657373006044820152606401610668565b600680547fffffffffffffffffffffffff00000000000000000000000000000000000000001673ffffffffffffffffffffffffffffffffffffffff92909216919091179055565b60005473ffffffffffffffffffffffffffffffffffffffff163314610db6576040517f08c379a000000000000000000000000000000000000000000000000000000000815260206004820181905260248201527f4f776e61626c653a2063616c6c6572206973206e6f7420746865206f776e65726044820152606401610668565b73ffffffffffffffffffffffffffffffffffffffff8116610e33576040517f08c379a000000000000000000000000000000000000000000000000000000000815260206004820152601a60248201527f6463476f7665726e616e63653a207a65726f20616464726573730000000000006044820152606401610668565b73ffffffffffffffffffffffffffffffffffffffff16600090815260016020526040902080547fffffffffffffffffffffffffffffffffffffffffffffffffffffffffffffff00169055565b60065473ffffffffffffffffffffffffffffffffffffffff163314610f26576040517f08c379a000000000000000000000000000000000000000000000000000000000815260206004820152602f60248201527f6463537472617465677953746f726167653a2063616c6c6572206973206e6f7460448201527f2074686520676f7665726e616e636500000000000000000000000000000000006064820152608401610668565b80610f8d576040517f08c379a000000000000000000000000000000000000000000000000000000000815260206004820152601d60248201527f44656c74614e65757472616c506572703a207a65726f20616d6f756e740000006044820152606401610668565b60048054600f546040517f095ea7b300000000000000000000000000000000000000000000000000000000815273ffffffffffffffffffffffffffffffffffffffff9182169381019390935260248301849052169063095ea7b390604401602060405180830381600087803b15801561100557600080fd5b505af1158015611019573d6000803e3d6000fd5b505050506040513d601f19601f8201168201806040525081019061103d919061225e565b50600f5460045460125473ffffffffffffffffffffffffffffffffffffffff928316926347e7ef24921690611073908590612044565b6040517fffffffff0000000000000000000000000000000000000000000000000000000060e085901b16815273ffffffffffffffffffffffffffffffffffffffff90921660048301526024820152604401610789565b60005473ffffffffffffffffffffffffffffffffffffffff16331461114a576040517f08c379a000000000000000000000000000000000000000000000000000000000815260206004820181905260248201527f4f776e61626c653a2063616c6c6572206973206e6f7420746865206f776e65726044820152606401610668565b73ffffffffffffffffffffffffffffffffffffffff81166111c7576040517f08c379a000000000000000000000000000000000000000000000000000000000815260206004820152601f60248201527f6463537472617465677953746f726167653a207a65726f2061646472657373006044820152606401610668565b600d80547fffffffffffffffffffffffff00000000000000000000000000000000000000001673ffffffffffffffffffffffffffffffffffffffff92909216919091179055565b60005473ffffffffffffffffffffffffffffffffffffffff16331461128f576040517f08c379a000000000000000000000000000000000000000000000000000000000815260206004820181905260248201527f4f776e61626c653a2063616c6c6572206973206e6f7420746865206f776e65726044820152606401610668565b73ffffffffffffffffffffffffffffffffffffffff811661130c576040517f08c379a000000000000000000000000000000000000000000000000000000000815260206004820152601a60248201527f6463476f7665726e616e63653a207a65726f20616464726573730000000000006044820152606401610668565b73ffffffffffffffffffffffffffffffffffffffff16600090815260016020819052604090912080547fffffffffffffffffffffffffffffffffffffffffffffffffffffffffffffff00169091179055565b806113c5576040517f08c379a000000000000000000000000000000000000000000000000000000000815260206004820152601d60248201527f44656c74614e65757472616c506572703a207a65726f20616d6f756e740000006044820152606401610668565b600b546040517f42966c680000000000000000000000000000000000000000000000000000000081526004810183905260009173ffffffffffffffffffffffffffffffffffffffff16906342966c6890602401602060405180830381600087803b15801561143257600080fd5b505af1158015611446573d6000803e3d6000fd5b505050506040513d601f19601f8201168201806040525081019061146a919061225e565b50600480546040517f23b872dd00000000000000000000000000000000000000000000000000000000815233928101929092523060248301526044820183905273ffffffffffffffffffffffffffffffffffffffff16906323b872dd906064015b602060405180830381600087803b1580156114e557600080fd5b505af11580156114f9573d6000803e3d6000fd5b505050506040513d601f19601f8201168201806040525081019061067c919061225e565b60065473ffffffffffffffffffffffffffffffffffffffff1633146115c4576040517f08c379a000000000000000000000000000000000000000000000000000000000815260206004820152602f60248201527f6463537472617465677953746f726167653a2063616c6c6572206973206e6f7460448201527f2074686520676f7665726e616e636500000000000000000000000000000000006064820152608401610668565b6004546005546011546115fc9273ffffffffffffffffffffffffffffffffffffffff9081169216906115f7908590612044565b612063565b50565b60005473ffffffffffffffffffffffffffffffffffffffff163314611680576040517f08c379a000000000000000000000000000000000000000000000000000000000815260206004820181905260248201527f4f776e61626c653a2063616c6c6572206973206e6f7420746865206f776e65726044820152606401610668565b73ffffffffffffffffffffffffffffffffffffffff8116611723576040517f08c379a000000000000000000000000000000000000000000000000000000000815260206004820152602660248201527f4f776e61626c653a206e6577206f776e657220697320746865207a65726f206160448201527f64647265737300000000000000000000000000000000000000000000000000006064820152608401610668565b6115fc81611fcf565b80611793576040517f08c379a000000000000000000000000000000000000000000000000000000000815260206004820152601d60248201527f44656c74614e65757472616c506572703a207a65726f20616d6f756e740000006044820152606401610668565b60045473ffffffffffffffffffffffffffffffffffffffff166323b872dd336040517fffffffff0000000000000000000000000000000000000000000000000000000060e084901b16815273ffffffffffffffffffffffffffffffffffffffff909116600482015230602482015260448101849052606401602060405180830381600087803b15801561182557600080fd5b505af1158015611839573d6000803e3d6000fd5b505050506040513d601f19601f8201168201806040525081019061185d919061225e565b506000606461186b83611bb7565b6118736118e5565b61187d9190612389565b6118879190612350565b600b546040517f40c10f190000000000000000000000000000000000000000000000000000000081523360048201526024810183905291925073ffffffffffffffffffffffffffffffffffffffff16906340c10f19906044016114cb565b6000670de0b6b3a7640000600260009054906101000a900473ffffffffffffffffffffffffffffffffffffffff1673ffffffffffffffffffffffffffffffffffffffff166398d5fdca6040518163ffffffff1660e01b815260040160206040518083038186803b15801561195857600080fd5b505afa15801561196c573d6000803e3d6000fd5b505050506040513d601f19601f8201168201806040525081019061199091906122ba565b6005546040517f70a0823100000000000000000000000000000000000000000000000000000000815230600482015273ffffffffffffffffffffffffffffffffffffffff909116906370a082319060240160206040518083038186803b1580156119f957600080fd5b505afa158015611a0d573d6000803e3d6000fd5b505050506040513d601f19601f82011682018060405250810190611a3191906122ba565b611a3b9190612389565b611a459190612350565b600480546040517f70a08231000000000000000000000000000000000000000000000000000000008152309281019290925273ffffffffffffffffffffffffffffffffffffffff16906370a082319060240160206040518083038186803b158015611aaf57600080fd5b505afa158015611ac3573d6000803e3d6000fd5b505050506040513d601f19601f82011682018060405250810190611ae791906122ba565b611af69064e8d4a51000612389565b600e546040517f5ae80951000000000000000000000000000000000000000000000000000000008152306004820152611b9e9173ffffffffffffffffffffffffffffffffffffffff1690635ae809519060240160206040518083038186803b158015611b6157600080fd5b505afa158015611b75573d6000803e3d6000fd5b505050506040513d601f19601f82011682018060405250810190611b9991906122ba565b6121d2565b611ba89190612338565b611bb29190612338565b905090565b600081600b60009054906101000a900473ffffffffffffffffffffffffffffffffffffffff1673ffffffffffffffffffffffffffffffffffffffff166318160ddd6040518163ffffffff1660e01b815260040160206040518083038186803b158015611c2257600080fd5b505afa158015611c36573d6000803e3d6000fd5b505050506040513d601f19601f82011682018060405250810190611c5a91906122ba565b611c649190612338565b611c6f836064612389565b611c799190612350565b92915050565b80611c8a8385612338565b611c949190612338565b606414611d22576040517f08c379a0000000000000000000000000000000000000000000000000000000008152602060048201526024808201527f44656c74614e65757472616c506572703a20696e76616c696420706172616d6560448201527f74657273000000000000000000000000000000000000000000000000000000006064820152608401610668565b601192909255601255601355565b600e54604080516101008101825260105473ffffffffffffffffffffffffffffffffffffffff90811682528415156020830152600092820183905260608201869052608082018390529192919091169063b6b1b6c39060a08101611d9642610384612338565b815260006020808301829052604092830191909152815160e085811b7fffffffff00000000000000000000000000000000000000000000000000000000168252845173ffffffffffffffffffffffffffffffffffffffff908116600484015292850151151560248301529284015115156044820152606084015160648201526080840151608482015260a084015160a482015260c084015190911660c482015291015160e4820152610104016040805180830381600087803b158015611e5b57600080fd5b505af1158015611e6f573d6000803e3d6000fd5b505050506040513d601f19601f82011682018060405250810190611e9391906122ea565b506001949350505050565b600e546040805160a08101825260105473ffffffffffffffffffffffffffffffffffffffff90811682526000602083018190529282018390529192919091169062aa9a899060608101611ef342610384612338565b815260006020918201526040805160e085901b7fffffffff00000000000000000000000000000000000000000000000000000000168152835173ffffffffffffffffffffffffffffffffffffffff9081166004830152928401519092166024830152820151604482015260608201516064820152608090910151608482015260a4016040805180830381600087803b158015611f8e57600080fd5b505af1158015611fa2573d6000803e3d6000fd5b505050506040513d601f19601f82011682018060405250810190611fc691906122ea565b50506001905090565b6000805473ffffffffffffffffffffffffffffffffffffffff8381167fffffffffffffffffffffffff0000000000000000000000000000000000000000831681178455604051919092169283917f8be0079c531659141344cd1fd0a4f28419497f9722a3daafe3b4186f6b6457e09190a35050565b600060646120528385612389565b61205c9190612350565b9392505050565b600354604080516101008101825273ffffffffffffffffffffffffffffffffffffffff8681168252858116602083015261271092820192909252600b548216606082015291169063414bf38990608081016120c042610384612338565b815260200184815260200160008152602001600073ffffffffffffffffffffffffffffffffffffffff168152506040518263ffffffff1660e01b8152600401612180919060006101008201905073ffffffffffffffffffffffffffffffffffffffff80845116835280602085015116602084015262ffffff60408501511660408401528060608501511660608401526080840151608084015260a084015160a084015260c084015160c08401528060e08501511660e08401525092915050565b602060405180830381600087803b15801561219a57600080fd5b505af11580156121ae573d6000803e3d6000fd5b505050506040513d601f19601f820116820180604052508101906108dc91906122ba565b60008082121561223e576040517f08c379a000000000000000000000000000000000000000000000000000000000815260206004820181905260248201527f53616665436173743a2076616c7565206d75737420626520706f7369746976656044820152606401610668565b5090565b600060208284031215612253578081fd5b813561205c816123f5565b60006020828403121561226f578081fd5b815161205c81612417565b60008060006060848603121561228e578182fd5b833561229981612417565b925060208401356122a981612417565b929592945050506040919091013590565b6000602082840312156122cb578081fd5b5051919050565b6000602082840312156122e3578081fd5b5035919050565b600080604083850312156122fc578182fd5b505080516020909101519092909150565b600080600060608486031215612321578283fd5b505081359360208301359350604090920135919050565b6000821982111561234b5761234b6123c6565b500190565b600082612384577f4e487b710000000000000000000000000000000000000000000000000000000081526012600452602481fd5b500490565b6000817fffffffffffffffffffffffffffffffffffffffffffffffffffffffffffffffff04831182151516156123c1576123c16123c6565b500290565b7f4e487b7100000000000000000000000000000000000000000000000000000000600052601160045260246000fd5b73ffffffffffffffffffffffffffffffffffffffff811681146115fc57600080fd5b80151581146115fc57600080fdfea264697066735822122024809f5d6ca094f1f46f9192318c7422ac450deec1c9533ccb14d3cdc5a5323264736f6c63430008040033",
  "linkReferences": {},
  "deployedLinkReferences": {}
}