{
  "_format": "hh-sol-artifact-1",
  "contractName": "DeltaNeutralPerp",
  "sourceName": "contracts/strategy/DeltaNeutralPerp.sol",
  "abi": [
    {
      "anonymous": false,
      "inputs": [
        {
          "indexed": true,
          "internalType": "address",
          "name": "user",
          "type": "address"
        }
      ],
      "name": "DepositAllowed",
      "type": "event"
    },
    {
      "anonymous": false,
      "inputs": [
        {
          "indexed": true,
          "internalType": "address",
          "name": "previousOwner",
          "type": "address"
        },
        {
          "indexed": true,
          "internalType": "address",
          "name": "newOwner",
          "type": "address"
        }
      ],
      "name": "OwnershipTransferred",
      "type": "event"
    },
    {
      "anonymous": false,
      "inputs": [
        {
          "indexed": true,
          "internalType": "address",
          "name": "triger",
          "type": "address"
        },
        {
          "indexed": false,
          "internalType": "uint256",
          "name": "pfAmount",
          "type": "uint256"
        }
      ],
      "name": "PFCharged",
      "type": "event"
    },
    {
      "anonymous": false,
      "inputs": [
        {
          "indexed": true,
          "internalType": "bool",
          "name": "operationType",
          "type": "bool"
        },
        {
          "indexed": true,
          "internalType": "bool",
          "name": "positionType",
          "type": "bool"
        },
        {
          "indexed": false,
          "internalType": "uint256",
          "name": "usdcValue",
          "type": "uint256"
        },
        {
          "indexed": false,
          "internalType": "uint256",
          "name": "wValue",
          "type": "uint256"
        }
      ],
      "name": "PositionAdjusted",
      "type": "event"
    },
    {
      "anonymous": false,
      "inputs": [
        {
          "indexed": true,
          "internalType": "address",
          "name": "user",
          "type": "address"
        },
        {
          "indexed": false,
          "internalType": "uint256",
          "name": "usdcAmount",
          "type": "uint256"
        },
        {
          "indexed": true,
          "internalType": "uint256",
          "name": "depositAmount",
          "type": "uint256"
        },
        {
          "indexed": true,
          "internalType": "uint256",
          "name": "dcMintingAmount",
          "type": "uint256"
        }
      ],
      "name": "USDCDeposited",
      "type": "event"
    },
    {
      "anonymous": false,
      "inputs": [
        {
          "indexed": true,
          "internalType": "address",
          "name": "user",
          "type": "address"
        },
        {
          "indexed": false,
          "internalType": "uint256",
          "name": "usdcAmount",
          "type": "uint256"
        }
      ],
      "name": "USDCWithdrawn",
      "type": "event"
    },
    {
      "inputs": [
        {
          "internalType": "bool",
          "name": "operationType",
          "type": "bool"
        },
        {
          "internalType": "bool",
          "name": "positionType",
          "type": "bool"
        },
        {
          "internalType": "uint256",
          "name": "amount",
          "type": "uint256"
        }
      ],
      "name": "adjustPosition",
      "outputs": [],
      "stateMutability": "nonpayable",
      "type": "function"
    },
    {
      "inputs": [
        {
          "internalType": "address",
          "name": "user",
          "type": "address"
        }
      ],
      "name": "allowDeposit",
      "outputs": [],
      "stateMutability": "nonpayable",
      "type": "function"
    },
    {
      "inputs": [
        {
          "internalType": "contract IERC20",
          "name": "token",
          "type": "address"
        },
        {
          "internalType": "uint256",
          "name": "amount",
          "type": "uint256"
        }
      ],
      "name": "approveTokenForUni",
      "outputs": [],
      "stateMutability": "nonpayable",
      "type": "function"
    },
    {
      "inputs": [
        {
          "internalType": "address",
          "name": "user",
          "type": "address"
        }
      ],
      "name": "availableDeposit",
      "outputs": [
        {
          "internalType": "uint256",
          "name": "",
          "type": "uint256"
        }
      ],
      "stateMutability": "view",
      "type": "function"
    },
    {
      "inputs": [],
      "name": "chargePf",
      "outputs": [],
      "stateMutability": "nonpayable",
      "type": "function"
    },
    {
      "inputs": [
        {
          "internalType": "address",
          "name": "user",
          "type": "address"
        }
      ],
      "name": "denyDeposit",
      "outputs": [],
      "stateMutability": "nonpayable",
      "type": "function"
    },
    {
      "inputs": [
        {
          "internalType": "uint256",
          "name": "amount",
          "type": "uint256"
        }
      ],
      "name": "depositUSDC",
      "outputs": [],
      "stateMutability": "nonpayable",
      "type": "function"
    },
    {
      "inputs": [
        {
          "internalType": "address",
          "name": "tokenA",
          "type": "address"
        },
        {
          "internalType": "address",
          "name": "tokenB",
          "type": "address"
        },
        {
          "internalType": "uint256",
          "name": "amount",
          "type": "uint256"
        }
      ],
      "name": "directBuyTokensToUniswap",
      "outputs": [],
      "stateMutability": "nonpayable",
      "type": "function"
    },
    {
      "inputs": [
        {
          "internalType": "uint256",
          "name": "amount",
          "type": "uint256"
        }
      ],
      "name": "directClosePosition",
      "outputs": [],
      "stateMutability": "nonpayable",
      "type": "function"
    },
    {
      "inputs": [
        {
          "internalType": "uint256",
          "name": "amount",
          "type": "uint256"
        }
      ],
      "name": "directDepositToVault",
      "outputs": [],
      "stateMutability": "nonpayable",
      "type": "function"
    },
    {
      "inputs": [
        {
          "internalType": "uint256",
          "name": "amount",
          "type": "uint256"
        },
        {
          "internalType": "bool",
          "name": "position",
          "type": "bool"
        }
      ],
      "name": "directOpenPosition",
      "outputs": [],
      "stateMutability": "nonpayable",
      "type": "function"
    },
    {
      "inputs": [
        {
          "internalType": "uint256",
          "name": "amount",
          "type": "uint256"
        }
      ],
      "name": "directWithdrawUSDCtoPerpVault",
      "outputs": [],
      "stateMutability": "nonpayable",
      "type": "function"
    },
    {
      "inputs": [
        {
          "internalType": "contract IERC20",
          "name": "_token",
          "type": "address"
        }
      ],
      "name": "emergencyWithdraw",
      "outputs": [],
      "stateMutability": "nonpayable",
      "type": "function"
    },
    {
      "inputs": [],
      "name": "escrowServer",
      "outputs": [
        {
          "internalType": "address",
          "name": "",
          "type": "address"
        }
      ],
      "stateMutability": "view",
      "type": "function"
    },
    {
      "inputs": [],
      "name": "getCurrentFundingRate",
      "outputs": [
        {
          "internalType": "uint256",
          "name": "",
          "type": "uint256"
        }
      ],
      "stateMutability": "view",
      "type": "function"
    },
    {
      "inputs": [],
      "name": "getDCTokenPrice",
      "outputs": [
        {
          "internalType": "uint256",
          "name": "",
          "type": "uint256"
        }
      ],
      "stateMutability": "view",
      "type": "function"
    },
    {
      "inputs": [],
      "name": "getDailyMarketTwap",
      "outputs": [
        {
          "internalType": "uint256",
          "name": "",
          "type": "uint256"
        }
      ],
      "stateMutability": "view",
      "type": "function"
    },
    {
      "inputs": [],
      "name": "getReserve",
      "outputs": [
        {
          "internalType": "uint256",
          "name": "",
          "type": "uint256"
        }
      ],
      "stateMutability": "view",
      "type": "function"
    },
    {
      "inputs": [],
      "name": "getTotalUSDCValue",
      "outputs": [
        {
          "internalType": "uint256",
          "name": "",
          "type": "uint256"
        }
      ],
      "stateMutability": "view",
      "type": "function"
    },
    {
      "inputs": [
        {
          "internalType": "address",
          "name": "_usdc",
          "type": "address"
        },
        {
          "internalType": "address",
          "name": "router_",
          "type": "address"
        },
        {
          "internalType": "address",
          "name": "wToken_",
          "type": "address"
        },
        {
          "internalType": "address",
          "name": "vToken_",
          "type": "address"
        },
        {
          "internalType": "contract IClearingHouse",
          "name": "perp_",
          "type": "address"
        },
        {
          "internalType": "contract IVault",
          "name": "perpVault_",
          "type": "address"
        },
        {
          "internalType": "address",
          "name": "_triggerServer",
          "type": "address"
        },
        {
          "internalType": "uint32",
          "name": "performanceFee_",
          "type": "uint32"
        },
        {
          "internalType": "uint32",
          "name": "subscriptionFee_",
          "type": "uint32"
        }
      ],
      "name": "initialize",
      "outputs": [],
      "stateMutability": "nonpayable",
      "type": "function"
    },
    {
      "inputs": [
        {
          "internalType": "address",
          "name": "user",
          "type": "address"
        }
      ],
      "name": "isAllowedToDeposit",
      "outputs": [
        {
          "internalType": "bool",
          "name": "",
          "type": "bool"
        }
      ],
      "stateMutability": "view",
      "type": "function"
    },
    {
      "inputs": [],
      "name": "maxPoolSizeLimit",
      "outputs": [
        {
          "internalType": "uint256",
          "name": "",
          "type": "uint256"
        }
      ],
      "stateMutability": "view",
      "type": "function"
    },
    {
      "inputs": [],
      "name": "owner",
      "outputs": [
        {
          "internalType": "address",
          "name": "",
          "type": "address"
        }
      ],
      "stateMutability": "view",
      "type": "function"
    },
    {
      "inputs": [],
      "name": "renounceOwnership",
      "outputs": [],
      "stateMutability": "nonpayable",
      "type": "function"
    },
    {
      "inputs": [
        {
          "internalType": "address",
          "name": "dcToken_",
          "type": "address"
        }
      ],
      "name": "setDcToken",
      "outputs": [],
      "stateMutability": "nonpayable",
      "type": "function"
    },
    {
      "inputs": [
        {
          "internalType": "address",
          "name": "_newEscrow",
          "type": "address"
        }
      ],
      "name": "setEscrow",
      "outputs": [],
      "stateMutability": "nonpayable",
      "type": "function"
    },
    {
      "inputs": [
        {
          "internalType": "uint256",
          "name": "_newLimit",
          "type": "uint256"
        }
      ],
      "name": "setMaxPoolSizeLimit",
      "outputs": [],
      "stateMutability": "nonpayable",
      "type": "function"
    },
    {
      "inputs": [
        {
          "internalType": "address",
          "name": "_newTriggerServer",
          "type": "address"
        }
      ],
      "name": "setTriggerServer",
      "outputs": [],
      "stateMutability": "nonpayable",
      "type": "function"
    },
    {
      "inputs": [
        {
          "internalType": "address",
          "name": "newVToken",
          "type": "address"
        }
      ],
      "name": "setVToken",
      "outputs": [],
      "stateMutability": "nonpayable",
      "type": "function"
    },
    {
      "inputs": [
        {
          "internalType": "address",
          "name": "newOwner",
          "type": "address"
        }
      ],
      "name": "transferOwnership",
      "outputs": [],
      "stateMutability": "nonpayable",
      "type": "function"
    },
    {
      "inputs": [],
      "name": "triggerServer",
      "outputs": [
        {
          "internalType": "address",
          "name": "",
          "type": "address"
        }
      ],
      "stateMutability": "view",
      "type": "function"
    },
    {
      "inputs": [
        {
          "internalType": "uint256",
          "name": "amount",
          "type": "uint256"
        }
      ],
      "name": "withdrawUSDC",
      "outputs": [],
      "stateMutability": "nonpayable",
      "type": "function"
    }
  ],
  "bytecode": "0x608060405234801561001057600080fd5b5061463d806100206000396000f3fe608060405234801561001057600080fd5b50600436106101f05760003560e01c80637e5fc1fc1161010f578063db81f99b116100a2578063f2fde38b11610071578063f2fde38b14610445578063f688bcfb14610458578063f86306111461046b578063fd241f991461047357600080fd5b8063db81f99b14610404578063e1721e2014610417578063e83e15121461042a578063e8960e691461043d57600080fd5b80639b7776fe116100de5780639b7776fe146103b8578063a272f921146103cb578063c10c3546146103de578063caea2d86146103f157600080fd5b80637e5fc1fc1461036c578063878e71021461037f5780638da5cb5b146103925780639a34d972146103b057600080fd5b80635d4b671c116101875780636f13248d116101565780636f13248d146102f55780636ff1c9bc1461033e578063715018a61461035157806379ed67621461035957600080fd5b80635d4b671c146102b4578063608261b8146102c75780636b83c501146102cf5780636b8e05ec146102e257600080fd5b80634469fc9d116101c35780634469fc9d1461027e578063508a919e14610286578063529f9c651461029957806359bf5d39146102ac57600080fd5b80630df8af19146101f55780631a06c9751461020a5780631c84b5451461025457806342117f2114610267575b600080fd5b61020861020336600461430b565b610493565b005b606c5461022a9073ffffffffffffffffffffffffffffffffffffffff1681565b60405173ffffffffffffffffffffffffffffffffffffffff90911681526020015b60405180910390f35b61020861026236600461423d565b61054c565b61027060aa5481565b60405190815260200161024b565b610270610603565b61020861029436600461430b565b610644565b6102086102a7366004614150565b6106ca565b610270610792565b6102086102c23660046142c8565b610839565b610270610966565b6102086102dd366004614299565b610acd565b6102086102f0366004614188565b611129565b61032e610303366004614150565b73ffffffffffffffffffffffffffffffffffffffff1660009081526076602052604090205460ff1690565b604051901515815260200161024b565b61020861034c366004614150565b6113e8565b610208611637565b610208610367366004614150565b6116c4565b61020861037a366004614150565b6117bc565b61020861038d366004614150565b611884565b60335473ffffffffffffffffffffffffffffffffffffffff1661022a565b6102706119c9565b6102086103c6366004614150565b611b2e565b6102086103d936600461430b565b611bfb565b6102086103ec366004614150565b611cae565b6102706103ff366004614150565b611df3565b61020861041236600461430b565b611e2c565b61020861042536600461430b565b6123d2565b610208610438366004614323565b612482565b610208612533565b610208610453366004614150565b612895565b61020861046636600461430b565b6129c2565b610270612ecc565b606d5461022a9073ffffffffffffffffffffffffffffffffffffffff1681565b606d5473ffffffffffffffffffffffffffffffffffffffff16331461053f576040517f08c379a000000000000000000000000000000000000000000000000000000000815260206004820152602660248201527f537472617465677953746f726167653a2063616c6c6572206973206e6f74207460448201527f726967676572000000000000000000000000000000000000000000000000000060648201526084015b60405180910390fd5b61054881613000565b5050565b606d5473ffffffffffffffffffffffffffffffffffffffff1633146105f3576040517f08c379a000000000000000000000000000000000000000000000000000000000815260206004820152602660248201527f537472617465677953746f726167653a2063616c6c6572206973206e6f74207460448201527f72696767657200000000000000000000000000000000000000000000000000006064820152608401610536565b6105fe83838361313d565b505050565b60008064e8d4a510006106146119c9565b61061e9190614471565b9050600061062d610e1061322b565b905061063d82620f4240836132e1565b9250505090565b60335473ffffffffffffffffffffffffffffffffffffffff1633146106c5576040517f08c379a000000000000000000000000000000000000000000000000000000000815260206004820181905260248201527f4f776e61626c653a2063616c6c6572206973206e6f7420746865206f776e65726044820152606401610536565b60aa55565b60335473ffffffffffffffffffffffffffffffffffffffff16331461074b576040517f08c379a000000000000000000000000000000000000000000000000000000000815260206004820181905260248201527f4f776e61626c653a2063616c6c6572206973206e6f7420746865206f776e65726044820152606401610536565b606880547fffffffffffffffffffffffff00000000000000000000000000000000000000001673ffffffffffffffffffffffffffffffffffffffff92909216919091179055565b6069546040517f70a0823100000000000000000000000000000000000000000000000000000000815230600482015260009173ffffffffffffffffffffffffffffffffffffffff16906370a082319060240160206040518083038186803b1580156107fc57600080fd5b505afa158015610810573d6000803e3d6000fd5b505050506040513d601f19601f8201168201806040525081019061083491906142f3565b905090565b60335473ffffffffffffffffffffffffffffffffffffffff1633146108ba576040517f08c379a000000000000000000000000000000000000000000000000000000000815260206004820181905260248201527f4f776e61626c653a2063616c6c6572206973206e6f7420746865206f776e65726044820152606401610536565b6067546040517f095ea7b300000000000000000000000000000000000000000000000000000000815273ffffffffffffffffffffffffffffffffffffffff9182166004820152602481018390529083169063095ea7b390604401602060405180830381600087803b15801561092e57600080fd5b505af1158015610942573d6000803e3d6000fd5b505050506040513d601f19601f820116820180604052508101906105fe919061427d565b606854604080517f18160ddd000000000000000000000000000000000000000000000000000000008152905160009273ffffffffffffffffffffffffffffffffffffffff16916318160ddd916004808301926020929190829003018186803b1580156109d157600080fd5b505afa1580156109e5573d6000803e3d6000fd5b505050506040513d601f19601f82011682018060405250810190610a0991906142f3565b610a135750600090565b610834610a1e612ecc565b606854604080517f18160ddd0000000000000000000000000000000000000000000000000000000081529051670de0b6b3a76400009273ffffffffffffffffffffffffffffffffffffffff16916318160ddd916004808301926020929190829003018186803b158015610a9057600080fd5b505afa158015610aa4573d6000803e3d6000fd5b505050506040513d601f19601f82011682018060405250810190610ac891906142f3565b6132e1565b606d5473ffffffffffffffffffffffffffffffffffffffff163314610b74576040517f08c379a000000000000000000000000000000000000000000000000000000000815260206004820152602660248201527f537472617465677953746f726167653a2063616c6c6572206973206e6f74207460448201527f72696767657200000000000000000000000000000000000000000000000000006064820152608401610536565b80610bdb576040517f08c379a000000000000000000000000000000000000000000000000000000000815260206004820152601060248201527f444e503a207a65726f20616d6f756e74000000000000000000000000000000006044820152606401610536565b6000610beb600a6064602d6132e1565b606a546040517f70a08231000000000000000000000000000000000000000000000000000000008152306004820152919250600091610cb19173ffffffffffffffffffffffffffffffffffffffff16906370a082319060240160206040518083038186803b158015610c5c57600080fd5b505afa158015610c70573d6000803e3d6000fd5b505050506040513d601f19601f82011682018060405250810190610c9491906142f3565b610c9e600061322b565b6c0c9f2c9cd04674edea400000006132e1565b90506000610cc1828460646132e1565b9050600082118015610cd05750855b8015610cd95750845b15610d5a578084610ce8610792565b610cf2919061455b565b1115610d5a576040517f08c379a000000000000000000000000000000000000000000000000000000000815260206004820152601560248201527f444e503a2050726f706f7274696f6e20627265616b00000000000000000000006044820152606401610536565b8515611119576000610d6d85602d61347b565b90506000610d7c86602d61347b565b90508615610f365785610d8d610792565b1015610df5576040517f08c379a000000000000000000000000000000000000000000000000000000000815260206004820152601960248201527f444e503a20496e73756666696369656e742072657365727665000000000000006044820152606401610536565b6069546067546040517f095ea7b300000000000000000000000000000000000000000000000000000000815273ffffffffffffffffffffffffffffffffffffffff91821660048201526024810184905291169063095ea7b390604401602060405180830381600087803b158015610e6b57600080fd5b505af1158015610e7f573d6000803e3d6000fd5b505050506040513d601f19601f82011682018060405250810190610ea3919061427d565b50606954606a54610ece9173ffffffffffffffffffffffffffffffffffffffff90811691168361313d565b610ed782613493565b610eef610ee98364e8d4a510006144aa565b8861363b565b506040805183815260208101839052881515918a1515917f1c520f41c3a8e2aa318c749011558adfd2b9bf3a82c508c280944ba6424145af910160405180910390a3611112565b606a546040517f70a082310000000000000000000000000000000000000000000000000000000081523060048201528291610ff69173ffffffffffffffffffffffffffffffffffffffff909116906370a08231906024015b60206040518083038186803b158015610fa657600080fd5b505afa158015610fba573d6000803e3d6000fd5b505050506040513d601f19601f82011682018060405250810190610fde91906142f3565b610fe8600061322b565b670de0b6b3a76400006132e1565b1015611009576110046137b8565b611112565b606a546069546040517f70a082310000000000000000000000000000000000000000000000000000000081523060048201526110bc9273ffffffffffffffffffffffffffffffffffffffff908116921690849083906370a082319060240160206040518083038186803b15801561107f57600080fd5b505afa158015611093573d6000803e3d6000fd5b505050506040513d601f19601f820116820180604052508101906110b791906142f3565b613aa3565b6110c6828861363b565b506110d082613b8b565b6040805183815260208101839052881515918a1515917f1c520f41c3a8e2aa318c749011558adfd2b9bf3a82c508c280944ba6424145af910160405180910390a35b5050611121565b6111216137b8565b505050505050565b611131613bec565b6069805473ffffffffffffffffffffffffffffffffffffffff8b81167fffffffffffffffffffffffff00000000000000000000000000000000000000009283168117909355606780548c83169084168117909155606a80548c8416908516179055606b80548b8416908516179055607480548a841690851617905560758054898416908516179055606d8054928816928416929092179091556071805463ffffffff868116640100000000027fffffffffffffffffffffffffffffffffffffffffffffffff000000000000000090921690881617179055600060728190556070819055606e819055606f556065805464012c0001f47fffffffffffffffffff000000000000000000000000000000000000000000000090911617905560668054909216909155630bebc2006073556040517f095ea7b300000000000000000000000000000000000000000000000000000000815260048101919091527fffffffffffffffffffffffffffffffffffffffffffffffffffffffffffffffff602482015263095ea7b390604401602060405180830381600087803b1580156112d657600080fd5b505af11580156112ea573d6000803e3d6000fd5b505050506040513d601f19601f8201168201806040525081019061130e919061427d565b50606a546067546040517f095ea7b300000000000000000000000000000000000000000000000000000000815273ffffffffffffffffffffffffffffffffffffffff91821660048201527fffffffffffffffffffffffffffffffffffffffffffffffffffffffffffffffff602482015291169063095ea7b390604401602060405180830381600087803b1580156113a457600080fd5b505af11580156113b8573d6000803e3d6000fd5b505050506040513d601f19601f820116820180604052508101906113dc919061427d565b50505050505050505050565b60335473ffffffffffffffffffffffffffffffffffffffff163314611469576040517f08c379a000000000000000000000000000000000000000000000000000000000815260206004820181905260248201527f4f776e61626c653a2063616c6c6572206973206e6f7420746865206f776e65726044820152606401610536565b606c5473ffffffffffffffffffffffffffffffffffffffff166114e8576040517f08c379a000000000000000000000000000000000000000000000000000000000815260206004820152601d60248201527f537472617465677953746f726167653a207a65726f20616464726573730000006044820152606401610536565b606c546040517f70a0823100000000000000000000000000000000000000000000000000000000815230600482015273ffffffffffffffffffffffffffffffffffffffff8381169263a9059cbb9291169083906370a082319060240160206040518083038186803b15801561155c57600080fd5b505afa158015611570573d6000803e3d6000fd5b505050506040513d601f19601f8201168201806040525081019061159491906142f3565b6040517fffffffff0000000000000000000000000000000000000000000000000000000060e085901b16815273ffffffffffffffffffffffffffffffffffffffff90921660048301526024820152604401602060405180830381600087803b1580156115ff57600080fd5b505af1158015611613573d6000803e3d6000fd5b505050506040513d601f19601f82011682018060405250810190610548919061427d565b60335473ffffffffffffffffffffffffffffffffffffffff1633146116b8576040517f08c379a000000000000000000000000000000000000000000000000000000000815260206004820181905260248201527f4f776e61626c653a2063616c6c6572206973206e6f7420746865206f776e65726044820152606401610536565b6116c26000613d11565b565b60335473ffffffffffffffffffffffffffffffffffffffff163314611745576040517f08c379a000000000000000000000000000000000000000000000000000000000815260206004820181905260248201527f4f776e61626c653a2063616c6c6572206973206e6f7420746865206f776e65726044820152606401610536565b73ffffffffffffffffffffffffffffffffffffffff811660008181526076602052604080822080547fffffffffffffffffffffffffffffffffffffffffffffffffffffffffffffff00166001179055517fbc20f56c378e7e237a981b81d32ff91ed86109ee0373a910a83346edd53ad0de9190a250565b60335473ffffffffffffffffffffffffffffffffffffffff16331461183d576040517f08c379a000000000000000000000000000000000000000000000000000000000815260206004820181905260248201527f4f776e61626c653a2063616c6c6572206973206e6f7420746865206f776e65726044820152606401610536565b606b80547fffffffffffffffffffffffff00000000000000000000000000000000000000001673ffffffffffffffffffffffffffffffffffffffff92909216919091179055565b60335473ffffffffffffffffffffffffffffffffffffffff163314611905576040517f08c379a000000000000000000000000000000000000000000000000000000000815260206004820181905260248201527f4f776e61626c653a2063616c6c6572206973206e6f7420746865206f776e65726044820152606401610536565b73ffffffffffffffffffffffffffffffffffffffff8116611982576040517f08c379a000000000000000000000000000000000000000000000000000000000815260206004820152601d60248201527f537472617465677953746f726167653a207a65726f20616464726573730000006044820152606401610536565b606d80547fffffffffffffffffffffffff00000000000000000000000000000000000000001673ffffffffffffffffffffffffffffffffffffffff92909216919091179055565b600080607460009054906101000a900473ffffffffffffffffffffffffffffffffffffffff1673ffffffffffffffffffffffffffffffffffffffff1663f807cd226040518163ffffffff1660e01b815260040160206040518083038186803b158015611a3457600080fd5b505afa158015611a48573d6000803e3d6000fd5b505050506040513d601f19601f82011682018060405250810190611a6c919061416c565b606b546040517f99e4a77100000000000000000000000000000000000000000000000000000000815273ffffffffffffffffffffffffffffffffffffffff9182166004820152610e1060248201529116906399e4a7719060440160206040518083038186803b158015611ade57600080fd5b505afa158015611af2573d6000803e3d6000fd5b505050506040513d601f19601f82011682018060405250810190611b16919061416c565b90506000611b2382613d88565b905061063d81613db8565b60335473ffffffffffffffffffffffffffffffffffffffff163314611baf576040517f08c379a000000000000000000000000000000000000000000000000000000000815260206004820181905260248201527f4f776e61626c653a2063616c6c6572206973206e6f7420746865206f776e65726044820152606401610536565b73ffffffffffffffffffffffffffffffffffffffff16600090815260766020526040902080547fffffffffffffffffffffffffffffffffffffffffffffffffffffffffffffff00169055565b606d5473ffffffffffffffffffffffffffffffffffffffff163314611ca2576040517f08c379a000000000000000000000000000000000000000000000000000000000815260206004820152602660248201527f537472617465677953746f726167653a2063616c6c6572206973206e6f74207460448201527f72696767657200000000000000000000000000000000000000000000000000006064820152608401610536565b611cab81613b8b565b50565b60335473ffffffffffffffffffffffffffffffffffffffff163314611d2f576040517f08c379a000000000000000000000000000000000000000000000000000000000815260206004820181905260248201527f4f776e61626c653a2063616c6c6572206973206e6f7420746865206f776e65726044820152606401610536565b73ffffffffffffffffffffffffffffffffffffffff8116611dac576040517f08c379a000000000000000000000000000000000000000000000000000000000815260206004820152601d60248201527f537472617465677953746f726167653a207a65726f20616464726573730000006044820152606401610536565b606c80547fffffffffffffffffffffffff00000000000000000000000000000000000000001673ffffffffffffffffffffffffffffffffffffffff92909216919091179055565b73ffffffffffffffffffffffffffffffffffffffff8116600090815260776020526040812054607354611e26919061455b565b92915050565b80611e93576040517f08c379a000000000000000000000000000000000000000000000000000000000815260206004820152601060248201527f444e503a207a65726f20616d6f756e74000000000000000000000000000000006044820152606401610536565b60685473ffffffffffffffffffffffffffffffffffffffff166370a08231336040517fffffffff0000000000000000000000000000000000000000000000000000000060e084901b16815273ffffffffffffffffffffffffffffffffffffffff909116600482015260240160206040518083038186803b158015611f1657600080fd5b505afa158015611f2a573d6000803e3d6000fd5b505050506040513d601f19601f82011682018060405250810190611f4e91906142f3565b811115611fb7576040517f08c379a000000000000000000000000000000000000000000000000000000000815260206004820152601860248201527f444e503a20696e73756666696369656e7420746f6b656e7300000000000000006044820152606401610536565b600061202982620f4240606860009054906101000a900473ffffffffffffffffffffffffffffffffffffffff1673ffffffffffffffffffffffffffffffffffffffff166318160ddd6040518163ffffffff1660e01b815260040160206040518083038186803b158015610a9057600080fd5b90506000612042612038612ecc565b83620f42406132e1565b905061204c612ecc565b8111156120db576040517f08c379a000000000000000000000000000000000000000000000000000000000815260206004820152602f60248201527f444e503a20747279696e6720746f207769746864726177206d6f72652074686160448201527f6e20706f6f6c20636f6e7461696e7300000000000000000000000000000000006064820152608401610536565b60685473ffffffffffffffffffffffffffffffffffffffff166323b872dd336040517fffffffff0000000000000000000000000000000000000000000000000000000060e084901b16815273ffffffffffffffffffffffffffffffffffffffff909116600482015230602482015260448101869052606401602060405180830381600087803b15801561216d57600080fd5b505af1158015612181573d6000803e3d6000fd5b505050506040513d601f19601f820116820180604052508101906121a5919061427d565b506068546040517f42966c680000000000000000000000000000000000000000000000000000000081526004810185905273ffffffffffffffffffffffffffffffffffffffff909116906342966c6890602401602060405180830381600087803b15801561221257600080fd5b505af1158015612226573d6000803e3d6000fd5b505050506040513d601f19601f8201168201806040525081019061224a919061427d565b5080612254610792565b101561226b5761226b612265610792565b82613dda565b80606f600082825461227d91906143e5565b9091555050336000908152607760205260409020548111156122ae57336000908152607760205260408120556122d3565b33600090815260776020526040812080548392906122cd90849061455b565b90915550505b60695473ffffffffffffffffffffffffffffffffffffffff1663a9059cbb336040517fffffffff0000000000000000000000000000000000000000000000000000000060e084901b16815273ffffffffffffffffffffffffffffffffffffffff909116600482015260248101849052604401602060405180830381600087803b15801561235f57600080fd5b505af1158015612373573d6000803e3d6000fd5b505050506040513d601f19601f82011682018060405250810190612397919061427d565b5060405181815233907f2aa7fb97600ea702b454359fc3d02ae9fa48367e7155505d38cee896e5b5aae79060200160405180910390a2505050565b606d5473ffffffffffffffffffffffffffffffffffffffff163314612479576040517f08c379a000000000000000000000000000000000000000000000000000000000815260206004820152602660248201527f537472617465677953746f726167653a2063616c6c6572206973206e6f74207460448201527f72696767657200000000000000000000000000000000000000000000000000006064820152608401610536565b611cab81613493565b606d5473ffffffffffffffffffffffffffffffffffffffff163314612529576040517f08c379a000000000000000000000000000000000000000000000000000000000815260206004820152602660248201527f537472617465677953746f726167653a2063616c6c6572206973206e6f74207460448201527f72696767657200000000000000000000000000000000000000000000000000006064820152608401610536565b6105fe828261363b565b606d5473ffffffffffffffffffffffffffffffffffffffff1633146125da576040517f08c379a000000000000000000000000000000000000000000000000000000000815260206004820152602660248201527f537472617465677953746f726167653a2063616c6c6572206973206e6f74207460448201527f72696767657200000000000000000000000000000000000000000000000000006064820152608401610536565b607254429062015180906125ee908361455b565b11612655576040517f08c379a000000000000000000000000000000000000000000000000000000000815260206004820152601860248201527f444e503a20706620616c726561647920676174686572656400000000000000006044820152606401610536565b6000606f54607054606e54612668612ecc565b61267291906144e7565b61267c91906144e7565b61268691906143e5565b9050612690612ecc565b6070556072829055600081136126a4575050565b6071546000906126ba9063ffffffff16836144aa565b90506000816126c7612ecc565b6126d1919061455b565b606860009054906101000a900473ffffffffffffffffffffffffffffffffffffffff1673ffffffffffffffffffffffffffffffffffffffff166318160ddd6040518163ffffffff1660e01b815260040160206040518083038186803b15801561273957600080fd5b505afa15801561274d573d6000803e3d6000fd5b505050506040513d601f19601f8201168201806040525081019061277191906142f3565b61277b90846144aa565b6127859190614471565b606854606d546040517f40c10f1900000000000000000000000000000000000000000000000000000000815273ffffffffffffffffffffffffffffffffffffffff91821660048201526024810184905292935016906340c10f1990604401602060405180830381600087803b1580156127fd57600080fd5b505af1158015612811573d6000803e3d6000fd5b505050506040513d601f19601f82011682018060405250810190612835919061427d565b506000606e819055606f55606d5460405182815273ffffffffffffffffffffffffffffffffffffffff909116907f7a44944d09bcbc3fdb1600641d2f29810d37ea1a6c0f4abd927ce54ec35ccb229060200160405180910390a250505050565b60335473ffffffffffffffffffffffffffffffffffffffff163314612916576040517f08c379a000000000000000000000000000000000000000000000000000000000815260206004820181905260248201527f4f776e61626c653a2063616c6c6572206973206e6f7420746865206f776e65726044820152606401610536565b73ffffffffffffffffffffffffffffffffffffffff81166129b9576040517f08c379a000000000000000000000000000000000000000000000000000000000815260206004820152602660248201527f4f776e61626c653a206e6577206f776e657220697320746865207a65726f206160448201527f64647265737300000000000000000000000000000000000000000000000000006064820152608401610536565b611cab81613d11565b80612a29576040517f08c379a000000000000000000000000000000000000000000000000000000000815260206004820152601060248201527f444e503a207a65726f20616d6f756e74000000000000000000000000000000006044820152606401610536565b3360009081526076602052604090205460ff16612ac8576040517f08c379a000000000000000000000000000000000000000000000000000000000815260206004820152602360248201527f444e503a20596f7520617265206e6f7420616c6c6f77656420746f206465706f60448201527f73697400000000000000000000000000000000000000000000000000000000006064820152608401610536565b60735433600090815260776020526040902054612ae6908390614459565b1115612b4e576040517f08c379a000000000000000000000000000000000000000000000000000000000815260206004820152601c60248201527f444e503a20457863656564696e67206465706f736974206c696d6974000000006044820152606401610536565b60aa5481612b5a612ecc565b612b649190614459565b1115612bcc576040517f08c379a000000000000000000000000000000000000000000000000000000000815260206004820152601f60248201527f444e503a20457863656564696e6720746f74616c20706f6f6c206c696d6974006044820152606401610536565b6000612bd6612ecc565b90506000612be98364e8d4a510006144aa565b9050620186a0821115612cb5576000612c0b84670de0b6b3a7640000856132e1565b9050612cb181606860009054906101000a900473ffffffffffffffffffffffffffffffffffffffff1673ffffffffffffffffffffffffffffffffffffffff166318160ddd6040518163ffffffff1660e01b815260040160206040518083038186803b158015612c7957600080fd5b505afa158015612c8d573d6000803e3d6000fd5b505050506040513d601f19601f82011682018060405250810190610fe891906142f3565b9150505b60695473ffffffffffffffffffffffffffffffffffffffff166323b872dd336040517fffffffff0000000000000000000000000000000000000000000000000000000060e084901b16815273ffffffffffffffffffffffffffffffffffffffff909116600482015230602482015260448101869052606401602060405180830381600087803b158015612d4757600080fd5b505af1158015612d5b573d6000803e3d6000fd5b505050506040513d601f19601f82011682018060405250810190612d7f919061427d565b5060685473ffffffffffffffffffffffffffffffffffffffff166340c10f19336040517fffffffff0000000000000000000000000000000000000000000000000000000060e084901b16815273ffffffffffffffffffffffffffffffffffffffff909116600482015260248101849052604401602060405180830381600087803b158015612e0c57600080fd5b505af1158015612e20573d6000803e3d6000fd5b505050506040513d601f19601f82011682018060405250810190612e44919061427d565b5082606e6000828254612e5791906143e5565b90915550503360009081526077602052604081208054859290612e7b908490614459565b9091555050336000818152607760209081526040918290205491518681528493917fadb9c7d50e628cfae085d3b964d71561992874591285cf3fceca443f1a5ed7cb910160405180910390a4505050565b606a546040517f70a08231000000000000000000000000000000000000000000000000000000008152306004820152600091612f299173ffffffffffffffffffffffffffffffffffffffff909116906370a0823190602401610f8e565b612f31610792565b6074546040517f5ae8095100000000000000000000000000000000000000000000000000000000815230600482015264e8d4a5100091612fe29173ffffffffffffffffffffffffffffffffffffffff90911690635ae809519060240160206040518083038186803b158015612fa557600080fd5b505afa158015612fb9573d6000803e3d6000fd5b505050506040513d601f19601f82011682018060405250810190612fdd91906142f3565b613f1a565b612fec9190614471565b612ff69190614459565b6108349190614459565b6074546040805160a081018252606b5473ffffffffffffffffffffffffffffffffffffffff90811682526066548116602083015291810184905260655460009383169262aa9a899291606083019161306091630100000090041642614459565b815260006020918201526040805160e085901b7fffffffff00000000000000000000000000000000000000000000000000000000168152835173ffffffffffffffffffffffffffffffffffffffff9081166004830152928401519092166024830152820151604482015260608201516064820152608090910151608482015260a4016040805180830381600087803b1580156130fb57600080fd5b505af115801561310f573d6000803e3d6000fd5b505050506040513d601f19601f820116820180604052508101906131339190614352565b5060019392505050565b6067546040805160e08101825273ffffffffffffffffffffffffffffffffffffffff8681168252858116602083015260655462ffffff168284015230606083015260808201859052600060a0830152606654811660c083015291517f04e45aaf00000000000000000000000000000000000000000000000000000000815291909216916304e45aaf916131d39190600401614375565b602060405180830381600087803b1580156131ed57600080fd5b505af1158015613201573d6000803e3d6000fd5b505050506040513d601f19601f8201168201806040525081019061322591906142f3565b50505050565b606b546040517f120806470000000000000000000000000000000000000000000000000000000081526004810183905260009164e8d4a510009173ffffffffffffffffffffffffffffffffffffffff9091169063120806479060240160206040518083038186803b15801561329f57600080fd5b505afa1580156132b3573d6000803e3d6000fd5b505050506040513d601f19601f820116820180604052508101906132d791906142f3565b611e269190614471565b600080807fffffffffffffffffffffffffffffffffffffffffffffffffffffffffffffffff8587098587029250828110838203039150508060001415613339576000841161332e57600080fd5b508290049050613474565b80841161334557600080fd5b600084868809808403938111909203919050600061336586196001614459565b861695869004959384900493600081900304600101905061338681846144aa565b9093179260006133978760036144aa565b60021890506133a681886144aa565b6133b190600261455b565b6133bb90826144aa565b90506133c781886144aa565b6133d290600261455b565b6133dc90826144aa565b90506133e881886144aa565b6133f390600261455b565b6133fd90826144aa565b905061340981886144aa565b61341490600261455b565b61341e90826144aa565b905061342a81886144aa565b61343590600261455b565b61343f90826144aa565b905061344b81886144aa565b61345690600261455b565b61346090826144aa565b905061346c81866144aa565b955050505050505b9392505050565b6000606461348983856144aa565b6134749190614471565b806134fa576040517f08c379a000000000000000000000000000000000000000000000000000000000815260206004820152601060248201527f444e503a207a65726f20616d6f756e74000000000000000000000000000000006044820152606401610536565b6069546075546040517f095ea7b300000000000000000000000000000000000000000000000000000000815273ffffffffffffffffffffffffffffffffffffffff91821660048201526024810184905291169063095ea7b390604401602060405180830381600087803b15801561357057600080fd5b505af1158015613584573d6000803e3d6000fd5b505050506040513d601f19601f820116820180604052508101906135a8919061427d565b506075546069546040517f47e7ef2400000000000000000000000000000000000000000000000000000000815273ffffffffffffffffffffffffffffffffffffffff9182166004820152602481018490529116906347e7ef24906044015b600060405180830381600087803b15801561362057600080fd5b505af1158015613634573d6000803e3d6000fd5b5050505050565b6074546040805161010081018252606b5473ffffffffffffffffffffffffffffffffffffffff9081168252841515602083015260009282018390526060820186905260808201839052606554929381169263b6b1b6c3929160a08301916136ab9163010000009091041642614459565b815260665473ffffffffffffffffffffffffffffffffffffffff9081166020808401919091526000604093840152825160e086811b7fffffffff0000000000000000000000000000000000000000000000000000000016825285518416600483015291850151151560248201529284015115156044840152606084015160648401526080840151608484015260a084015160a484015260c084015190911660c4830152919091015160e4820152610104016040805180830381600087803b15801561377557600080fd5b505af1158015613789573d6000803e3d6000fd5b505050506040513d601f19601f820116820180604052508101906137ad9190614352565b506001949350505050565b6137c26000613000565b506075546040517fc399944400000000000000000000000000000000000000000000000000000000815230600482015261386b9173ffffffffffffffffffffffffffffffffffffffff169063c39994449060240160206040518083038186803b15801561382e57600080fd5b505afa158015613842573d6000803e3d6000fd5b505050506040513d601f19601f8201168201806040525081019061386691906142f3565b613b8b565b606a546040517f70a0823100000000000000000000000000000000000000000000000000000000815230600482015260009173ffffffffffffffffffffffffffffffffffffffff16906370a082319060240160206040518083038186803b1580156138d557600080fd5b505afa1580156138e9573d6000803e3d6000fd5b505050506040513d601f19601f8201168201806040525081019061390d91906142f3565b11156139c457606a546069546040517f70a082310000000000000000000000000000000000000000000000000000000081523060048201526139c49273ffffffffffffffffffffffffffffffffffffffff90811692169082906370a082319060240160206040518083038186803b15801561398757600080fd5b505afa15801561399b573d6000803e3d6000fd5b505050506040513d601f19601f820116820180604052508101906139bf91906142f3565b61313d565b6069546040517f70a0823100000000000000000000000000000000000000000000000000000000815230600482015260009182917f1c520f41c3a8e2aa318c749011558adfd2b9bf3a82c508c280944ba6424145af9173ffffffffffffffffffffffffffffffffffffffff16906370a082319060240160206040518083038186803b158015613a5257600080fd5b505afa158015613a66573d6000803e3d6000fd5b505050506040513d601f19601f82011682018060405250810190613a8a91906142f3565b60408051918252600060208301520160405180910390a3565b6067546040805160e08101825273ffffffffffffffffffffffffffffffffffffffff8781168252868116602083015260655462ffffff16828401523060608301526080820186905260a08201859052606654811660c083015291517f5023b4df0000000000000000000000000000000000000000000000000000000081529190921691635023b4df91613b399190600401614375565b602060405180830381600087803b158015613b5357600080fd5b505af1158015613b67573d6000803e3d6000fd5b505050506040513d601f19601f8201168201806040525081019061363491906142f3565b6075546069546040517ff3fef3a300000000000000000000000000000000000000000000000000000000815273ffffffffffffffffffffffffffffffffffffffff91821660048201526024810184905291169063f3fef3a390604401613606565b600054610100900460ff1680613c05575060005460ff16155b613c91576040517f08c379a000000000000000000000000000000000000000000000000000000000815260206004820152602e60248201527f496e697469616c697a61626c653a20636f6e747261637420697320616c72656160448201527f647920696e697469616c697a65640000000000000000000000000000000000006064820152608401610536565b600054610100900460ff16158015613cd057600080547fffffffffffffffffffffffffffffffffffffffffffffffffffffffffffff0000166101011790555b613cd8613f36565b613ce061404a565b8015611cab57600080547fffffffffffffffffffffffffffffffffffffffffffffffffffffffffffff00ff16905550565b6033805473ffffffffffffffffffffffffffffffffffffffff8381167fffffffffffffffffffffffff0000000000000000000000000000000000000000831681179093556040519116919082907f8be0079c531659141344cd1fd0a4f28419497f9722a3daafe3b4186f6b6457e090600090a35050565b6000611e2673ffffffffffffffffffffffffffffffffffffffff8316806c010000000000000000000000006132e1565b6000611e2682670de0b6b3a76400006c010000000000000000000000006132e1565b6000613de6838361455b565b90506002613df5600a83614471565b613dff9083614459565b613e099190614471565b90506000613e2482670de0b6b3a7640000610ac8600061322b565b606a546040517f70a0823100000000000000000000000000000000000000000000000000000000815230600482015291925073ffffffffffffffffffffffffffffffffffffffff16906370a082319060240160206040518083038186803b158015613e8e57600080fd5b505afa158015613ea2573d6000803e3d6000fd5b505050506040513d601f19601f82011682018060405250810190613ec691906142f3565b811115613eda57613ed56137b8565b613225565b606a54606954613f059173ffffffffffffffffffffffffffffffffffffffff90811691168484613aa3565b613f1081600061363b565b5061322582613b8b565b600080821215613f3257613f2d82614572565b611e26565b5090565b600054610100900460ff1680613f4f575060005460ff16155b613fdb576040517f08c379a000000000000000000000000000000000000000000000000000000000815260206004820152602e60248201527f496e697469616c697a61626c653a20636f6e747261637420697320616c72656160448201527f647920696e697469616c697a65640000000000000000000000000000000000006064820152608401610536565b600054610100900460ff16158015613ce057600080547fffffffffffffffffffffffffffffffffffffffffffffffffffffffffffff0000166101011790558015611cab57600080547fffffffffffffffffffffffffffffffffffffffffffffffffffffffffffff00ff16905550565b600054610100900460ff1680614063575060005460ff16155b6140ef576040517f08c379a000000000000000000000000000000000000000000000000000000000815260206004820152602e60248201527f496e697469616c697a61626c653a20636f6e747261637420697320616c72656160448201527f647920696e697469616c697a65640000000000000000000000000000000000006064820152608401610536565b600054610100900460ff1615801561412e57600080547fffffffffffffffffffffffffffffffffffffffffffffffffffffffffffff0000166101011790555b613ce033613d11565b803563ffffffff8116811461414b57600080fd5b919050565b600060208284031215614161578081fd5b8135613474816145d7565b60006020828403121561417d578081fd5b8151613474816145d7565b60008060008060008060008060006101208a8c0312156141a6578485fd5b89356141b1816145d7565b985060208a01356141c1816145d7565b975060408a01356141d1816145d7565b965060608a01356141e1816145d7565b955060808a01356141f1816145d7565b945060a08a0135614201816145d7565b935060c08a0135614211816145d7565b925061421f60e08b01614137565b915061422e6101008b01614137565b90509295985092959850929598565b600080600060608486031215614251578283fd5b833561425c816145d7565b9250602084013561426c816145d7565b929592945050506040919091013590565b60006020828403121561428e578081fd5b8151613474816145f9565b6000806000606084860312156142ad578283fd5b83356142b8816145f9565b9250602084013561426c816145f9565b600080604083850312156142da578182fd5b82356142e5816145d7565b946020939093013593505050565b600060208284031215614304578081fd5b5051919050565b60006020828403121561431c578081fd5b5035919050565b60008060408385031215614335578081fd5b823591506020830135614347816145f9565b809150509250929050565b60008060408385031215614364578182fd5b505080516020909101519092909150565b60e08101611e26828473ffffffffffffffffffffffffffffffffffffffff80825116835280602083015116602084015262ffffff60408301511660408401528060608301511660608401526080820151608084015260a082015160a08401528060c08301511660c0840152505050565b6000808212827f7fffffffffffffffffffffffffffffffffffffffffffffffffffffffffffffff0384138115161561441f5761441f6145a8565b827f8000000000000000000000000000000000000000000000000000000000000000038412811615614453576144536145a8565b50500190565b6000821982111561446c5761446c6145a8565b500190565b6000826144a5577f4e487b710000000000000000000000000000000000000000000000000000000081526012600452602481fd5b500490565b6000817fffffffffffffffffffffffffffffffffffffffffffffffffffffffffffffffff04831182151516156144e2576144e26145a8565b500290565b6000808312837f800000000000000000000000000000000000000000000000000000000000000001831281151615614521576145216145a8565b837f7fffffffffffffffffffffffffffffffffffffffffffffffffffffffffffffff018313811615614555576145556145a8565b50500390565b60008282101561456d5761456d6145a8565b500390565b60007f80000000000000000000000000000000000000000000000000000000000000008214156145a4576145a46145a8565b0390565b7f4e487b7100000000000000000000000000000000000000000000000000000000600052601160045260246000fd5b73ffffffffffffffffffffffffffffffffffffffff81168114611cab57600080fd5b8015158114611cab57600080fdfea26469706673582212204e2d0c9457efa960c897b6999865159ad7a37736623c348ff3164eb506119c7d64736f6c63430008040033",
  "linkReferences": {},
  "deployedLinkReferences": {}
}